{
	"Votacao.sol": {
		"Votacao": {
			"abi": [
				{
					"inputs": [
						{
							"internalType": "string",
							"name": "_voto",
							"type": "string"
						}
					],
					"stateMutability": "nonpayable",
					"type": "constructor"
				},
				{
					"inputs": [
						{
							"internalType": "string",
							"name": "",
							"type": "string"
						}
					],
					"name": "candidatos",
					"outputs": [
						{
							"internalType": "uint256",
							"name": "",
							"type": "uint256"
						}
					],
					"stateMutability": "view",
					"type": "function"
				},
				{
					"inputs": [
						{
							"internalType": "string",
							"name": "_candidato",
							"type": "string"
						}
					],
					"name": "votar",
					"outputs": [],
					"stateMutability": "nonpayable",
					"type": "function"
				}
			],
			"devdoc": {
				"kind": "dev",
				"methods": {},
				"version": 1
			},
			"evm": {
				"assembly": "    /* \"Votacao.sol\":62:371  contract Votacao {... */\n  mstore(0x40, 0x80)\n    /* \"Votacao.sol\":134:271  constructor(string memory _voto) {... */\n  callvalue\n  dup1\n  iszero\n  tag_1\n  jumpi\n  0x00\n  dup1\n  revert\ntag_1:\n  pop\n  mload(0x40)\n  sub(codesize, bytecodeSize)\n  dup1\n  bytecodeSize\n  dup4\n  codecopy\n  dup2\n  dup2\n  add\n  0x40\n  mstore\n  dup2\n  add\n  swap1\n  tag_2\n  swap2\n  swap1\n  tag_3\n  jump\t// in\ntag_2:\n    /* \"Votacao.sol\":198:199  0 */\n  0x00\n    /* \"Votacao.sol\":177:187  candidatos */\n  dup1\n    /* \"Votacao.sol\":177:195  candidatos['joao'] */\n  mload(0x40)\n  tag_6\n  swap1\n  tag_7\n  jump\t// in\ntag_6:\n  swap1\n  dup2\n  mstore\n  0x20\n  add\n  mload(0x40)\n  dup1\n  swap2\n  sub\n  swap1\n  keccak256\n    /* \"Votacao.sol\":177:199  candidatos['joao'] = 0 */\n  dup2\n  swap1\n  sstore\n  pop\n    /* \"Votacao.sol\":230:231  0 */\n  0x00\n    /* \"Votacao.sol\":209:219  candidatos */\n  dup1\n    /* \"Votacao.sol\":209:227  candidatos['jose'] */\n  mload(0x40)\n  tag_8\n  swap1\n  tag_9\n  jump\t// in\ntag_8:\n  swap1\n  dup2\n  mstore\n  0x20\n  add\n  mload(0x40)\n  dup1\n  swap2\n  sub\n  swap1\n  keccak256\n    /* \"Votacao.sol\":209:231  candidatos['jose'] = 0 */\n  dup2\n  swap1\n  sstore\n  pop\n    /* \"Votacao.sol\":263:264  0 */\n  0x00\n    /* \"Votacao.sol\":241:251  candidatos */\n  dup1\n    /* \"Votacao.sol\":241:260  candidatos['fabio'] */\n  mload(0x40)\n  tag_10\n  swap1\n  tag_11\n  jump\t// in\ntag_10:\n  swap1\n  dup2\n  mstore\n  0x20\n  add\n  mload(0x40)\n  dup1\n  swap2\n  sub\n  swap1\n  keccak256\n    /* \"Votacao.sol\":241:264  candidatos['fabio'] = 0 */\n  dup2\n  swap1\n  sstore\n  pop\n    /* \"Votacao.sol\":134:271  constructor(string memory _voto) {... */\n  pop\n    /* \"Votacao.sol\":62:371  contract Votacao {... */\n  jump(tag_12)\n    /* \"#utility.yul\":7:428   */\ntag_14:\n    /* \"#utility.yul\":96:101   */\n  0x00\n    /* \"#utility.yul\":121:187   */\n  tag_16\n    /* \"#utility.yul\":137:186   */\n  tag_17\n    /* \"#utility.yul\":179:185   */\n  dup5\n    /* \"#utility.yul\":137:186   */\n  tag_18\n  jump\t// in\ntag_17:\n    /* \"#utility.yul\":121:187   */\n  tag_19\n  jump\t// in\ntag_16:\n    /* \"#utility.yul\":112:187   */\n  swap1\n  pop\n    /* \"#utility.yul\":210:216   */\n  dup3\n    /* \"#utility.yul\":203:208   */\n  dup2\n    /* \"#utility.yul\":196:217   */\n  mstore\n    /* \"#utility.yul\":248:252   */\n  0x20\n    /* \"#utility.yul\":241:246   */\n  dup2\n    /* \"#utility.yul\":237:253   */\n  add\n    /* \"#utility.yul\":286:289   */\n  dup5\n    /* \"#utility.yul\":277:283   */\n  dup5\n    /* \"#utility.yul\":272:275   */\n  dup5\n    /* \"#utility.yul\":268:284   */\n  add\n    /* \"#utility.yul\":265:290   */\n  gt\n    /* \"#utility.yul\":262:374   */\n  iszero\n  tag_20\n  jumpi\n    /* \"#utility.yul\":293:372   */\n  tag_21\n  tag_22\n  jump\t// in\ntag_21:\n    /* \"#utility.yul\":262:374   */\ntag_20:\n    /* \"#utility.yul\":383:422   */\n  tag_23\n    /* \"#utility.yul\":415:421   */\n  dup5\n    /* \"#utility.yul\":410:413   */\n  dup3\n    /* \"#utility.yul\":405:408   */\n  dup6\n    /* \"#utility.yul\":383:422   */\n  tag_24\n  jump\t// in\ntag_23:\n    /* \"#utility.yul\":102:428   */\n  pop\n    /* \"#utility.yul\":7:428   */\n  swap4\n  swap3\n  pop\n  pop\n  pop\n  jump\t// out\n    /* \"#utility.yul\":448:803   */\ntag_25:\n    /* \"#utility.yul\":515:520   */\n  0x00\n    /* \"#utility.yul\":564:567   */\n  dup3\n    /* \"#utility.yul\":557:561   */\n  0x1f\n    /* \"#utility.yul\":549:555   */\n  dup4\n    /* \"#utility.yul\":545:562   */\n  add\n    /* \"#utility.yul\":541:568   */\n  slt\n    /* \"#utility.yul\":531:653   */\n  tag_27\n  jumpi\n    /* \"#utility.yul\":572:651   */\n  tag_28\n  tag_29\n  jump\t// in\ntag_28:\n    /* \"#utility.yul\":531:653   */\ntag_27:\n    /* \"#utility.yul\":682:688   */\n  dup2\n    /* \"#utility.yul\":676:689   */\n  mload\n    /* \"#utility.yul\":707:797   */\n  tag_30\n    /* \"#utility.yul\":793:796   */\n  dup5\n    /* \"#utility.yul\":785:791   */\n  dup3\n    /* \"#utility.yul\":778:782   */\n  0x20\n    /* \"#utility.yul\":770:776   */\n  dup7\n    /* \"#utility.yul\":766:783   */\n  add\n    /* \"#utility.yul\":707:797   */\n  tag_14\n  jump\t// in\ntag_30:\n    /* \"#utility.yul\":698:797   */\n  swap2\n  pop\n    /* \"#utility.yul\":521:803   */\n  pop\n    /* \"#utility.yul\":448:803   */\n  swap3\n  swap2\n  pop\n  pop\n  jump\t// out\n    /* \"#utility.yul\":809:1333   */\ntag_3:\n    /* \"#utility.yul\":889:895   */\n  0x00\n    /* \"#utility.yul\":938:940   */\n  0x20\n    /* \"#utility.yul\":926:935   */\n  dup3\n    /* \"#utility.yul\":917:924   */\n  dup5\n    /* \"#utility.yul\":913:936   */\n  sub\n    /* \"#utility.yul\":909:941   */\n  slt\n    /* \"#utility.yul\":906:1025   */\n  iszero\n  tag_32\n  jumpi\n    /* \"#utility.yul\":944:1023   */\n  tag_33\n  tag_34\n  jump\t// in\ntag_33:\n    /* \"#utility.yul\":906:1025   */\ntag_32:\n    /* \"#utility.yul\":1085:1086   */\n  0x00\n    /* \"#utility.yul\":1074:1083   */\n  dup3\n    /* \"#utility.yul\":1070:1087   */\n  add\n    /* \"#utility.yul\":1064:1088   */\n  mload\n    /* \"#utility.yul\":1115:1133   */\n  0xffffffffffffffff\n    /* \"#utility.yul\":1107:1113   */\n  dup2\n    /* \"#utility.yul\":1104:1134   */\n  gt\n    /* \"#utility.yul\":1101:1218   */\n  iszero\n  tag_35\n  jumpi\n    /* \"#utility.yul\":1137:1216   */\n  tag_36\n  tag_37\n  jump\t// in\ntag_36:\n    /* \"#utility.yul\":1101:1218   */\ntag_35:\n    /* \"#utility.yul\":1242:1316   */\n  tag_38\n    /* \"#utility.yul\":1308:1315   */\n  dup5\n    /* \"#utility.yul\":1299:1305   */\n  dup3\n    /* \"#utility.yul\":1288:1297   */\n  dup6\n    /* \"#utility.yul\":1284:1306   */\n  add\n    /* \"#utility.yul\":1242:1316   */\n  tag_25\n  jump\t// in\ntag_38:\n    /* \"#utility.yul\":1232:1316   */\n  swap2\n  pop\n    /* \"#utility.yul\":1035:1326   */\n  pop\n    /* \"#utility.yul\":809:1333   */\n  swap3\n  swap2\n  pop\n  pop\n  jump\t// out\n    /* \"#utility.yul\":1339:1739   */\ntag_39:\n    /* \"#utility.yul\":1499:1502   */\n  0x00\n    /* \"#utility.yul\":1520:1604   */\n  tag_41\n    /* \"#utility.yul\":1602:1603   */\n  0x04\n    /* \"#utility.yul\":1597:1600   */\n  dup4\n    /* \"#utility.yul\":1520:1604   */\n  tag_42\n  jump\t// in\ntag_41:\n    /* \"#utility.yul\":1513:1604   */\n  swap2\n  pop\n    /* \"#utility.yul\":1613:1706   */\n  tag_43\n    /* \"#utility.yul\":1702:1705   */\n  dup3\n    /* \"#utility.yul\":1613:1706   */\n  tag_44\n  jump\t// in\ntag_43:\n    /* \"#utility.yul\":1731:1732   */\n  0x04\n    /* \"#utility.yul\":1726:1729   */\n  dup3\n    /* \"#utility.yul\":1722:1733   */\n  add\n    /* \"#utility.yul\":1715:1733   */\n  swap1\n  pop\n    /* \"#utility.yul\":1339:1739   */\n  swap2\n  swap1\n  pop\n  jump\t// out\n    /* \"#utility.yul\":1745:2145   */\ntag_45:\n    /* \"#utility.yul\":1905:1908   */\n  0x00\n    /* \"#utility.yul\":1926:2010   */\n  tag_47\n    /* \"#utility.yul\":2008:2009   */\n  0x04\n    /* \"#utility.yul\":2003:2006   */\n  dup4\n    /* \"#utility.yul\":1926:2010   */\n  tag_42\n  jump\t// in\ntag_47:\n    /* \"#utility.yul\":1919:2010   */\n  swap2\n  pop\n    /* \"#utility.yul\":2019:2112   */\n  tag_48\n    /* \"#utility.yul\":2108:2111   */\n  dup3\n    /* \"#utility.yul\":2019:2112   */\n  tag_49\n  jump\t// in\ntag_48:\n    /* \"#utility.yul\":2137:2138   */\n  0x04\n    /* \"#utility.yul\":2132:2135   */\n  dup3\n    /* \"#utility.yul\":2128:2139   */\n  add\n    /* \"#utility.yul\":2121:2139   */\n  swap1\n  pop\n    /* \"#utility.yul\":1745:2145   */\n  swap2\n  swap1\n  pop\n  jump\t// out\n    /* \"#utility.yul\":2151:2551   */\ntag_50:\n    /* \"#utility.yul\":2311:2314   */\n  0x00\n    /* \"#utility.yul\":2332:2416   */\n  tag_52\n    /* \"#utility.yul\":2414:2415   */\n  0x05\n    /* \"#utility.yul\":2409:2412   */\n  dup4\n    /* \"#utility.yul\":2332:2416   */\n  tag_42\n  jump\t// in\ntag_52:\n    /* \"#utility.yul\":2325:2416   */\n  swap2\n  pop\n    /* \"#utility.yul\":2425:2518   */\n  tag_53\n    /* \"#utility.yul\":2514:2517   */\n  dup3\n    /* \"#utility.yul\":2425:2518   */\n  tag_54\n  jump\t// in\ntag_53:\n    /* \"#utility.yul\":2543:2544   */\n  0x05\n    /* \"#utility.yul\":2538:2541   */\n  dup3\n    /* \"#utility.yul\":2534:2545   */\n  add\n    /* \"#utility.yul\":2527:2545   */\n  swap1\n  pop\n    /* \"#utility.yul\":2151:2551   */\n  swap2\n  swap1\n  pop\n  jump\t// out\n    /* \"#utility.yul\":2557:2938   */\ntag_7:\n    /* \"#utility.yul\":2742:2745   */\n  0x00\n    /* \"#utility.yul\":2764:2912   */\n  tag_56\n    /* \"#utility.yul\":2908:2911   */\n  dup3\n    /* \"#utility.yul\":2764:2912   */\n  tag_39\n  jump\t// in\ntag_56:\n    /* \"#utility.yul\":2757:2912   */\n  swap2\n  pop\n    /* \"#utility.yul\":2929:2932   */\n  dup2\n    /* \"#utility.yul\":2922:2932   */\n  swap1\n  pop\n    /* \"#utility.yul\":2557:2938   */\n  swap2\n  swap1\n  pop\n  jump\t// out\n    /* \"#utility.yul\":2944:3325   */\ntag_9:\n    /* \"#utility.yul\":3129:3132   */\n  0x00\n    /* \"#utility.yul\":3151:3299   */\n  tag_58\n    /* \"#utility.yul\":3295:3298   */\n  dup3\n    /* \"#utility.yul\":3151:3299   */\n  tag_45\n  jump\t// in\ntag_58:\n    /* \"#utility.yul\":3144:3299   */\n  swap2\n  pop\n    /* \"#utility.yul\":3316:3319   */\n  dup2\n    /* \"#utility.yul\":3309:3319   */\n  swap1\n  pop\n    /* \"#utility.yul\":2944:3325   */\n  swap2\n  swap1\n  pop\n  jump\t// out\n    /* \"#utility.yul\":3331:3712   */\ntag_11:\n    /* \"#utility.yul\":3516:3519   */\n  0x00\n    /* \"#utility.yul\":3538:3686   */\n  tag_60\n    /* \"#utility.yul\":3682:3685   */\n  dup3\n    /* \"#utility.yul\":3538:3686   */\n  tag_50\n  jump\t// in\ntag_60:\n    /* \"#utility.yul\":3531:3686   */\n  swap2\n  pop\n    /* \"#utility.yul\":3703:3706   */\n  dup2\n    /* \"#utility.yul\":3696:3706   */\n  swap1\n  pop\n    /* \"#utility.yul\":3331:3712   */\n  swap2\n  swap1\n  pop\n  jump\t// out\n    /* \"#utility.yul\":3718:3847   */\ntag_19:\n    /* \"#utility.yul\":3752:3758   */\n  0x00\n    /* \"#utility.yul\":3779:3799   */\n  tag_62\n  tag_63\n  jump\t// in\ntag_62:\n    /* \"#utility.yul\":3769:3799   */\n  swap1\n  pop\n    /* \"#utility.yul\":3808:3841   */\n  tag_64\n    /* \"#utility.yul\":3836:3840   */\n  dup3\n    /* \"#utility.yul\":3828:3834   */\n  dup3\n    /* \"#utility.yul\":3808:3841   */\n  tag_65\n  jump\t// in\ntag_64:\n    /* \"#utility.yul\":3718:3847   */\n  swap2\n  swap1\n  pop\n  jump\t// out\n    /* \"#utility.yul\":3853:3928   */\ntag_63:\n    /* \"#utility.yul\":3886:3892   */\n  0x00\n    /* \"#utility.yul\":3919:3921   */\n  0x40\n    /* \"#utility.yul\":3913:3922   */\n  mload\n    /* \"#utility.yul\":3903:3922   */\n  swap1\n  pop\n    /* \"#utility.yul\":3853:3928   */\n  swap1\n  jump\t// out\n    /* \"#utility.yul\":3934:4242   */\ntag_18:\n    /* \"#utility.yul\":3996:4000   */\n  0x00\n    /* \"#utility.yul\":4086:4104   */\n  0xffffffffffffffff\n    /* \"#utility.yul\":4078:4084   */\n  dup3\n    /* \"#utility.yul\":4075:4105   */\n  gt\n    /* \"#utility.yul\":4072:4128   */\n  iszero\n  tag_68\n  jumpi\n    /* \"#utility.yul\":4108:4126   */\n  tag_69\n  tag_70\n  jump\t// in\ntag_69:\n    /* \"#utility.yul\":4072:4128   */\ntag_68:\n    /* \"#utility.yul\":4146:4175   */\n  tag_71\n    /* \"#utility.yul\":4168:4174   */\n  dup3\n    /* \"#utility.yul\":4146:4175   */\n  tag_72\n  jump\t// in\ntag_71:\n    /* \"#utility.yul\":4138:4175   */\n  swap1\n  pop\n    /* \"#utility.yul\":4230:4234   */\n  0x20\n    /* \"#utility.yul\":4224:4228   */\n  dup2\n    /* \"#utility.yul\":4220:4235   */\n  add\n    /* \"#utility.yul\":4212:4235   */\n  swap1\n  pop\n    /* \"#utility.yul\":3934:4242   */\n  swap2\n  swap1\n  pop\n  jump\t// out\n    /* \"#utility.yul\":4248:4396   */\ntag_42:\n    /* \"#utility.yul\":4350:4361   */\n  0x00\n    /* \"#utility.yul\":4387:4390   */\n  dup2\n    /* \"#utility.yul\":4372:4390   */\n  swap1\n  pop\n    /* \"#utility.yul\":4248:4396   */\n  swap3\n  swap2\n  pop\n  pop\n  jump\t// out\n    /* \"#utility.yul\":4402:4709   */\ntag_24:\n    /* \"#utility.yul\":4470:4471   */\n  0x00\n    /* \"#utility.yul\":4480:4593   */\ntag_75:\n    /* \"#utility.yul\":4494:4500   */\n  dup4\n    /* \"#utility.yul\":4491:4492   */\n  dup2\n    /* \"#utility.yul\":4488:4501   */\n  lt\n    /* \"#utility.yul\":4480:4593   */\n  iszero\n  tag_77\n  jumpi\n    /* \"#utility.yul\":4579:4580   */\n  dup1\n    /* \"#utility.yul\":4574:4577   */\n  dup3\n    /* \"#utility.yul\":4570:4581   */\n  add\n    /* \"#utility.yul\":4564:4582   */\n  mload\n    /* \"#utility.yul\":4560:4561   */\n  dup2\n    /* \"#utility.yul\":4555:4558   */\n  dup5\n    /* \"#utility.yul\":4551:4562   */\n  add\n    /* \"#utility.yul\":4544:4583   */\n  mstore\n    /* \"#utility.yul\":4516:4518   */\n  0x20\n    /* \"#utility.yul\":4513:4514   */\n  dup2\n    /* \"#utility.yul\":4509:4519   */\n  add\n    /* \"#utility.yul\":4504:4519   */\n  swap1\n  pop\n    /* \"#utility.yul\":4480:4593   */\n  jump(tag_75)\ntag_77:\n    /* \"#utility.yul\":4611:4617   */\n  dup4\n    /* \"#utility.yul\":4608:4609   */\n  dup2\n    /* \"#utility.yul\":4605:4618   */\n  gt\n    /* \"#utility.yul\":4602:4703   */\n  iszero\n  tag_78\n  jumpi\n    /* \"#utility.yul\":4691:4692   */\n  0x00\n    /* \"#utility.yul\":4682:4688   */\n  dup5\n    /* \"#utility.yul\":4677:4680   */\n  dup5\n    /* \"#utility.yul\":4673:4689   */\n  add\n    /* \"#utility.yul\":4666:4693   */\n  mstore\n    /* \"#utility.yul\":4602:4703   */\ntag_78:\n    /* \"#utility.yul\":4451:4709   */\n  pop\n    /* \"#utility.yul\":4402:4709   */\n  pop\n  pop\n  pop\n  jump\t// out\n    /* \"#utility.yul\":4715:4996   */\ntag_65:\n    /* \"#utility.yul\":4798:4825   */\n  tag_80\n    /* \"#utility.yul\":4820:4824   */\n  dup3\n    /* \"#utility.yul\":4798:4825   */\n  tag_72\n  jump\t// in\ntag_80:\n    /* \"#utility.yul\":4790:4796   */\n  dup2\n    /* \"#utility.yul\":4786:4826   */\n  add\n    /* \"#utility.yul\":4928:4934   */\n  dup2\n    /* \"#utility.yul\":4916:4926   */\n  dup2\n    /* \"#utility.yul\":4913:4935   */\n  lt\n    /* \"#utility.yul\":4892:4910   */\n  0xffffffffffffffff\n    /* \"#utility.yul\":4880:4890   */\n  dup3\n    /* \"#utility.yul\":4877:4911   */\n  gt\n    /* \"#utility.yul\":4874:4936   */\n  or\n    /* \"#utility.yul\":4871:4959   */\n  iszero\n  tag_81\n  jumpi\n    /* \"#utility.yul\":4939:4957   */\n  tag_82\n  tag_70\n  jump\t// in\ntag_82:\n    /* \"#utility.yul\":4871:4959   */\ntag_81:\n    /* \"#utility.yul\":4979:4989   */\n  dup1\n    /* \"#utility.yul\":4975:4977   */\n  0x40\n    /* \"#utility.yul\":4968:4990   */\n  mstore\n    /* \"#utility.yul\":4758:4996   */\n  pop\n    /* \"#utility.yul\":4715:4996   */\n  pop\n  pop\n  jump\t// out\n    /* \"#utility.yul\":5002:5182   */\ntag_70:\n    /* \"#utility.yul\":5050:5127   */\n  0x4e487b7100000000000000000000000000000000000000000000000000000000\n    /* \"#utility.yul\":5047:5048   */\n  0x00\n    /* \"#utility.yul\":5040:5128   */\n  mstore\n    /* \"#utility.yul\":5147:5151   */\n  0x41\n    /* \"#utility.yul\":5144:5145   */\n  0x04\n    /* \"#utility.yul\":5137:5152   */\n  mstore\n    /* \"#utility.yul\":5171:5175   */\n  0x24\n    /* \"#utility.yul\":5168:5169   */\n  0x00\n    /* \"#utility.yul\":5161:5176   */\n  revert\n    /* \"#utility.yul\":5188:5305   */\ntag_29:\n    /* \"#utility.yul\":5297:5298   */\n  0x00\n    /* \"#utility.yul\":5294:5295   */\n  dup1\n    /* \"#utility.yul\":5287:5299   */\n  revert\n    /* \"#utility.yul\":5311:5428   */\ntag_22:\n    /* \"#utility.yul\":5420:5421   */\n  0x00\n    /* \"#utility.yul\":5417:5418   */\n  dup1\n    /* \"#utility.yul\":5410:5422   */\n  revert\n    /* \"#utility.yul\":5434:5551   */\ntag_37:\n    /* \"#utility.yul\":5543:5544   */\n  0x00\n    /* \"#utility.yul\":5540:5541   */\n  dup1\n    /* \"#utility.yul\":5533:5545   */\n  revert\n    /* \"#utility.yul\":5557:5674   */\ntag_34:\n    /* \"#utility.yul\":5666:5667   */\n  0x00\n    /* \"#utility.yul\":5663:5664   */\n  dup1\n    /* \"#utility.yul\":5656:5668   */\n  revert\n    /* \"#utility.yul\":5680:5782   */\ntag_72:\n    /* \"#utility.yul\":5721:5727   */\n  0x00\n    /* \"#utility.yul\":5772:5774   */\n  0x1f\n    /* \"#utility.yul\":5768:5775   */\n  not\n    /* \"#utility.yul\":5763:5765   */\n  0x1f\n    /* \"#utility.yul\":5756:5761   */\n  dup4\n    /* \"#utility.yul\":5752:5766   */\n  add\n    /* \"#utility.yul\":5748:5776   */\n  and\n    /* \"#utility.yul\":5738:5776   */\n  swap1\n  pop\n    /* \"#utility.yul\":5680:5782   */\n  swap2\n  swap1\n  pop\n  jump\t// out\n    /* \"#utility.yul\":5788:5942   */\ntag_44:\n    /* \"#utility.yul\":5928:5934   */\n  0x6a6f616f00000000000000000000000000000000000000000000000000000000\n    /* \"#utility.yul\":5924:5925   */\n  0x00\n    /* \"#utility.yul\":5916:5922   */\n  dup3\n    /* \"#utility.yul\":5912:5926   */\n  add\n    /* \"#utility.yul\":5905:5935   */\n  mstore\n    /* \"#utility.yul\":5788:5942   */\n  pop\n  jump\t// out\n    /* \"#utility.yul\":5948:6102   */\ntag_49:\n    /* \"#utility.yul\":6088:6094   */\n  0x6a6f736500000000000000000000000000000000000000000000000000000000\n    /* \"#utility.yul\":6084:6085   */\n  0x00\n    /* \"#utility.yul\":6076:6082   */\n  dup3\n    /* \"#utility.yul\":6072:6086   */\n  add\n    /* \"#utility.yul\":6065:6095   */\n  mstore\n    /* \"#utility.yul\":5948:6102   */\n  pop\n  jump\t// out\n    /* \"#utility.yul\":6108:6263   */\ntag_54:\n    /* \"#utility.yul\":6248:6255   */\n  0x666162696f000000000000000000000000000000000000000000000000000000\n    /* \"#utility.yul\":6244:6245   */\n  0x00\n    /* \"#utility.yul\":6236:6242   */\n  dup3\n    /* \"#utility.yul\":6232:6246   */\n  add\n    /* \"#utility.yul\":6225:6256   */\n  mstore\n    /* \"#utility.yul\":6108:6263   */\n  pop\n  jump\t// out\n    /* \"Votacao.sol\":62:371  contract Votacao {... */\ntag_12:\n  dataSize(sub_0)\n  dup1\n  dataOffset(sub_0)\n  0x00\n  codecopy\n  0x00\n  return\nstop\n\nsub_0: assembly {\n        /* \"Votacao.sol\":62:371  contract Votacao {... */\n      mstore(0x40, 0x80)\n      callvalue\n      dup1\n      iszero\n      tag_1\n      jumpi\n      0x00\n      dup1\n      revert\n    tag_1:\n      pop\n      jumpi(tag_2, lt(calldatasize, 0x04))\n      shr(0xe0, calldataload(0x00))\n      dup1\n      0x097c2e3f\n      eq\n      tag_3\n      jumpi\n      dup1\n      0xce3fe641\n      eq\n      tag_4\n      jumpi\n    tag_2:\n      0x00\n      dup1\n      revert\n        /* \"Votacao.sol\":86:127  mapping(string => uint) public candidatos */\n    tag_3:\n      tag_5\n      0x04\n      dup1\n      calldatasize\n      sub\n      dup2\n      add\n      swap1\n      tag_6\n      swap2\n      swap1\n      tag_7\n      jump\t// in\n    tag_6:\n      tag_8\n      jump\t// in\n    tag_5:\n      mload(0x40)\n      tag_9\n      swap2\n      swap1\n      tag_10\n      jump\t// in\n    tag_9:\n      mload(0x40)\n      dup1\n      swap2\n      sub\n      swap1\n      return\n        /* \"Votacao.sol\":277:369  function votar(string memory _candidato) public {... */\n    tag_4:\n      tag_11\n      0x04\n      dup1\n      calldatasize\n      sub\n      dup2\n      add\n      swap1\n      tag_12\n      swap2\n      swap1\n      tag_7\n      jump\t// in\n    tag_12:\n      tag_13\n      jump\t// in\n    tag_11:\n      stop\n        /* \"Votacao.sol\":86:127  mapping(string => uint) public candidatos */\n    tag_8:\n      0x00\n      dup2\n      dup1\n      mload\n      0x20\n      dup2\n      add\n      dup3\n      add\n      dup1\n      mload\n      dup5\n      dup3\n      mstore\n      0x20\n      dup4\n      add\n      0x20\n      dup6\n      add\n      keccak256\n      dup2\n      dup4\n      mstore\n      dup1\n      swap6\n      pop\n      pop\n      pop\n      pop\n      pop\n      pop\n      0x00\n      swap2\n      pop\n      swap1\n      pop\n      sload\n      dup2\n      jump\t// out\n        /* \"Votacao.sol\":277:369  function votar(string memory _candidato) public {... */\n    tag_13:\n        /* \"Votacao.sol\":361:362  1 */\n      0x01\n        /* \"Votacao.sol\":335:345  candidatos */\n      0x00\n        /* \"Votacao.sol\":346:356  _candidato */\n      dup3\n        /* \"Votacao.sol\":335:357  candidatos[_candidato] */\n      mload(0x40)\n      tag_15\n      swap2\n      swap1\n      tag_16\n      jump\t// in\n    tag_15:\n      swap1\n      dup2\n      mstore\n      0x20\n      add\n      mload(0x40)\n      dup1\n      swap2\n      sub\n      swap1\n      keccak256\n      0x00\n        /* \"Votacao.sol\":335:362  candidatos[_candidato] += 1 */\n      dup3\n      dup3\n      sload\n      tag_17\n      swap2\n      swap1\n      tag_18\n      jump\t// in\n    tag_17:\n      swap3\n      pop\n      pop\n      dup2\n      swap1\n      sstore\n      pop\n        /* \"Votacao.sol\":277:369  function votar(string memory _candidato) public {... */\n      pop\n      jump\t// out\n        /* \"#utility.yul\":7:419   */\n    tag_20:\n        /* \"#utility.yul\":85:90   */\n      0x00\n        /* \"#utility.yul\":110:176   */\n      tag_22\n        /* \"#utility.yul\":126:175   */\n      tag_23\n        /* \"#utility.yul\":168:174   */\n      dup5\n        /* \"#utility.yul\":126:175   */\n      tag_24\n      jump\t// in\n    tag_23:\n        /* \"#utility.yul\":110:176   */\n      tag_25\n      jump\t// in\n    tag_22:\n        /* \"#utility.yul\":101:176   */\n      swap1\n      pop\n        /* \"#utility.yul\":199:205   */\n      dup3\n        /* \"#utility.yul\":192:197   */\n      dup2\n        /* \"#utility.yul\":185:206   */\n      mstore\n        /* \"#utility.yul\":237:241   */\n      0x20\n        /* \"#utility.yul\":230:235   */\n      dup2\n        /* \"#utility.yul\":226:242   */\n      add\n        /* \"#utility.yul\":275:278   */\n      dup5\n        /* \"#utility.yul\":266:272   */\n      dup5\n        /* \"#utility.yul\":261:264   */\n      dup5\n        /* \"#utility.yul\":257:273   */\n      add\n        /* \"#utility.yul\":254:279   */\n      gt\n        /* \"#utility.yul\":251:363   */\n      iszero\n      tag_26\n      jumpi\n        /* \"#utility.yul\":282:361   */\n      tag_27\n      tag_28\n      jump\t// in\n    tag_27:\n        /* \"#utility.yul\":251:363   */\n    tag_26:\n        /* \"#utility.yul\":372:413   */\n      tag_29\n        /* \"#utility.yul\":406:412   */\n      dup5\n        /* \"#utility.yul\":401:404   */\n      dup3\n        /* \"#utility.yul\":396:399   */\n      dup6\n        /* \"#utility.yul\":372:413   */\n      tag_30\n      jump\t// in\n    tag_29:\n        /* \"#utility.yul\":91:419   */\n      pop\n        /* \"#utility.yul\":7:419   */\n      swap4\n      swap3\n      pop\n      pop\n      pop\n      jump\t// out\n        /* \"#utility.yul\":439:779   */\n    tag_31:\n        /* \"#utility.yul\":495:500   */\n      0x00\n        /* \"#utility.yul\":544:547   */\n      dup3\n        /* \"#utility.yul\":537:541   */\n      0x1f\n        /* \"#utility.yul\":529:535   */\n      dup4\n        /* \"#utility.yul\":525:542   */\n      add\n        /* \"#utility.yul\":521:548   */\n      slt\n        /* \"#utility.yul\":511:633   */\n      tag_33\n      jumpi\n        /* \"#utility.yul\":552:631   */\n      tag_34\n      tag_35\n      jump\t// in\n    tag_34:\n        /* \"#utility.yul\":511:633   */\n    tag_33:\n        /* \"#utility.yul\":669:675   */\n      dup2\n        /* \"#utility.yul\":656:676   */\n      calldataload\n        /* \"#utility.yul\":694:773   */\n      tag_36\n        /* \"#utility.yul\":769:772   */\n      dup5\n        /* \"#utility.yul\":761:767   */\n      dup3\n        /* \"#utility.yul\":754:758   */\n      0x20\n        /* \"#utility.yul\":746:752   */\n      dup7\n        /* \"#utility.yul\":742:759   */\n      add\n        /* \"#utility.yul\":694:773   */\n      tag_20\n      jump\t// in\n    tag_36:\n        /* \"#utility.yul\":685:773   */\n      swap2\n      pop\n        /* \"#utility.yul\":501:779   */\n      pop\n        /* \"#utility.yul\":439:779   */\n      swap3\n      swap2\n      pop\n      pop\n      jump\t// out\n        /* \"#utility.yul\":785:1294   */\n    tag_7:\n        /* \"#utility.yul\":854:860   */\n      0x00\n        /* \"#utility.yul\":903:905   */\n      0x20\n        /* \"#utility.yul\":891:900   */\n      dup3\n        /* \"#utility.yul\":882:889   */\n      dup5\n        /* \"#utility.yul\":878:901   */\n      sub\n        /* \"#utility.yul\":874:906   */\n      slt\n        /* \"#utility.yul\":871:990   */\n      iszero\n      tag_38\n      jumpi\n        /* \"#utility.yul\":909:988   */\n      tag_39\n      tag_40\n      jump\t// in\n    tag_39:\n        /* \"#utility.yul\":871:990   */\n    tag_38:\n        /* \"#utility.yul\":1057:1058   */\n      0x00\n        /* \"#utility.yul\":1046:1055   */\n      dup3\n        /* \"#utility.yul\":1042:1059   */\n      add\n        /* \"#utility.yul\":1029:1060   */\n      calldataload\n        /* \"#utility.yul\":1087:1105   */\n      0xffffffffffffffff\n        /* \"#utility.yul\":1079:1085   */\n      dup2\n        /* \"#utility.yul\":1076:1106   */\n      gt\n        /* \"#utility.yul\":1073:1190   */\n      iszero\n      tag_41\n      jumpi\n        /* \"#utility.yul\":1109:1188   */\n      tag_42\n      tag_43\n      jump\t// in\n    tag_42:\n        /* \"#utility.yul\":1073:1190   */\n    tag_41:\n        /* \"#utility.yul\":1214:1277   */\n      tag_44\n        /* \"#utility.yul\":1269:1276   */\n      dup5\n        /* \"#utility.yul\":1260:1266   */\n      dup3\n        /* \"#utility.yul\":1249:1258   */\n      dup6\n        /* \"#utility.yul\":1245:1267   */\n      add\n        /* \"#utility.yul\":1214:1277   */\n      tag_31\n      jump\t// in\n    tag_44:\n        /* \"#utility.yul\":1204:1277   */\n      swap2\n      pop\n        /* \"#utility.yul\":1000:1287   */\n      pop\n        /* \"#utility.yul\":785:1294   */\n      swap3\n      swap2\n      pop\n      pop\n      jump\t// out\n        /* \"#utility.yul\":1300:1677   */\n    tag_45:\n        /* \"#utility.yul\":1406:1409   */\n      0x00\n        /* \"#utility.yul\":1434:1473   */\n      tag_47\n        /* \"#utility.yul\":1467:1472   */\n      dup3\n        /* \"#utility.yul\":1434:1473   */\n      tag_48\n      jump\t// in\n    tag_47:\n        /* \"#utility.yul\":1489:1578   */\n      tag_49\n        /* \"#utility.yul\":1571:1577   */\n      dup2\n        /* \"#utility.yul\":1566:1569   */\n      dup6\n        /* \"#utility.yul\":1489:1578   */\n      tag_50\n      jump\t// in\n    tag_49:\n        /* \"#utility.yul\":1482:1578   */\n      swap4\n      pop\n        /* \"#utility.yul\":1587:1639   */\n      tag_51\n        /* \"#utility.yul\":1632:1638   */\n      dup2\n        /* \"#utility.yul\":1627:1630   */\n      dup6\n        /* \"#utility.yul\":1620:1624   */\n      0x20\n        /* \"#utility.yul\":1613:1618   */\n      dup7\n        /* \"#utility.yul\":1609:1625   */\n      add\n        /* \"#utility.yul\":1587:1639   */\n      tag_52\n      jump\t// in\n    tag_51:\n        /* \"#utility.yul\":1664:1670   */\n      dup1\n        /* \"#utility.yul\":1659:1662   */\n      dup5\n        /* \"#utility.yul\":1655:1671   */\n      add\n        /* \"#utility.yul\":1648:1671   */\n      swap2\n      pop\n        /* \"#utility.yul\":1410:1677   */\n      pop\n        /* \"#utility.yul\":1300:1677   */\n      swap3\n      swap2\n      pop\n      pop\n      jump\t// out\n        /* \"#utility.yul\":1683:1801   */\n    tag_53:\n        /* \"#utility.yul\":1770:1794   */\n      tag_55\n        /* \"#utility.yul\":1788:1793   */\n      dup2\n        /* \"#utility.yul\":1770:1794   */\n      tag_56\n      jump\t// in\n    tag_55:\n        /* \"#utility.yul\":1765:1768   */\n      dup3\n        /* \"#utility.yul\":1758:1795   */\n      mstore\n        /* \"#utility.yul\":1683:1801   */\n      pop\n      pop\n      jump\t// out\n        /* \"#utility.yul\":1807:2082   */\n    tag_16:\n        /* \"#utility.yul\":1939:1942   */\n      0x00\n        /* \"#utility.yul\":1961:2056   */\n      tag_58\n        /* \"#utility.yul\":2052:2055   */\n      dup3\n        /* \"#utility.yul\":2043:2049   */\n      dup5\n        /* \"#utility.yul\":1961:2056   */\n      tag_45\n      jump\t// in\n    tag_58:\n        /* \"#utility.yul\":1954:2056   */\n      swap2\n      pop\n        /* \"#utility.yul\":2073:2076   */\n      dup2\n        /* \"#utility.yul\":2066:2076   */\n      swap1\n      pop\n        /* \"#utility.yul\":1807:2082   */\n      swap3\n      swap2\n      pop\n      pop\n      jump\t// out\n        /* \"#utility.yul\":2088:2310   */\n    tag_10:\n        /* \"#utility.yul\":2181:2185   */\n      0x00\n        /* \"#utility.yul\":2219:2221   */\n      0x20\n        /* \"#utility.yul\":2208:2217   */\n      dup3\n        /* \"#utility.yul\":2204:2222   */\n      add\n        /* \"#utility.yul\":2196:2222   */\n      swap1\n      pop\n        /* \"#utility.yul\":2232:2303   */\n      tag_60\n        /* \"#utility.yul\":2300:2301   */\n      0x00\n        /* \"#utility.yul\":2289:2298   */\n      dup4\n        /* \"#utility.yul\":2285:2302   */\n      add\n        /* \"#utility.yul\":2276:2282   */\n      dup5\n        /* \"#utility.yul\":2232:2303   */\n      tag_53\n      jump\t// in\n    tag_60:\n        /* \"#utility.yul\":2088:2310   */\n      swap3\n      swap2\n      pop\n      pop\n      jump\t// out\n        /* \"#utility.yul\":2316:2445   */\n    tag_25:\n        /* \"#utility.yul\":2350:2356   */\n      0x00\n        /* \"#utility.yul\":2377:2397   */\n      tag_62\n      tag_63\n      jump\t// in\n    tag_62:\n        /* \"#utility.yul\":2367:2397   */\n      swap1\n      pop\n        /* \"#utility.yul\":2406:2439   */\n      tag_64\n        /* \"#utility.yul\":2434:2438   */\n      dup3\n        /* \"#utility.yul\":2426:2432   */\n      dup3\n        /* \"#utility.yul\":2406:2439   */\n      tag_65\n      jump\t// in\n    tag_64:\n        /* \"#utility.yul\":2316:2445   */\n      swap2\n      swap1\n      pop\n      jump\t// out\n        /* \"#utility.yul\":2451:2526   */\n    tag_63:\n        /* \"#utility.yul\":2484:2490   */\n      0x00\n        /* \"#utility.yul\":2517:2519   */\n      0x40\n        /* \"#utility.yul\":2511:2520   */\n      mload\n        /* \"#utility.yul\":2501:2520   */\n      swap1\n      pop\n        /* \"#utility.yul\":2451:2526   */\n      swap1\n      jump\t// out\n        /* \"#utility.yul\":2532:2840   */\n    tag_24:\n        /* \"#utility.yul\":2594:2598   */\n      0x00\n        /* \"#utility.yul\":2684:2702   */\n      0xffffffffffffffff\n        /* \"#utility.yul\":2676:2682   */\n      dup3\n        /* \"#utility.yul\":2673:2703   */\n      gt\n        /* \"#utility.yul\":2670:2726   */\n      iszero\n      tag_68\n      jumpi\n        /* \"#utility.yul\":2706:2724   */\n      tag_69\n      tag_70\n      jump\t// in\n    tag_69:\n        /* \"#utility.yul\":2670:2726   */\n    tag_68:\n        /* \"#utility.yul\":2744:2773   */\n      tag_71\n        /* \"#utility.yul\":2766:2772   */\n      dup3\n        /* \"#utility.yul\":2744:2773   */\n      tag_72\n      jump\t// in\n    tag_71:\n        /* \"#utility.yul\":2736:2773   */\n      swap1\n      pop\n        /* \"#utility.yul\":2828:2832   */\n      0x20\n        /* \"#utility.yul\":2822:2826   */\n      dup2\n        /* \"#utility.yul\":2818:2833   */\n      add\n        /* \"#utility.yul\":2810:2833   */\n      swap1\n      pop\n        /* \"#utility.yul\":2532:2840   */\n      swap2\n      swap1\n      pop\n      jump\t// out\n        /* \"#utility.yul\":2846:2945   */\n    tag_48:\n        /* \"#utility.yul\":2898:2904   */\n      0x00\n        /* \"#utility.yul\":2932:2937   */\n      dup2\n        /* \"#utility.yul\":2926:2938   */\n      mload\n        /* \"#utility.yul\":2916:2938   */\n      swap1\n      pop\n        /* \"#utility.yul\":2846:2945   */\n      swap2\n      swap1\n      pop\n      jump\t// out\n        /* \"#utility.yul\":2951:3099   */\n    tag_50:\n        /* \"#utility.yul\":3053:3064   */\n      0x00\n        /* \"#utility.yul\":3090:3093   */\n      dup2\n        /* \"#utility.yul\":3075:3093   */\n      swap1\n      pop\n        /* \"#utility.yul\":2951:3099   */\n      swap3\n      swap2\n      pop\n      pop\n      jump\t// out\n        /* \"#utility.yul\":3105:3410   */\n    tag_18:\n        /* \"#utility.yul\":3145:3148   */\n      0x00\n        /* \"#utility.yul\":3164:3184   */\n      tag_76\n        /* \"#utility.yul\":3182:3183   */\n      dup3\n        /* \"#utility.yul\":3164:3184   */\n      tag_56\n      jump\t// in\n    tag_76:\n        /* \"#utility.yul\":3159:3184   */\n      swap2\n      pop\n        /* \"#utility.yul\":3198:3218   */\n      tag_77\n        /* \"#utility.yul\":3216:3217   */\n      dup4\n        /* \"#utility.yul\":3198:3218   */\n      tag_56\n      jump\t// in\n    tag_77:\n        /* \"#utility.yul\":3193:3218   */\n      swap3\n      pop\n        /* \"#utility.yul\":3352:3353   */\n      dup3\n        /* \"#utility.yul\":3284:3350   */\n      0xffffffffffffffffffffffffffffffffffffffffffffffffffffffffffffffff\n        /* \"#utility.yul\":3280:3354   */\n      sub\n        /* \"#utility.yul\":3277:3278   */\n      dup3\n        /* \"#utility.yul\":3274:3355   */\n      gt\n        /* \"#utility.yul\":3271:3378   */\n      iszero\n      tag_78\n      jumpi\n        /* \"#utility.yul\":3358:3376   */\n      tag_79\n      tag_80\n      jump\t// in\n    tag_79:\n        /* \"#utility.yul\":3271:3378   */\n    tag_78:\n        /* \"#utility.yul\":3402:3403   */\n      dup3\n        /* \"#utility.yul\":3399:3400   */\n      dup3\n        /* \"#utility.yul\":3395:3404   */\n      add\n        /* \"#utility.yul\":3388:3404   */\n      swap1\n      pop\n        /* \"#utility.yul\":3105:3410   */\n      swap3\n      swap2\n      pop\n      pop\n      jump\t// out\n        /* \"#utility.yul\":3416:3493   */\n    tag_56:\n        /* \"#utility.yul\":3453:3460   */\n      0x00\n        /* \"#utility.yul\":3482:3487   */\n      dup2\n        /* \"#utility.yul\":3471:3487   */\n      swap1\n      pop\n        /* \"#utility.yul\":3416:3493   */\n      swap2\n      swap1\n      pop\n      jump\t// out\n        /* \"#utility.yul\":3499:3653   */\n    tag_30:\n        /* \"#utility.yul\":3583:3589   */\n      dup3\n        /* \"#utility.yul\":3578:3581   */\n      dup2\n        /* \"#utility.yul\":3573:3576   */\n      dup4\n        /* \"#utility.yul\":3560:3590   */\n      calldatacopy\n        /* \"#utility.yul\":3645:3646   */\n      0x00\n        /* \"#utility.yul\":3636:3642   */\n      dup4\n        /* \"#utility.yul\":3631:3634   */\n      dup4\n        /* \"#utility.yul\":3627:3643   */\n      add\n        /* \"#utility.yul\":3620:3647   */\n      mstore\n        /* \"#utility.yul\":3499:3653   */\n      pop\n      pop\n      pop\n      jump\t// out\n        /* \"#utility.yul\":3659:3966   */\n    tag_52:\n        /* \"#utility.yul\":3727:3728   */\n      0x00\n        /* \"#utility.yul\":3737:3850   */\n    tag_84:\n        /* \"#utility.yul\":3751:3757   */\n      dup4\n        /* \"#utility.yul\":3748:3749   */\n      dup2\n        /* \"#utility.yul\":3745:3758   */\n      lt\n        /* \"#utility.yul\":3737:3850   */\n      iszero\n      tag_86\n      jumpi\n        /* \"#utility.yul\":3836:3837   */\n      dup1\n        /* \"#utility.yul\":3831:3834   */\n      dup3\n        /* \"#utility.yul\":3827:3838   */\n      add\n        /* \"#utility.yul\":3821:3839   */\n      mload\n        /* \"#utility.yul\":3817:3818   */\n      dup2\n        /* \"#utility.yul\":3812:3815   */\n      dup5\n        /* \"#utility.yul\":3808:3819   */\n      add\n        /* \"#utility.yul\":3801:3840   */\n      mstore\n        /* \"#utility.yul\":3773:3775   */\n      0x20\n        /* \"#utility.yul\":3770:3771   */\n      dup2\n        /* \"#utility.yul\":3766:3776   */\n      add\n        /* \"#utility.yul\":3761:3776   */\n      swap1\n      pop\n        /* \"#utility.yul\":3737:3850   */\n      jump(tag_84)\n    tag_86:\n        /* \"#utility.yul\":3868:3874   */\n      dup4\n        /* \"#utility.yul\":3865:3866   */\n      dup2\n        /* \"#utility.yul\":3862:3875   */\n      gt\n        /* \"#utility.yul\":3859:3960   */\n      iszero\n      tag_87\n      jumpi\n        /* \"#utility.yul\":3948:3949   */\n      0x00\n        /* \"#utility.yul\":3939:3945   */\n      dup5\n        /* \"#utility.yul\":3934:3937   */\n      dup5\n        /* \"#utility.yul\":3930:3946   */\n      add\n        /* \"#utility.yul\":3923:3950   */\n      mstore\n        /* \"#utility.yul\":3859:3960   */\n    tag_87:\n        /* \"#utility.yul\":3708:3966   */\n      pop\n        /* \"#utility.yul\":3659:3966   */\n      pop\n      pop\n      pop\n      jump\t// out\n        /* \"#utility.yul\":3972:4253   */\n    tag_65:\n        /* \"#utility.yul\":4055:4082   */\n      tag_89\n        /* \"#utility.yul\":4077:4081   */\n      dup3\n        /* \"#utility.yul\":4055:4082   */\n      tag_72\n      jump\t// in\n    tag_89:\n        /* \"#utility.yul\":4047:4053   */\n      dup2\n        /* \"#utility.yul\":4043:4083   */\n      add\n        /* \"#utility.yul\":4185:4191   */\n      dup2\n        /* \"#utility.yul\":4173:4183   */\n      dup2\n        /* \"#utility.yul\":4170:4192   */\n      lt\n        /* \"#utility.yul\":4149:4167   */\n      0xffffffffffffffff\n        /* \"#utility.yul\":4137:4147   */\n      dup3\n        /* \"#utility.yul\":4134:4168   */\n      gt\n        /* \"#utility.yul\":4131:4193   */\n      or\n        /* \"#utility.yul\":4128:4216   */\n      iszero\n      tag_90\n      jumpi\n        /* \"#utility.yul\":4196:4214   */\n      tag_91\n      tag_70\n      jump\t// in\n    tag_91:\n        /* \"#utility.yul\":4128:4216   */\n    tag_90:\n        /* \"#utility.yul\":4236:4246   */\n      dup1\n        /* \"#utility.yul\":4232:4234   */\n      0x40\n        /* \"#utility.yul\":4225:4247   */\n      mstore\n        /* \"#utility.yul\":4015:4253   */\n      pop\n        /* \"#utility.yul\":3972:4253   */\n      pop\n      pop\n      jump\t// out\n        /* \"#utility.yul\":4259:4439   */\n    tag_80:\n        /* \"#utility.yul\":4307:4384   */\n      0x4e487b7100000000000000000000000000000000000000000000000000000000\n        /* \"#utility.yul\":4304:4305   */\n      0x00\n        /* \"#utility.yul\":4297:4385   */\n      mstore\n        /* \"#utility.yul\":4404:4408   */\n      0x11\n        /* \"#utility.yul\":4401:4402   */\n      0x04\n        /* \"#utility.yul\":4394:4409   */\n      mstore\n        /* \"#utility.yul\":4428:4432   */\n      0x24\n        /* \"#utility.yul\":4425:4426   */\n      0x00\n        /* \"#utility.yul\":4418:4433   */\n      revert\n        /* \"#utility.yul\":4445:4625   */\n    tag_70:\n        /* \"#utility.yul\":4493:4570   */\n      0x4e487b7100000000000000000000000000000000000000000000000000000000\n        /* \"#utility.yul\":4490:4491   */\n      0x00\n        /* \"#utility.yul\":4483:4571   */\n      mstore\n        /* \"#utility.yul\":4590:4594   */\n      0x41\n        /* \"#utility.yul\":4587:4588   */\n      0x04\n        /* \"#utility.yul\":4580:4595   */\n      mstore\n        /* \"#utility.yul\":4614:4618   */\n      0x24\n        /* \"#utility.yul\":4611:4612   */\n      0x00\n        /* \"#utility.yul\":4604:4619   */\n      revert\n        /* \"#utility.yul\":4631:4748   */\n    tag_35:\n        /* \"#utility.yul\":4740:4741   */\n      0x00\n        /* \"#utility.yul\":4737:4738   */\n      dup1\n        /* \"#utility.yul\":4730:4742   */\n      revert\n        /* \"#utility.yul\":4754:4871   */\n    tag_28:\n        /* \"#utility.yul\":4863:4864   */\n      0x00\n        /* \"#utility.yul\":4860:4861   */\n      dup1\n        /* \"#utility.yul\":4853:4865   */\n      revert\n        /* \"#utility.yul\":4877:4994   */\n    tag_43:\n        /* \"#utility.yul\":4986:4987   */\n      0x00\n        /* \"#utility.yul\":4983:4984   */\n      dup1\n        /* \"#utility.yul\":4976:4988   */\n      revert\n        /* \"#utility.yul\":5000:5117   */\n    tag_40:\n        /* \"#utility.yul\":5109:5110   */\n      0x00\n        /* \"#utility.yul\":5106:5107   */\n      dup1\n        /* \"#utility.yul\":5099:5111   */\n      revert\n        /* \"#utility.yul\":5123:5225   */\n    tag_72:\n        /* \"#utility.yul\":5164:5170   */\n      0x00\n        /* \"#utility.yul\":5215:5217   */\n      0x1f\n        /* \"#utility.yul\":5211:5218   */\n      not\n        /* \"#utility.yul\":5206:5208   */\n      0x1f\n        /* \"#utility.yul\":5199:5204   */\n      dup4\n        /* \"#utility.yul\":5195:5209   */\n      add\n        /* \"#utility.yul\":5191:5219   */\n      and\n        /* \"#utility.yul\":5181:5219   */\n      swap1\n      pop\n        /* \"#utility.yul\":5123:5225   */\n      swap2\n      swap1\n      pop\n      jump\t// out\n\n    auxdata: 0xa2646970667358221220da1084e4a069342360339c732a47865fe33cb58dd448bb38ff98bedeeff4b37a64736f6c63430008070033\n}\n",
				"bytecode": {
					"linkReferences": {},
					"object": "60806040523480156200001157600080fd5b50604051620007f6380380620007f6833981810160405281019062000037919062000125565b6000806040516200004890620001eb565b9081526020016040518091039020819055506000806040516200006b9062000202565b9081526020016040518091039020819055506000806040516200008e9062000219565b90815260200160405180910390208190555050620003d5565b6000620000be620000b88462000259565b62000230565b905082815260208101848484011115620000dd57620000dc6200033a565b5b620000ea8482856200029a565b509392505050565b600082601f8301126200010a576200010962000335565b5b81516200011c848260208601620000a7565b91505092915050565b6000602082840312156200013e576200013d62000344565b5b600082015167ffffffffffffffff8111156200015f576200015e6200033f565b5b6200016d84828501620000f2565b91505092915050565b6000620001856004836200028f565b915062000192826200035a565b600482019050919050565b6000620001ac6004836200028f565b9150620001b98262000383565b600482019050919050565b6000620001d36005836200028f565b9150620001e082620003ac565b600582019050919050565b6000620001f88262000176565b9150819050919050565b60006200020f826200019d565b9150819050919050565b60006200022682620001c4565b9150819050919050565b60006200023c6200024f565b90506200024a8282620002d0565b919050565b6000604051905090565b600067ffffffffffffffff82111562000277576200027662000306565b5b620002828262000349565b9050602081019050919050565b600081905092915050565b60005b83811015620002ba5780820151818401526020810190506200029d565b83811115620002ca576000848401525b50505050565b620002db8262000349565b810181811067ffffffffffffffff82111715620002fd57620002fc62000306565b5b80604052505050565b7f4e487b7100000000000000000000000000000000000000000000000000000000600052604160045260246000fd5b600080fd5b600080fd5b600080fd5b600080fd5b6000601f19601f8301169050919050565b7f6a6f616f00000000000000000000000000000000000000000000000000000000600082015250565b7f6a6f736500000000000000000000000000000000000000000000000000000000600082015250565b7f666162696f000000000000000000000000000000000000000000000000000000600082015250565b61041180620003e56000396000f3fe608060405234801561001057600080fd5b50600436106100365760003560e01c8063097c2e3f1461003b578063ce3fe6411461006b575b600080fd5b6100556004803603810190610050919061015e565b610087565b60405161006291906101fe565b60405180910390f35b6100856004803603810190610080919061015e565b6100b5565b005b6000818051602081018201805184825260208301602085012081835280955050505050506000915090505481565b60016000826040516100c791906101e7565b908152602001604051809103902060008282546100e49190610285565b9250508190555050565b60006101016100fc8461023e565b610219565b90508281526020810184848401111561011d5761011c6103bb565b5b6101288482856102e5565b509392505050565b600082601f830112610145576101446103b6565b5b81356101558482602086016100ee565b91505092915050565b600060208284031215610174576101736103c5565b5b600082013567ffffffffffffffff811115610192576101916103c0565b5b61019e84828501610130565b91505092915050565b60006101b28261026f565b6101bc818561027a565b93506101cc8185602086016102f4565b80840191505092915050565b6101e1816102db565b82525050565b60006101f382846101a7565b915081905092915050565b600060208201905061021360008301846101d8565b92915050565b6000610223610234565b905061022f8282610327565b919050565b6000604051905090565b600067ffffffffffffffff82111561025957610258610387565b5b610262826103ca565b9050602081019050919050565b600081519050919050565b600081905092915050565b6000610290826102db565b915061029b836102db565b9250827fffffffffffffffffffffffffffffffffffffffffffffffffffffffffffffffff038211156102d0576102cf610358565b5b828201905092915050565b6000819050919050565b82818337600083830152505050565b60005b838110156103125780820151818401526020810190506102f7565b83811115610321576000848401525b50505050565b610330826103ca565b810181811067ffffffffffffffff8211171561034f5761034e610387565b5b80604052505050565b7f4e487b7100000000000000000000000000000000000000000000000000000000600052601160045260246000fd5b7f4e487b7100000000000000000000000000000000000000000000000000000000600052604160045260246000fd5b600080fd5b600080fd5b600080fd5b600080fd5b6000601f19601f830116905091905056fea2646970667358221220da1084e4a069342360339c732a47865fe33cb58dd448bb38ff98bedeeff4b37a64736f6c63430008070033",
					"opcodes": "PUSH1 0x80 PUSH1 0x40 MSTORE CALLVALUE DUP1 ISZERO PUSH3 0x11 JUMPI PUSH1 0x0 DUP1 REVERT JUMPDEST POP PUSH1 0x40 MLOAD PUSH3 0x7F6 CODESIZE SUB DUP1 PUSH3 0x7F6 DUP4 CODECOPY DUP2 DUP2 ADD PUSH1 0x40 MSTORE DUP2 ADD SWAP1 PUSH3 0x37 SWAP2 SWAP1 PUSH3 0x125 JUMP JUMPDEST PUSH1 0x0 DUP1 PUSH1 0x40 MLOAD PUSH3 0x48 SWAP1 PUSH3 0x1EB JUMP JUMPDEST SWAP1 DUP2 MSTORE PUSH1 0x20 ADD PUSH1 0x40 MLOAD DUP1 SWAP2 SUB SWAP1 KECCAK256 DUP2 SWAP1 SSTORE POP PUSH1 0x0 DUP1 PUSH1 0x40 MLOAD PUSH3 0x6B SWAP1 PUSH3 0x202 JUMP JUMPDEST SWAP1 DUP2 MSTORE PUSH1 0x20 ADD PUSH1 0x40 MLOAD DUP1 SWAP2 SUB SWAP1 KECCAK256 DUP2 SWAP1 SSTORE POP PUSH1 0x0 DUP1 PUSH1 0x40 MLOAD PUSH3 0x8E SWAP1 PUSH3 0x219 JUMP JUMPDEST SWAP1 DUP2 MSTORE PUSH1 0x20 ADD PUSH1 0x40 MLOAD DUP1 SWAP2 SUB SWAP1 KECCAK256 DUP2 SWAP1 SSTORE POP POP PUSH3 0x3D5 JUMP JUMPDEST PUSH1 0x0 PUSH3 0xBE PUSH3 0xB8 DUP5 PUSH3 0x259 JUMP JUMPDEST PUSH3 0x230 JUMP JUMPDEST SWAP1 POP DUP3 DUP2 MSTORE PUSH1 0x20 DUP2 ADD DUP5 DUP5 DUP5 ADD GT ISZERO PUSH3 0xDD JUMPI PUSH3 0xDC PUSH3 0x33A JUMP JUMPDEST JUMPDEST PUSH3 0xEA DUP5 DUP3 DUP6 PUSH3 0x29A JUMP JUMPDEST POP SWAP4 SWAP3 POP POP POP JUMP JUMPDEST PUSH1 0x0 DUP3 PUSH1 0x1F DUP4 ADD SLT PUSH3 0x10A JUMPI PUSH3 0x109 PUSH3 0x335 JUMP JUMPDEST JUMPDEST DUP2 MLOAD PUSH3 0x11C DUP5 DUP3 PUSH1 0x20 DUP7 ADD PUSH3 0xA7 JUMP JUMPDEST SWAP2 POP POP SWAP3 SWAP2 POP POP JUMP JUMPDEST PUSH1 0x0 PUSH1 0x20 DUP3 DUP5 SUB SLT ISZERO PUSH3 0x13E JUMPI PUSH3 0x13D PUSH3 0x344 JUMP JUMPDEST JUMPDEST PUSH1 0x0 DUP3 ADD MLOAD PUSH8 0xFFFFFFFFFFFFFFFF DUP2 GT ISZERO PUSH3 0x15F JUMPI PUSH3 0x15E PUSH3 0x33F JUMP JUMPDEST JUMPDEST PUSH3 0x16D DUP5 DUP3 DUP6 ADD PUSH3 0xF2 JUMP JUMPDEST SWAP2 POP POP SWAP3 SWAP2 POP POP JUMP JUMPDEST PUSH1 0x0 PUSH3 0x185 PUSH1 0x4 DUP4 PUSH3 0x28F JUMP JUMPDEST SWAP2 POP PUSH3 0x192 DUP3 PUSH3 0x35A JUMP JUMPDEST PUSH1 0x4 DUP3 ADD SWAP1 POP SWAP2 SWAP1 POP JUMP JUMPDEST PUSH1 0x0 PUSH3 0x1AC PUSH1 0x4 DUP4 PUSH3 0x28F JUMP JUMPDEST SWAP2 POP PUSH3 0x1B9 DUP3 PUSH3 0x383 JUMP JUMPDEST PUSH1 0x4 DUP3 ADD SWAP1 POP SWAP2 SWAP1 POP JUMP JUMPDEST PUSH1 0x0 PUSH3 0x1D3 PUSH1 0x5 DUP4 PUSH3 0x28F JUMP JUMPDEST SWAP2 POP PUSH3 0x1E0 DUP3 PUSH3 0x3AC JUMP JUMPDEST PUSH1 0x5 DUP3 ADD SWAP1 POP SWAP2 SWAP1 POP JUMP JUMPDEST PUSH1 0x0 PUSH3 0x1F8 DUP3 PUSH3 0x176 JUMP JUMPDEST SWAP2 POP DUP2 SWAP1 POP SWAP2 SWAP1 POP JUMP JUMPDEST PUSH1 0x0 PUSH3 0x20F DUP3 PUSH3 0x19D JUMP JUMPDEST SWAP2 POP DUP2 SWAP1 POP SWAP2 SWAP1 POP JUMP JUMPDEST PUSH1 0x0 PUSH3 0x226 DUP3 PUSH3 0x1C4 JUMP JUMPDEST SWAP2 POP DUP2 SWAP1 POP SWAP2 SWAP1 POP JUMP JUMPDEST PUSH1 0x0 PUSH3 0x23C PUSH3 0x24F JUMP JUMPDEST SWAP1 POP PUSH3 0x24A DUP3 DUP3 PUSH3 0x2D0 JUMP JUMPDEST SWAP2 SWAP1 POP JUMP JUMPDEST PUSH1 0x0 PUSH1 0x40 MLOAD SWAP1 POP SWAP1 JUMP JUMPDEST PUSH1 0x0 PUSH8 0xFFFFFFFFFFFFFFFF DUP3 GT ISZERO PUSH3 0x277 JUMPI PUSH3 0x276 PUSH3 0x306 JUMP JUMPDEST JUMPDEST PUSH3 0x282 DUP3 PUSH3 0x349 JUMP JUMPDEST SWAP1 POP PUSH1 0x20 DUP2 ADD SWAP1 POP SWAP2 SWAP1 POP JUMP JUMPDEST PUSH1 0x0 DUP2 SWAP1 POP SWAP3 SWAP2 POP POP JUMP JUMPDEST PUSH1 0x0 JUMPDEST DUP4 DUP2 LT ISZERO PUSH3 0x2BA JUMPI DUP1 DUP3 ADD MLOAD DUP2 DUP5 ADD MSTORE PUSH1 0x20 DUP2 ADD SWAP1 POP PUSH3 0x29D JUMP JUMPDEST DUP4 DUP2 GT ISZERO PUSH3 0x2CA JUMPI PUSH1 0x0 DUP5 DUP5 ADD MSTORE JUMPDEST POP POP POP POP JUMP JUMPDEST PUSH3 0x2DB DUP3 PUSH3 0x349 JUMP JUMPDEST DUP2 ADD DUP2 DUP2 LT PUSH8 0xFFFFFFFFFFFFFFFF DUP3 GT OR ISZERO PUSH3 0x2FD JUMPI PUSH3 0x2FC PUSH3 0x306 JUMP JUMPDEST JUMPDEST DUP1 PUSH1 0x40 MSTORE POP POP POP JUMP JUMPDEST PUSH32 0x4E487B7100000000000000000000000000000000000000000000000000000000 PUSH1 0x0 MSTORE PUSH1 0x41 PUSH1 0x4 MSTORE PUSH1 0x24 PUSH1 0x0 REVERT JUMPDEST PUSH1 0x0 DUP1 REVERT JUMPDEST PUSH1 0x0 DUP1 REVERT JUMPDEST PUSH1 0x0 DUP1 REVERT JUMPDEST PUSH1 0x0 DUP1 REVERT JUMPDEST PUSH1 0x0 PUSH1 0x1F NOT PUSH1 0x1F DUP4 ADD AND SWAP1 POP SWAP2 SWAP1 POP JUMP JUMPDEST PUSH32 0x6A6F616F00000000000000000000000000000000000000000000000000000000 PUSH1 0x0 DUP3 ADD MSTORE POP JUMP JUMPDEST PUSH32 0x6A6F736500000000000000000000000000000000000000000000000000000000 PUSH1 0x0 DUP3 ADD MSTORE POP JUMP JUMPDEST PUSH32 0x666162696F000000000000000000000000000000000000000000000000000000 PUSH1 0x0 DUP3 ADD MSTORE POP JUMP JUMPDEST PUSH2 0x411 DUP1 PUSH3 0x3E5 PUSH1 0x0 CODECOPY PUSH1 0x0 RETURN INVALID PUSH1 0x80 PUSH1 0x40 MSTORE CALLVALUE DUP1 ISZERO PUSH2 0x10 JUMPI PUSH1 0x0 DUP1 REVERT JUMPDEST POP PUSH1 0x4 CALLDATASIZE LT PUSH2 0x36 JUMPI PUSH1 0x0 CALLDATALOAD PUSH1 0xE0 SHR DUP1 PUSH4 0x97C2E3F EQ PUSH2 0x3B JUMPI DUP1 PUSH4 0xCE3FE641 EQ PUSH2 0x6B JUMPI JUMPDEST PUSH1 0x0 DUP1 REVERT JUMPDEST PUSH2 0x55 PUSH1 0x4 DUP1 CALLDATASIZE SUB DUP2 ADD SWAP1 PUSH2 0x50 SWAP2 SWAP1 PUSH2 0x15E JUMP JUMPDEST PUSH2 0x87 JUMP JUMPDEST PUSH1 0x40 MLOAD PUSH2 0x62 SWAP2 SWAP1 PUSH2 0x1FE JUMP JUMPDEST PUSH1 0x40 MLOAD DUP1 SWAP2 SUB SWAP1 RETURN JUMPDEST PUSH2 0x85 PUSH1 0x4 DUP1 CALLDATASIZE SUB DUP2 ADD SWAP1 PUSH2 0x80 SWAP2 SWAP1 PUSH2 0x15E JUMP JUMPDEST PUSH2 0xB5 JUMP JUMPDEST STOP JUMPDEST PUSH1 0x0 DUP2 DUP1 MLOAD PUSH1 0x20 DUP2 ADD DUP3 ADD DUP1 MLOAD DUP5 DUP3 MSTORE PUSH1 0x20 DUP4 ADD PUSH1 0x20 DUP6 ADD KECCAK256 DUP2 DUP4 MSTORE DUP1 SWAP6 POP POP POP POP POP POP PUSH1 0x0 SWAP2 POP SWAP1 POP SLOAD DUP2 JUMP JUMPDEST PUSH1 0x1 PUSH1 0x0 DUP3 PUSH1 0x40 MLOAD PUSH2 0xC7 SWAP2 SWAP1 PUSH2 0x1E7 JUMP JUMPDEST SWAP1 DUP2 MSTORE PUSH1 0x20 ADD PUSH1 0x40 MLOAD DUP1 SWAP2 SUB SWAP1 KECCAK256 PUSH1 0x0 DUP3 DUP3 SLOAD PUSH2 0xE4 SWAP2 SWAP1 PUSH2 0x285 JUMP JUMPDEST SWAP3 POP POP DUP2 SWAP1 SSTORE POP POP JUMP JUMPDEST PUSH1 0x0 PUSH2 0x101 PUSH2 0xFC DUP5 PUSH2 0x23E JUMP JUMPDEST PUSH2 0x219 JUMP JUMPDEST SWAP1 POP DUP3 DUP2 MSTORE PUSH1 0x20 DUP2 ADD DUP5 DUP5 DUP5 ADD GT ISZERO PUSH2 0x11D JUMPI PUSH2 0x11C PUSH2 0x3BB JUMP JUMPDEST JUMPDEST PUSH2 0x128 DUP5 DUP3 DUP6 PUSH2 0x2E5 JUMP JUMPDEST POP SWAP4 SWAP3 POP POP POP JUMP JUMPDEST PUSH1 0x0 DUP3 PUSH1 0x1F DUP4 ADD SLT PUSH2 0x145 JUMPI PUSH2 0x144 PUSH2 0x3B6 JUMP JUMPDEST JUMPDEST DUP2 CALLDATALOAD PUSH2 0x155 DUP5 DUP3 PUSH1 0x20 DUP7 ADD PUSH2 0xEE JUMP JUMPDEST SWAP2 POP POP SWAP3 SWAP2 POP POP JUMP JUMPDEST PUSH1 0x0 PUSH1 0x20 DUP3 DUP5 SUB SLT ISZERO PUSH2 0x174 JUMPI PUSH2 0x173 PUSH2 0x3C5 JUMP JUMPDEST JUMPDEST PUSH1 0x0 DUP3 ADD CALLDATALOAD PUSH8 0xFFFFFFFFFFFFFFFF DUP2 GT ISZERO PUSH2 0x192 JUMPI PUSH2 0x191 PUSH2 0x3C0 JUMP JUMPDEST JUMPDEST PUSH2 0x19E DUP5 DUP3 DUP6 ADD PUSH2 0x130 JUMP JUMPDEST SWAP2 POP POP SWAP3 SWAP2 POP POP JUMP JUMPDEST PUSH1 0x0 PUSH2 0x1B2 DUP3 PUSH2 0x26F JUMP JUMPDEST PUSH2 0x1BC DUP2 DUP6 PUSH2 0x27A JUMP JUMPDEST SWAP4 POP PUSH2 0x1CC DUP2 DUP6 PUSH1 0x20 DUP7 ADD PUSH2 0x2F4 JUMP JUMPDEST DUP1 DUP5 ADD SWAP2 POP POP SWAP3 SWAP2 POP POP JUMP JUMPDEST PUSH2 0x1E1 DUP2 PUSH2 0x2DB JUMP JUMPDEST DUP3 MSTORE POP POP JUMP JUMPDEST PUSH1 0x0 PUSH2 0x1F3 DUP3 DUP5 PUSH2 0x1A7 JUMP JUMPDEST SWAP2 POP DUP2 SWAP1 POP SWAP3 SWAP2 POP POP JUMP JUMPDEST PUSH1 0x0 PUSH1 0x20 DUP3 ADD SWAP1 POP PUSH2 0x213 PUSH1 0x0 DUP4 ADD DUP5 PUSH2 0x1D8 JUMP JUMPDEST SWAP3 SWAP2 POP POP JUMP JUMPDEST PUSH1 0x0 PUSH2 0x223 PUSH2 0x234 JUMP JUMPDEST SWAP1 POP PUSH2 0x22F DUP3 DUP3 PUSH2 0x327 JUMP JUMPDEST SWAP2 SWAP1 POP JUMP JUMPDEST PUSH1 0x0 PUSH1 0x40 MLOAD SWAP1 POP SWAP1 JUMP JUMPDEST PUSH1 0x0 PUSH8 0xFFFFFFFFFFFFFFFF DUP3 GT ISZERO PUSH2 0x259 JUMPI PUSH2 0x258 PUSH2 0x387 JUMP JUMPDEST JUMPDEST PUSH2 0x262 DUP3 PUSH2 0x3CA JUMP JUMPDEST SWAP1 POP PUSH1 0x20 DUP2 ADD SWAP1 POP SWAP2 SWAP1 POP JUMP JUMPDEST PUSH1 0x0 DUP2 MLOAD SWAP1 POP SWAP2 SWAP1 POP JUMP JUMPDEST PUSH1 0x0 DUP2 SWAP1 POP SWAP3 SWAP2 POP POP JUMP JUMPDEST PUSH1 0x0 PUSH2 0x290 DUP3 PUSH2 0x2DB JUMP JUMPDEST SWAP2 POP PUSH2 0x29B DUP4 PUSH2 0x2DB JUMP JUMPDEST SWAP3 POP DUP3 PUSH32 0xFFFFFFFFFFFFFFFFFFFFFFFFFFFFFFFFFFFFFFFFFFFFFFFFFFFFFFFFFFFFFFFF SUB DUP3 GT ISZERO PUSH2 0x2D0 JUMPI PUSH2 0x2CF PUSH2 0x358 JUMP JUMPDEST JUMPDEST DUP3 DUP3 ADD SWAP1 POP SWAP3 SWAP2 POP POP JUMP JUMPDEST PUSH1 0x0 DUP2 SWAP1 POP SWAP2 SWAP1 POP JUMP JUMPDEST DUP3 DUP2 DUP4 CALLDATACOPY PUSH1 0x0 DUP4 DUP4 ADD MSTORE POP POP POP JUMP JUMPDEST PUSH1 0x0 JUMPDEST DUP4 DUP2 LT ISZERO PUSH2 0x312 JUMPI DUP1 DUP3 ADD MLOAD DUP2 DUP5 ADD MSTORE PUSH1 0x20 DUP2 ADD SWAP1 POP PUSH2 0x2F7 JUMP JUMPDEST DUP4 DUP2 GT ISZERO PUSH2 0x321 JUMPI PUSH1 0x0 DUP5 DUP5 ADD MSTORE JUMPDEST POP POP POP POP JUMP JUMPDEST PUSH2 0x330 DUP3 PUSH2 0x3CA JUMP JUMPDEST DUP2 ADD DUP2 DUP2 LT PUSH8 0xFFFFFFFFFFFFFFFF DUP3 GT OR ISZERO PUSH2 0x34F JUMPI PUSH2 0x34E PUSH2 0x387 JUMP JUMPDEST JUMPDEST DUP1 PUSH1 0x40 MSTORE POP POP POP JUMP JUMPDEST PUSH32 0x4E487B7100000000000000000000000000000000000000000000000000000000 PUSH1 0x0 MSTORE PUSH1 0x11 PUSH1 0x4 MSTORE PUSH1 0x24 PUSH1 0x0 REVERT JUMPDEST PUSH32 0x4E487B7100000000000000000000000000000000000000000000000000000000 PUSH1 0x0 MSTORE PUSH1 0x41 PUSH1 0x4 MSTORE PUSH1 0x24 PUSH1 0x0 REVERT JUMPDEST PUSH1 0x0 DUP1 REVERT JUMPDEST PUSH1 0x0 DUP1 REVERT JUMPDEST PUSH1 0x0 DUP1 REVERT JUMPDEST PUSH1 0x0 DUP1 REVERT JUMPDEST PUSH1 0x0 PUSH1 0x1F NOT PUSH1 0x1F DUP4 ADD AND SWAP1 POP SWAP2 SWAP1 POP JUMP INVALID LOG2 PUSH5 0x6970667358 0x22 SLT KECCAK256 0xDA LT DUP5 0xE4 LOG0 PUSH10 0x342360339C732A47865F 0xE3 EXTCODECOPY 0xB5 DUP14 0xD4 BASEFEE 0xBB CODESIZE SELFDESTRUCT SWAP9 0xBE 0xDE 0xEF DELEGATECALL 0xB3 PUSH27 0x64736F6C6343000807003300000000000000000000000000000000 "
				},
				"gasEstimates": {
					"creation": {
						"codeDepositCost": "208200",
						"executionCost": "infinite",
						"totalCost": "infinite"
					},
					"external": {
						"candidatos(string)": "infinite",
						"votar(string)": "infinite"
					}
				},
				"methodIdentifiers": {
					"candidatos(string)": "097c2e3f",
					"votar(string)": "ce3fe641"
				}
			},
			"storageLayout": {
				"storage": [
					{
						"astId": 5,
						"contract": "Votacao.sol:Votacao",
						"label": "candidatos",
						"offset": 0,
						"slot": "0",
						"type": "t_mapping(t_string_memory_ptr,t_uint256)"
					}
				],
				"types": {
					"t_mapping(t_string_memory_ptr,t_uint256)": {
						"encoding": "mapping",
						"key": "t_string_memory_ptr",
						"label": "mapping(string => uint256)",
						"numberOfBytes": "32",
						"value": "t_uint256"
					},
					"t_string_memory_ptr": {
						"encoding": "bytes",
						"label": "string",
						"numberOfBytes": "32"
					},
					"t_uint256": {
						"encoding": "inplace",
						"label": "uint256",
						"numberOfBytes": "32"
					}
				}
			},
			"userdoc": {
				"kind": "user",
				"methods": {},
				"version": 1
			}
		}
	}
}