{
	"data": {
		"bytecode": {
			"linkReferences": {},
			"object": "6080346200013f576020810181811067ffffffffffffffff82111762000110576040526000809152600254600281046001809216801562000105575b6020821014620000d857601f8111620000ac575b60028390556003805433600160a060020a031982168117909255604051918591600160a060020a03167f8be0079c531659141344cd1fd0a4f28419497f9722a3daafe3b4186f6b6457e08380a36007556142119081620001458239f35b600283526020601f8185209201048101905b818110620000cd57506200004f565b8381558201620000be565b6024837f4e487b710000000000000000000000000000000000000000000000000000000081526022600452fd5b90607f16906200003b565b7f4e487b7100000000000000000000000000000000000000000000000000000000600052604160045260246000fd5b600080fdfe6080604052600436101561001257600080fd5b7c0100000000000000000000000000000000000000000000000000000000600035048062fdd58e1461367a57806301ffc9a7146135c05780630e89341c146134df5780631f7fdffa146131b85780632eb2c2d614612dcc5780634cd0cb2814612d1b5780634e1273f414612b675780634f558e7914612b395780635880ef3414612aad5780635e6780ab14611d4b5780636b20c45414611aec578063715018a614611a98578063731133e9146117cb5780637f36671c14610b2c5780638da5cb5b14610b05578063a22cb46514610a0b578063bd85b039146109df578063bee5cdca1461078a578063c6bdc0a21461076c578063d19de7ae14610752578063e985e9c5146106fb578063f242432a146102dd578063f2fde38b14610202578063f5298aca146101a55763fba23e411461014a57600080fd5b346101a05760803660031901126101a0576101636136a9565b61016b6136bf565b6040519060443582526064356020830152600160a060020a0380911692169060008051602061417c83398151915260403392a4005b600080fd5b346101a0576101da6101b636613886565b91600160a060020a03811633811480156101dc575b6101d59150613ac3565b613f0c565b005b5060005260016020526040600020336000526020526101d560ff604060002054166101cb565b346101a05760203660031901126101a05761021b6136a9565b6102236138b0565b600160a060020a038091169081156102705760035482600160a060020a0319821617600355167f8be0079c531659141344cd1fd0a4f28419497f9722a3daafe3b4186f6b6457e0600080a3005b608460405160e560020a62461bcd02815260206004820152602660248201527f4f776e61626c653a206e6577206f776e657220697320746865207a65726f206160448201527f64647265737300000000000000000000000000000000000000000000000000006064820152fd5b346101a05760a03660031901126101a0576102f66136a9565b6102fe6136bf565b906084803567ffffffffffffffff81116101a0576103209036906004016137fb565b90600160a060020a0391338385161480156106d0575b61033f90613ac3565b8285161561034d8115613b37565b610358604435613def565b610363606435613def565b9185871615610670575b6105bd575b505060443560005260209460008652604060002084861660005286526040600020546103a2606435821015613bab565b60443560005260008752604060002085871660005287526064359003604060002055604435600052600086526040600020848216600052865260406000206103ed6064358254613c1f565b9055604051604435815260643587820152848216908587169060008051602061417c83398151915260403392a4803b61042257005b60a0600061048595889560405197889687958693857ff23a6e61000000000000000000000000000000000000000000000000000000009d8e87523360048801521660248601526044356044860152606435606486015284015260a48301906136eb565b0393165af16000918161058e575b506105615750506001906104a5613d46565b6308c379a014610529575b506104b757005b60405160e560020a62461bcd02815260206004820152603460248201527f455243313135353a207472616e7366657220746f206e6f6e2d4552433131353560448201527f526563656976657220696d706c656d656e7465720000000000000000000000006064820152608490fd5b0390fd5b610531613d80565b908161053d57506104b0565b61052560405192839260e560020a62461bcd028452600484015260248301906136eb565b600160e060020a0319161490506101da5760405160e560020a62461bcd0281528061052560048201613ce8565b6105af919250843d86116105b6575b6105a78183613764565b810190613cc8565b9084610493565b503d61059d565b92959194909360005b8451811015610661576105d98186613ab0565b51906105e58188613ab0565b518260005260046020526040600020548181106106195761061493600052600460205203604060002055613a88565b6105c6565b8a60405160e560020a62461bcd028152602060048201526028602482015260008051602061419c83398151915260448201526000805160206141bc8339815191526064820152fd5b50935093909491508580610372565b959260009794919592975b86518110156106c257806106926106bd928b613ab0565b5161069d828a613ab0565b5160005260046020526106b66040600020918254613c1f565b9055613a88565b61067b565b50929596919490939661036d565b50828416600052600160205260406000203360005260205261033f60ff604060002054169050610336565b346101a05760403660031901126101a0576107146136a9565b61071c6136bf565b90600160a060020a03809116600052600160205260406000209116600052602052602060ff604060002054166040519015158152f35b346101a0576101da61076336613886565b916101d56138b0565b346101a05760003660031901126101a0576020600654604051908152f35b346101a05760203660031901126101a05760043560005260056020526040600020604051906107b88261372b565b805482526001810154600160a060020a031660208301526002810154600160a060020a031660408301526003810154600160a060020a031660608301526004810161080290613949565b608083015261081360058201613949565b60a083015261082460068201613949565b60c083015261083560078201613949565b60e083015261084660088201613949565b61010083015261085860098201613949565b61012083015261086a600a8201613949565b61014083015261087c600b8201613949565b61016083015261088e600c8201613949565b610180830152600d016108a090613949565b806101a08301528151906080830151916020840151600160a060020a0316936040810151600160a060020a0316916060820151600160a060020a03169060a083015160c084015160e085015190610100860151926101208701519461014088015196610160890151986101800151996040519d8e9d8e9485526101c0806020870152850161092d916136eb565b936040015260608d015260808c01528a810360a08c015261094d916136eb565b89810360c08b015261095e916136eb565b88810360e08a015261096f916136eb565b878103610100890152610981916136eb565b868103610120880152610993916136eb565b8581036101408701526109a5916136eb565b8481036101608601526109b7916136eb565b8381036101808501526109c9916136eb565b8281036101a08401526109db916136eb565b0390f35b346101a05760203660031901126101a05760043560005260046020526020604060002054604051908152f35b346101a05760403660031901126101a057610a246136a9565b602435908115158092036101a057600160a060020a031690813314610a9857336000526001602052604060002082600052602052604060002060ff1981541660ff83161790556040519081527f17307eab39ab6107e8899845ad3d59bd9653f200f220920489ca2b5937696c3160203392a3005b608460405160e560020a62461bcd02815260206004820152602960248201527f455243313135353a2073657474696e6720617070726f76616c2073746174757360448201527f20666f722073656c6600000000000000000000000000000000000000000000006064820152fd5b346101a05760003660031901126101a0576020600160a060020a0360035416604051908152f35b346101a0576101c03660031901126101a05760243567ffffffffffffffff81116101a057610b5e9036906004016137fb565b610b666136d5565b60643591600160a060020a03831683036101a057608435600160a060020a03811681036101a05760a43567ffffffffffffffff81116101a057610bad9036906004016137fb565b60c43567ffffffffffffffff81116101a057610bcd9036906004016137fb565b60e43567ffffffffffffffff81116101a057610bed9036906004016137fb565b6101043567ffffffffffffffff81116101a057610c0e9036906004016137fb565b906101243567ffffffffffffffff81116101a057610c309036906004016137fb565b926101443567ffffffffffffffff81116101a057610c529036906004016137fb565b9467ffffffffffffffff61016435116101a057610c7536610164356004016137fb565b966101843567ffffffffffffffff81116101a057610c979036906004016137fb565b9a67ffffffffffffffff6101a435116101a057610cba366101a4356004016137fb565b9a600435600052600560205260406000209a80519067ffffffffffffffff8211611162578c8291610cee600483015461390b565b601f8111611795575b50602091601f84116001146117245750600092611719575b5050816002029160080260020a6000190419161760048c01555b600160a060020a0360018c019116600160a060020a0319825416179055600160a060020a0360028b019116600160a060020a0319825416179055600160a060020a0360038a019116600160a060020a031982541617905580519067ffffffffffffffff8211611162578190610da160058b015461390b565b601f81116116e3575b50602090601f831160011461166f57600092611664575b5050816002029160080260020a6000190419161760058801555b80519067ffffffffffffffff8211611162578190610dfc60068a015461390b565b601f811161162e575b50602090601f83116001146115ba576000926115af575b5050816002029160080260020a6000190419161760068701555b80519067ffffffffffffffff8211611162578190610e57600789015461390b565b601f8111611579575b50602090601f8311600114611505576000926114fa575b5050816002029160080260020a6000190419161760078601555b80519067ffffffffffffffff8211611162578190610eb2600888015461390b565b601f81116114c4575b50602090601f831160011461145057600092611445575b5050816002029160080260020a6000190419161760088501555b80519067ffffffffffffffff8211611162578190610f0d600987015461390b565b601f811161140f575b50602090601f831160011461139b57600092611390575b5050816002029160080260020a6000190419161760098401555b80519067ffffffffffffffff8211611162578190610f68600a86015461390b565b601f811161135a575b50602090601f83116001146112e6576000926112db575b5050816002029160080260020a60001904191617600a8301555b80519067ffffffffffffffff8211611162578190610fc3600b85015461390b565b601f81116112a5575b50602090601f831160011461123157600092611226575b5050816002029160080260020a60001904191617600b8201555b600c8101835167ffffffffffffffff81116111625761101c825461390b565b601f81116111f3575b506020601f8211600114611186578190600d959660009261117b575b5050816002029160080260020a6000190419161790555b019080519067ffffffffffffffff8211611162578190611078845461390b565b601f8111611124575b50602090601f83116001146110be576000926110b3575b5050816002029160080260020a600019041916179055600080f35b015190508380611098565b6000858152602081209350601f198516905b81811061110c575091600293918560019694106110f1575b50505002019055005b01516008601f841602840a60001904191690558480806110e8565b929360206001819287860151815501950193016110d0565b611152908560005260206000206020601f86010481019160208610611158575b601f60209101040190614118565b84611081565b9091508190611144565b60e060020a634e487b7102600052604160045260246000fd5b015190508680611041565b601f198216958360005260206000209660005b8181106111db5750966002928492600195600d999a106111c0575b50505002019055611058565b01516008601f841602840a60001904191690558780806111b4565b83830151895560019098019760209384019301611199565b611220908360005260206000206020601f8501048101916020851061115857601f60209101040190614118565b85611025565b015190508580610fe3565b9150600b840160005260206000209160005b601f198516811061128d5750918391600293600195601f19811610611272575b5050500201600b820155610ffd565b01516008601f841602840a6000190419169055868080611263565b91926020600181928685015181550194019201611243565b6112d590600b860160005260206000206020601f8601048101916020861061115857601f60209101040190614118565b86610fcc565b015190508680610f88565b9150600a850160005260206000209160005b601f19851681106113425750918391600293600195601f19811610611327575b5050500201600a830155610fa2565b01516008601f841602840a6000190419169055878080611318565b919260206001819286850151815501940192016112f8565b61138a90600a870160005260206000206020601f8601048101916020861061115857601f60209101040190614118565b87610f71565b015190508780610f2d565b91506009860160005260206000209160005b601f19851681106113f75750918391600293600195601f198116106113dc575b50505002016009840155610f47565b01516008601f841602840a60001904191690558880806113cd565b919260206001819286850151815501940192016113ad565b61143f906009880160005260206000206020601f8601048101916020861061115857601f60209101040190614118565b88610f16565b015190508880610ed2565b91506008870160005260206000209160005b601f19851681106114ac5750918391600293600195601f19811610611491575b50505002016008850155610eec565b01516008601f841602840a6000190419169055898080611482565b91926020600181928685015181550194019201611462565b6114f4906008890160005260206000206020601f8601048101916020861061115857601f60209101040190614118565b89610ebb565b015190508980610e77565b91506007880160005260206000209160005b601f19851681106115615750918391600293600195601f19811610611546575b50505002016007860155610e91565b01516008601f841602840a60001904191690558a8080611537565b91926020600181928685015181550194019201611517565b6115a99060078a0160005260206000206020601f8601048101916020861061115857601f60209101040190614118565b8a610e60565b015190508a80610e1c565b91506006890160005260206000209160005b601f19851681106116165750918391600293600195601f198116106115fb575b50505002016006870155610e36565b01516008601f841602840a60001904191690558b80806115ec565b919260206001819286850151815501940192016115cc565b61165e9060068b0160005260206000206020601f8601048101916020861061115857601f60209101040190614118565b8b610e05565b015190508b80610dc1565b915060058a0160005260206000209160005b601f19851681106116cb5750918391600293600195601f198116106116b0575b50505002016005880155610ddb565b01516008601f841602840a60001904191690558c80806116a1565b91926020600181928685015181550194019201611681565b6117139060058c0160005260206000206020601f8601048101916020861061115857601f60209101040190614118565b8c610daa565b015190508f80610d0f565b60040160009081526020812093505b601f198516811061177d5750918391600293600195601f19811610611762575b505050020160048c0155610d29565b01516008601f841602840a6000190419169055388080611753565b91926020600181928685015181550194019201611733565b6117c5906004840160005260206000206020601f8701048101916020871061115857601f60209101040190614118565b38610cf7565b346101a05760803660031901126101a0576117e46136a9565b6024803591604490813592606493843567ffffffffffffffff81116101a0576118119036906004016137fb565b9061181a6138b0565b600160a060020a0384169485159661183288156140a4565b61183b89613def565b9661184584613def565b9960005b8951811015611870578061186061186b928e613ab0565b5161069d828d613ab0565b611849565b508a898b6119db575b50508060005260209760008952604060002083600052895260406000206118a1878254613c1f565b9055826000604051848152888c82015260008051602061417c83398151915260403392a43b6118cc57005b60008894611925899860405198899788968795877ff23a6e61000000000000000000000000000000000000000000000000000000009e8f89523360048a015288015286015284015260a0608484015260a48301906136eb565b03925af1600091816119bc575b5061198d575050600191611944613d46565b6308c379a014611957575b50506104b757005b61195f613d80565b8061196a575061194f565b6105259060405193849360e560020a62461bcd02855260048501528301906136eb565b600160e060020a0319161491506101da90505760405160e560020a62461bcd0281528061052560048201613ce8565b6119d4919250853d87116105b6576105a78183613764565b9085611932565b93969197959094989260005b8551811015611a86576119fa8187613ab0565b51611a058289613ab0565b51908060005260206004815260406000205491838310611a3e57611a39949392916004916000525203604060002055613a88565b6119e7565b60848f6000805160206141bc8339815191528f8f8693602860008051602061419c833981519152926040519660e560020a62461bcd0288526004880152860152840152820152fd5b50929894509496909592508880611879565b346101a05760003660031901126101a057611ab16138b0565b6000600160a060020a0360035481198116600355167f8be0079c531659141344cd1fd0a4f28419497f9722a3daafe3b4186f6b6457e08280a3005b346101a05760603660031901126101a057611b056136a9565b60249067ffffffffffffffff9082358281116101a057611b2990369060040161379e565b9160449081359081116101a057611b4c600160a060020a0391369060040161379e565b9216923384148015611d22575b611b6290613ac3565b8315611b6e8115613e25565b611b7b8251855114613c2c565b6000604051611b8981613748565b52611cea575b60005b8151811015611c3057611ba58183613ab0565b51611bb08286613ab0565b51908060005260206004815260406000205491838310611be957611be4949392916004916000525203604060002055613a88565b611b92565b60848260008051602061419c8339815191528960288e6040519460e560020a62461bcd02865260048601528401528201526000805160206141bc8339815191526064820152fd5b83828660005b8251811015611ca55780611c4d611ca09285613ab0565b51611c588287613ab0565b519080600052602060008152604060002086600052815260406000205491611c8284841015613e99565b60005260008152604060002090866000525203604060002055613a88565b611c36565b50907f4a39dc06d4c0dbc64b70af90fd698a233a518aa5d07e595d983b8c0526c8f7fb611cdc600094604051918291339583613ca0565b0390a46101da604051613748565b9260009491945b8451811015611d185780611d08611d139286613ab0565b5161069d8288613ab0565b611cf1565b5092939093611b8f565b50836000526001602052604060002033600052602052611b6260ff604060002054169050611b59565b346101a0576101a03660031901126101a057611d656136a9565b611d6d6136bf565b611d756136d5565b60643567ffffffffffffffff81116101a057611d959036906004016137fb565b60843567ffffffffffffffff81116101a057611db59036906004016137fb565b60a43567ffffffffffffffff81116101a057611dd59036906004016137fb565b60c43567ffffffffffffffff81116101a057611df59036906004016137fb565b60e43567ffffffffffffffff81116101a057611e159036906004016137fb565b6101043567ffffffffffffffff81116101a057611e369036906004016137fb565b916101243567ffffffffffffffff81116101a057611e589036906004016137fb565b936101443567ffffffffffffffff81116101a057611e7a9036906004016137fb565b956101643567ffffffffffffffff81116101a057611e9c9036906004016137fb565b976101843567ffffffffffffffff81116101a057611ebe9036906004016137fb565b99600754611ecb90613a88565b809c816007556040519e8f92611ee08461372b565b8352600160a060020a03166020830152600160a060020a03169060400152600160a060020a031660608d015260808c015260a08b015260c08a015260e08901526101008801526101208701526101408601526101608501526101808401526101a083015260065468010000000000000000811015611162576001810180600655811015612a945760066000527ff652222313e28459528d920b65115c16c04f3efc82aaedc97be59f3f377c0d3f0155805160005260056020526040600020908051825560018201600160a060020a03602083015116600160a060020a031982541617905560028201600160a060020a03604083015116600160a060020a031982541617905560038201600160a060020a03606083015116600160a060020a0319825416179055608081015180519067ffffffffffffffff821161116257819061202c600486015461390b565b601f8111612a5e575b50602090601f83116001146129ea576000926129df575b5050816002029160080260020a6000190419161760048301555b60a081015180519067ffffffffffffffff821161116257819061208c600586015461390b565b601f81116129a9575b50602090601f83116001146129355760009261292a575b5050816002029160080260020a6000190419161760058301555b60c081015180519067ffffffffffffffff82116111625781906120ec600686015461390b565b601f81116128f4575b50602090601f831160011461288057600092612875575b5050816002029160080260020a6000190419161760068301555b60e081015180519067ffffffffffffffff821161116257819061214c600786015461390b565b601f811161283f575b50602090601f83116001146127cb576000926127c0575b5050816002029160080260020a6000190419161760078301555b61010081015180519067ffffffffffffffff82116111625781906121ad600886015461390b565b601f811161278a575b50602090601f83116001146127165760009261270b575b5050816002029160080260020a6000190419161760088301555b61012081015180519067ffffffffffffffff821161116257819061220e600986015461390b565b601f81116126d5575b50602090601f831160011461266157600092612656575b5050816002029160080260020a6000190419161760098301555b61014081015180519067ffffffffffffffff821161116257819061226f600a86015461390b565b601f8111612620575b50602090601f83116001146125ac576000926125a1575b5050816002029160080260020a60001904191617600a8301555b600b820161016082015180519067ffffffffffffffff82116111625781906122d1845461390b565b601f811161256e575b50602090601f8311600114612505576000926124fa575b5050816002029160080260020a6000190419161790555b600c82019161018082015192835167ffffffffffffffff81116111625761232f825461390b565b601f81116124c7575b506020601f8211600114612455579080600d9493926101a0969760009261244a575b5050816002029160080260020a6000190419161790555b0191015180519067ffffffffffffffff8211611162578190612393845461390b565b601f8111612417575b50602090601f83116001146123cd576000926110b3575050816002029160080260020a600019041916179055600080f35b6000858152602081209350601f198516905b8181106123ff575091600293918560019694106110f15750505002019055005b929360206001819287860151815501950193016123df565b612444908560005260206000206020601f8601048101916020861061115857601f60209101040190614118565b8461239c565b01519050878061235a565b601f198216958360005260206000209660005b8181106124af5750926101a0969760019360029383600d99989710612494575b50505002019055612371565b01516008601f841602840a6000190419169055888080612488565b83830151895560019098019760209384019301612468565b6124f4908360005260206000206020601f8501048101916020851061115857601f60209101040190614118565b85612338565b0151905085806122f1565b6000858152602081209350601f198516905b8181106125565750916002939185600196941061253b575b50505002019055612308565b01516008601f841602840a600019041916905586808061252f565b92936020600181928786015181550195019301612517565b61259b908560005260206000206020601f8601048101916020861061115857601f60209101040190614118565b866122da565b01519050848061228f565b9150600a850160005260206000209160005b601f19851681106126085750918391600293600195601f198116106125ed575b5050500201600a8301556122a9565b01516008601f841602840a60001904191690558580806125de565b919260206001819286850151815501940192016125be565b61265090600a870160005260206000206020601f8601048101916020861061115857601f60209101040190614118565b85612278565b01519050848061222e565b91506009850160005260206000209160005b601f19851681106126bd5750918391600293600195601f198116106126a2575b50505002016009830155612248565b01516008601f841602840a6000190419169055858080612693565b91926020600181928685015181550194019201612673565b612705906009870160005260206000206020601f8601048101916020861061115857601f60209101040190614118565b85612217565b0151905084806121cd565b91506008850160005260206000209160005b601f19851681106127725750918391600293600195601f19811610612757575b505050020160088301556121e7565b01516008601f841602840a6000190419169055858080612748565b91926020600181928685015181550194019201612728565b6127ba906008870160005260206000206020601f8601048101916020861061115857601f60209101040190614118565b856121b6565b01519050848061216c565b91506007850160005260206000209160005b601f19851681106128275750918391600293600195601f1981161061280c575b50505002016007830155612186565b01516008601f841602840a60001904191690558580806127fd565b919260206001819286850151815501940192016127dd565b61286f906007870160005260206000206020601f8601048101916020861061115857601f60209101040190614118565b85612155565b01519050848061210c565b91506006850160005260206000209160005b601f19851681106128dc5750918391600293600195601f198116106128c1575b50505002016006830155612126565b01516008601f841602840a60001904191690558580806128b2565b91926020600181928685015181550194019201612892565b612924906006870160005260206000206020601f8601048101916020861061115857601f60209101040190614118565b856120f5565b0151905084806120ac565b91506005850160005260206000209160005b601f19851681106129915750918391600293600195601f19811610612976575b505050020160058301556120c6565b01516008601f841602840a6000190419169055858080612967565b91926020600181928685015181550194019201612947565b6129d9906005870160005260206000206020601f8601048101916020861061115857601f60209101040190614118565b85612095565b01519050848061204c565b91506004850160005260206000209160005b601f1985168110612a465750918391600293600195601f19811610612a2b575b50505002016004830155612066565b01516008601f841602840a6000190419169055858080612a1c565b919260206001819286850151815501940192016129fc565b612a8e906004870160005260206000206020601f8601048101916020861061115857601f60209101040190614118565b85612035565b60e060020a634e487b7102600052603260045260246000fd5b346101a05760003660031901126101a0576040518060065480825282602080930160066000527ff652222313e28459528d920b65115c16c04f3efc82aaedc97be59f3f377c0d3f9260005b85828210612b2357505050612b0f92500383613764565b6109db604051928284938452830190613852565b8554845260019586019588955093019201612af8565b346101a05760203660031901126101a057600435600052600460205260206040600020541515604051908152f35b346101a05760403660031901126101a05760043567ffffffffffffffff8082116101a057366023830112156101a057816004013590612ba582613786565b92612bb36040519485613764565b8284526020926024848087019202830101913683116101a057602401905b828210612cfc575050506024359081116101a057612bf390369060040161379e565b8251815103612c8f57825192612c0884613786565b93612c166040519586613764565b808552612c25601f1991613786565b01368486013760005b8151811015612c785780612c63600160a060020a03612c50612c739486613ab0565b5116612c5c8387613ab0565b51906139ee565b612c6d8288613ab0565b52613a88565b612c2e565b5050506109db604051928284938452830190613852565b6084826040519060e560020a62461bcd0282526004820152602960248201527f455243313135353a206163636f756e747320616e6420696473206c656e67746860448201527f206d69736d6174636800000000000000000000000000000000000000000000006064820152fd5b8135600160a060020a03811681036101a0578152908401908401612bd1565b346101a05760203660031901126101a05760043560005260056020526101da600d604060002060008155600060018201556000600282015560006003820155612d666004820161412f565b612d726005820161412f565b612d7e6006820161412f565b612d8a6007820161412f565b612d966008820161412f565b612da26009820161412f565b612dae600a820161412f565b612dba600b820161412f565b612dc6600c820161412f565b0161412f565b346101a05760031960a0368201126101a057612de66136a9565b90612def6136bf565b9067ffffffffffffffff604480358281116101a057612e1290369060040161379e565b9060649081358481116101a057612e2d90369060040161379e565b9460849485359081116101a057612e489036906004016137fb565b90600160a060020a0380991698338a14801561318f575b612e6890613ac3565b612e758651895114613c2c565b8816958615612e848115613b37565b8a1561314c575b613093575b60005b8651811015612f235780612eaa612f1e9289613ab0565b518c612eb6838d613ab0565b5191806000528260209260008452604060002081600052845260406000205490612ee283831015613bab565b8360005260008552604060002090600052845203604060002055600052600081526040600020908b600052526106b66040600020918254613c1f565b612e93565b5090919293968998878a887f4a39dc06d4c0dbc64b70af90fd698a233a518aa5d07e595d983b8c0526c8f7fb60405180612f5f88339583613ca0565b0390a43b612f6957005b60405197889687967fbc197c81000000000000000000000000000000000000000000000000000000009b8c89523360048a01526024890152870160a0905260a48701612fb491613852565b90848783030190870152612fc791613852565b918483030190840152612fd9916136eb565b03815a602094600091f160009181613073575b506130485750506001612ffd613d46565b6308c379a01461300e575b6104b757005b613016613d80565b806130215750613008565b6105259060405191829160e560020a62461bcd0283526020600484015260248301906136eb565b600160e060020a031916146101da5760405160e560020a62461bcd0281528061052560048201613ce8565b61308c91925060203d81116105b6576105a78183613764565b9083612fec565b96949398929590979160005b855181101561313d576130b28187613ab0565b516130bd8289613ab0565b519080600052602060048152604060002054918383106130f6576130f1949392916004916000525203604060002055613a88565b61309f565b508b906000805160206141bc8339815191528f60008051602061419c8339815191528e6040519460e560020a62461bcd028652600486015260286024860152840152820152fd5b50919790959298939496612e90565b98959996949392919060005b8b5181101561318057808c61069d8261317461317b958f613ab0565b5192613ab0565b613158565b50909192939496999598612e8b565b50896000526001602052604060002033600052602052612e6860ff604060002054169050612e5f565b346101a0576003196080368201126101a0576131d26136a9565b6024919067ffffffffffffffff9083358281116101a0576131f790369060040161379e565b9160449485358281116101a05761321290369060040161379e565b9560649283359081116101a05761322d9036906004016137fb565b926132366138b0565b600160a060020a0385169384159761324e89156140a4565b61325b88518b5114613c2c565b60005b88518110156132855780613275613280928d613ab0565b5161069d828c613ab0565b61325e565b508998979697613427575b60005b87518110156132df57806132aa6132da928c613ab0565b516132b5828b613ab0565b516000526020600081526040600020908a600052526106b66040600020918254613c1f565b613293565b50909193979592968560006040517f4a39dc06d4c0dbc64b70af90fd698a233a518aa5d07e595d983b8c0526c8f7fb33918061331c8d8b83613ca0565b0390a43b61332657005b60405195869485947fbc197c8100000000000000000000000000000000000000000000000000000000998a87523360048801528b870160009052860160a0905260a4860161337391613852565b9083868303019086015261338691613852565b90838203016084840152613399916136eb565b03815a602094600091f160009181613407575b506105615750506001906133be613d46565b6308c379a0146133cf57506104b757005b6133d7613d80565b90816133e357506104b0565b61052560405192839260e560020a62461bcd028452602060048501528301906136eb565b61342091925060203d81116105b6576105a78183613764565b90846133ac565b969195929793949060005b84518110156134d1576134458186613ab0565b516134508288613ab0565b5190806000526020600481526040600020549183831061348957613484949392916004916000525203604060002055613a88565b613432565b50608491506000805160206141bc8339815191528b60008051602061419c8339815191528f60288e6040519660e560020a62461bcd0288526004880152860152840152820152fd5b509094939792959196613290565b346101a0576020806003193601126101a05760405190600082600254916135058361390b565b928383526001908582821691826000146135a1575050600114613544575b5061353092500383613764565b6109db6040519282849384528301906136eb565b84915060026000527f405787fa12a823e0f2b7631cc41b3ba8828b3321ca811111fa75cd3aa3bb5ace906000915b858310613589575050613530935082010185613523565b80548389018501528794508693909201918101613572565b60ff191685820152613530951515810285010192508791506135239050565b346101a05760203660031901126101a057600435600160e060020a031981168091036101a057807fd9b67a260000000000000000000000000000000000000000000000000000000060209214908115613650575b8115613626575b506040519015158152f35b7f01ffc9a7000000000000000000000000000000000000000000000000000000009150148261361b565b7f0e89341c0000000000000000000000000000000000000000000000000000000081149150613614565b346101a05760403660031901126101a05760206136a16136986136a9565b602435906139ee565b604051908152f35b60043590600160a060020a03821682036101a057565b60243590600160a060020a03821682036101a057565b60443590600160a060020a03821682036101a057565b919082519283825260005b848110613717575050826000602080949584010152601f8019910116010190565b6020818301810151848301820152016136f6565b6101c0810190811067ffffffffffffffff82111761116257604052565b6020810190811067ffffffffffffffff82111761116257604052565b90601f8019910116810190811067ffffffffffffffff82111761116257604052565b67ffffffffffffffff81116111625760208091020190565b81601f820112156101a0578035916137b583613786565b926137c36040519485613764565b808452602092838080870193028201019283116101a0578301905b8282106137ec575050505090565b813581529083019083016137de565b81601f820112156101a05780359067ffffffffffffffff82116111625760405192613830601f8401601f191660200185613764565b828452602083830101116101a057816000926020809301838601378301015290565b90815180825260208080930193019160005b828110613872575050505090565b835185529381019392810192600101613864565b60609060031901126101a057600435600160a060020a03811681036101a057906024359060443590565b600160a060020a036003541633036138c457565b606460405160e560020a62461bcd02815260206004820152602060248201527f4f776e61626c653a2063616c6c6572206973206e6f7420746865206f776e65726044820152fd5b906001600283049216801561393f575b602083101461392657565b60e060020a634e487b7102600052602260045260246000fd5b91607f169161391b565b906040519182600082549261395d8461390b565b9081845260019485811690816000146139cc5750600114613989575b505061398792500383613764565b565b9093915060005260209081600020936000915b8183106139b457505061398793508201013880613979565b8554888401850152948501948794509183019161399c565b91505061398794506020925060ff191682840152151581028201013880613979565b600160a060020a0316908115613a1b57600052600060205260406000209060005260205260406000205490565b608460405160e560020a62461bcd02815260206004820152602a60248201527f455243313135353a2061646472657373207a65726f206973206e6f742061207660448201527f616c6964206f776e6572000000000000000000000000000000000000000000006064820152fd5b6000198114613a975760010190565b60e060020a634e487b7102600052601160045260246000fd5b8051821015612a94576020809202010190565b15613aca57565b608460405160e560020a62461bcd02815260206004820152602e60248201527f455243313135353a2063616c6c6572206973206e6f7420746f6b656e206f776e60448201527f6572206f7220617070726f7665640000000000000000000000000000000000006064820152fd5b15613b3e57565b608460405160e560020a62461bcd02815260206004820152602560248201527f455243313135353a207472616e7366657220746f20746865207a65726f20616460448201527f64726573730000000000000000000000000000000000000000000000000000006064820152fd5b15613bb257565b608460405160e560020a62461bcd02815260206004820152602a60248201527f455243313135353a20696e73756666696369656e742062616c616e636520666f60448201527f72207472616e73666572000000000000000000000000000000000000000000006064820152fd5b91908201809211613a9757565b15613c3357565b608460405160e560020a62461bcd02815260206004820152602860248201527f455243313135353a2069647320616e6420616d6f756e7473206c656e6774682060448201527f6d69736d617463680000000000000000000000000000000000000000000000006064820152fd5b9091613cb7613cc593604084526040840190613852565b916020818403910152613852565b90565b908160209103126101a05751600160e060020a0319811681036101a05790565b60809060208152602860208201527f455243313135353a204552433131353552656365697665722072656a6563746560408201527f6420746f6b656e7300000000000000000000000000000000000000000000000060608201520190565b60009060033d11613d5357565b905060046000803e7c01000000000000000000000000000000000000000000000000000000006000510490565b600060443d10613cc557604051600319913d83016004833e815167ffffffffffffffff918282113d602484011117613dde57818401948551938411613de6573d85010160208487010111613dde5750613cc592910160200190613764565b949350505050565b50949350505050565b604051906040820182811067ffffffffffffffff8211176111625760405260018252602082016020368237825115612a94575290565b15613e2c57565b608460405160e560020a62461bcd02815260206004820152602360248201527f455243313135353a206275726e2066726f6d20746865207a65726f206164647260448201527f65737300000000000000000000000000000000000000000000000000000000006064820152fd5b15613ea057565b608460405160e560020a62461bcd028152602060048201526024808201527f455243313135353a206275726e20616d6f756e7420657863656564732062616c60448201527f616e6365000000000000000000000000000000000000000000000000000000006064820152fd5b600160a060020a03169283159190613f248315613e25565b613f2d82613def565b90613f3785613def565b95604093845195613f4787613748565b6000809752614054575b855b8451811015613fe957613f668186613ab0565b51613f71828b613ab0565b519080895260046020818152898b205492848410613fa2578b52528789209190039055613f9d90613a88565b613f53565b608483838d519160e560020a62461bcd0283528201526028602482015260008051602061419c83398151915260448201526000805160206141bc8339815191526064820152fd5b509196509150839493929381845283602052848420838552602052808585205461401582821015613e99565b8386528560205286862085875260205203858520558451918252602082015260008051602061417c833981519152843392a45161405181613748565b52565b9591908593955b86518110156140985780614072614093928b613ab0565b5161407d828a613ab0565b51875260046020526106b6888820918254613c1f565b61405b565b50909195949294613f51565b156140ab57565b608460405160e560020a62461bcd02815260206004820152602160248201527f455243313135353a206d696e7420746f20746865207a65726f2061646472657360448201527f73000000000000000000000000000000000000000000000000000000000000006064820152fd5b818110614123575050565b60008155600101614118565b614139815461390b565b9081614143575050565b81601f60009311600114614155575055565b6141719082845260016020601f81872093010482019101614118565b816020812091555556fec3d58168c5ae7397731d063d5bbf3d657854427343f4c083240f7aacaa2d0f62455243313135353a206275726e20616d6f756e74206578636565647320746f74616c537570706c79000000000000000000000000000000000000000000000000a26469706673582212205136d6973e65f48cd938855b413c407bc3b8f2137c52bff48156b09e943f081d64736f6c63430008110033",
			"opcodes": "PUSH1 0x80 CALLVALUE PUSH3 0x13F JUMPI PUSH1 0x20 DUP2 ADD DUP2 DUP2 LT PUSH8 0xFFFFFFFFFFFFFFFF DUP3 GT OR PUSH3 0x110 JUMPI PUSH1 0x40 MSTORE PUSH1 0x0 DUP1 SWAP2 MSTORE PUSH1 0x2 SLOAD PUSH1 0x2 DUP2 DIV PUSH1 0x1 DUP1 SWAP3 AND DUP1 ISZERO PUSH3 0x105 JUMPI JUMPDEST PUSH1 0x20 DUP3 LT EQ PUSH3 0xD8 JUMPI PUSH1 0x1F DUP2 GT PUSH3 0xAC JUMPI JUMPDEST PUSH1 0x2 DUP4 SWAP1 SSTORE PUSH1 0x3 DUP1 SLOAD CALLER PUSH1 0x1 PUSH1 0xA0 PUSH1 0x2 EXP SUB NOT DUP3 AND DUP2 OR SWAP1 SWAP3 SSTORE PUSH1 0x40 MLOAD SWAP2 DUP6 SWAP2 PUSH1 0x1 PUSH1 0xA0 PUSH1 0x2 EXP SUB AND PUSH32 0x8BE0079C531659141344CD1FD0A4F28419497F9722A3DAAFE3B4186F6B6457E0 DUP4 DUP1 LOG3 PUSH1 0x7 SSTORE PUSH2 0x4211 SWAP1 DUP2 PUSH3 0x145 DUP3 CODECOPY RETURN JUMPDEST PUSH1 0x2 DUP4 MSTORE PUSH1 0x20 PUSH1 0x1F DUP2 DUP6 KECCAK256 SWAP3 ADD DIV DUP2 ADD SWAP1 JUMPDEST DUP2 DUP2 LT PUSH3 0xCD JUMPI POP PUSH3 0x4F JUMP JUMPDEST DUP4 DUP2 SSTORE DUP3 ADD PUSH3 0xBE JUMP JUMPDEST PUSH1 0x24 DUP4 PUSH32 0x4E487B7100000000000000000000000000000000000000000000000000000000 DUP2 MSTORE PUSH1 0x22 PUSH1 0x4 MSTORE REVERT JUMPDEST SWAP1 PUSH1 0x7F AND SWAP1 PUSH3 0x3B JUMP JUMPDEST PUSH32 0x4E487B7100000000000000000000000000000000000000000000000000000000 PUSH1 0x0 MSTORE PUSH1 0x41 PUSH1 0x4 MSTORE PUSH1 0x24 PUSH1 0x0 REVERT JUMPDEST PUSH1 0x0 DUP1 REVERT INVALID PUSH1 0x80 PUSH1 0x40 MSTORE PUSH1 0x4 CALLDATASIZE LT ISZERO PUSH2 0x12 JUMPI PUSH1 0x0 DUP1 REVERT JUMPDEST PUSH29 0x100000000000000000000000000000000000000000000000000000000 PUSH1 0x0 CALLDATALOAD DIV DUP1 PUSH3 0xFDD58E EQ PUSH2 0x367A JUMPI DUP1 PUSH4 0x1FFC9A7 EQ PUSH2 0x35C0 JUMPI DUP1 PUSH4 0xE89341C EQ PUSH2 0x34DF JUMPI DUP1 PUSH4 0x1F7FDFFA EQ PUSH2 0x31B8 JUMPI DUP1 PUSH4 0x2EB2C2D6 EQ PUSH2 0x2DCC JUMPI DUP1 PUSH4 0x4CD0CB28 EQ PUSH2 0x2D1B JUMPI DUP1 PUSH4 0x4E1273F4 EQ PUSH2 0x2B67 JUMPI DUP1 PUSH4 0x4F558E79 EQ PUSH2 0x2B39 JUMPI DUP1 PUSH4 0x5880EF34 EQ PUSH2 0x2AAD JUMPI DUP1 PUSH4 0x5E6780AB EQ PUSH2 0x1D4B JUMPI DUP1 PUSH4 0x6B20C454 EQ PUSH2 0x1AEC JUMPI DUP1 PUSH4 0x715018A6 EQ PUSH2 0x1A98 JUMPI DUP1 PUSH4 0x731133E9 EQ PUSH2 0x17CB JUMPI DUP1 PUSH4 0x7F36671C EQ PUSH2 0xB2C JUMPI DUP1 PUSH4 0x8DA5CB5B EQ PUSH2 0xB05 JUMPI DUP1 PUSH4 0xA22CB465 EQ PUSH2 0xA0B JUMPI DUP1 PUSH4 0xBD85B039 EQ PUSH2 0x9DF JUMPI DUP1 PUSH4 0xBEE5CDCA EQ PUSH2 0x78A JUMPI DUP1 PUSH4 0xC6BDC0A2 EQ PUSH2 0x76C JUMPI DUP1 PUSH4 0xD19DE7AE EQ PUSH2 0x752 JUMPI DUP1 PUSH4 0xE985E9C5 EQ PUSH2 0x6FB JUMPI DUP1 PUSH4 0xF242432A EQ PUSH2 0x2DD JUMPI DUP1 PUSH4 0xF2FDE38B EQ PUSH2 0x202 JUMPI DUP1 PUSH4 0xF5298ACA EQ PUSH2 0x1A5 JUMPI PUSH4 0xFBA23E41 EQ PUSH2 0x14A JUMPI PUSH1 0x0 DUP1 REVERT JUMPDEST CALLVALUE PUSH2 0x1A0 JUMPI PUSH1 0x80 CALLDATASIZE PUSH1 0x3 NOT ADD SLT PUSH2 0x1A0 JUMPI PUSH2 0x163 PUSH2 0x36A9 JUMP JUMPDEST PUSH2 0x16B PUSH2 0x36BF JUMP JUMPDEST PUSH1 0x40 MLOAD SWAP1 PUSH1 0x44 CALLDATALOAD DUP3 MSTORE PUSH1 0x64 CALLDATALOAD PUSH1 0x20 DUP4 ADD MSTORE PUSH1 0x1 PUSH1 0xA0 PUSH1 0x2 EXP SUB DUP1 SWAP2 AND SWAP3 AND SWAP1 PUSH1 0x0 DUP1 MLOAD PUSH1 0x20 PUSH2 0x417C DUP4 CODECOPY DUP2 MLOAD SWAP2 MSTORE PUSH1 0x40 CALLER SWAP3 LOG4 STOP JUMPDEST PUSH1 0x0 DUP1 REVERT JUMPDEST CALLVALUE PUSH2 0x1A0 JUMPI PUSH2 0x1DA PUSH2 0x1B6 CALLDATASIZE PUSH2 0x3886 JUMP JUMPDEST SWAP2 PUSH1 0x1 PUSH1 0xA0 PUSH1 0x2 EXP SUB DUP2 AND CALLER DUP2 EQ DUP1 ISZERO PUSH2 0x1DC JUMPI JUMPDEST PUSH2 0x1D5 SWAP2 POP PUSH2 0x3AC3 JUMP JUMPDEST PUSH2 0x3F0C JUMP JUMPDEST STOP JUMPDEST POP PUSH1 0x0 MSTORE PUSH1 0x1 PUSH1 0x20 MSTORE PUSH1 0x40 PUSH1 0x0 KECCAK256 CALLER PUSH1 0x0 MSTORE PUSH1 0x20 MSTORE PUSH2 0x1D5 PUSH1 0xFF PUSH1 0x40 PUSH1 0x0 KECCAK256 SLOAD AND PUSH2 0x1CB JUMP JUMPDEST CALLVALUE PUSH2 0x1A0 JUMPI PUSH1 0x20 CALLDATASIZE PUSH1 0x3 NOT ADD SLT PUSH2 0x1A0 JUMPI PUSH2 0x21B PUSH2 0x36A9 JUMP JUMPDEST PUSH2 0x223 PUSH2 0x38B0 JUMP JUMPDEST PUSH1 0x1 PUSH1 0xA0 PUSH1 0x2 EXP SUB DUP1 SWAP2 AND SWAP1 DUP2 ISZERO PUSH2 0x270 JUMPI PUSH1 0x3 SLOAD DUP3 PUSH1 0x1 PUSH1 0xA0 PUSH1 0x2 EXP SUB NOT DUP3 AND OR PUSH1 0x3 SSTORE AND PUSH32 0x8BE0079C531659141344CD1FD0A4F28419497F9722A3DAAFE3B4186F6B6457E0 PUSH1 0x0 DUP1 LOG3 STOP JUMPDEST PUSH1 0x84 PUSH1 0x40 MLOAD PUSH1 0xE5 PUSH1 0x2 EXP PUSH3 0x461BCD MUL DUP2 MSTORE PUSH1 0x20 PUSH1 0x4 DUP3 ADD MSTORE PUSH1 0x26 PUSH1 0x24 DUP3 ADD MSTORE PUSH32 0x4F776E61626C653A206E6577206F776E657220697320746865207A65726F2061 PUSH1 0x44 DUP3 ADD MSTORE PUSH32 0x6464726573730000000000000000000000000000000000000000000000000000 PUSH1 0x64 DUP3 ADD MSTORE REVERT JUMPDEST CALLVALUE PUSH2 0x1A0 JUMPI PUSH1 0xA0 CALLDATASIZE PUSH1 0x3 NOT ADD SLT PUSH2 0x1A0 JUMPI PUSH2 0x2F6 PUSH2 0x36A9 JUMP JUMPDEST PUSH2 0x2FE PUSH2 0x36BF JUMP JUMPDEST SWAP1 PUSH1 0x84 DUP1 CALLDATALOAD PUSH8 0xFFFFFFFFFFFFFFFF DUP2 GT PUSH2 0x1A0 JUMPI PUSH2 0x320 SWAP1 CALLDATASIZE SWAP1 PUSH1 0x4 ADD PUSH2 0x37FB JUMP JUMPDEST SWAP1 PUSH1 0x1 PUSH1 0xA0 PUSH1 0x2 EXP SUB SWAP2 CALLER DUP4 DUP6 AND EQ DUP1 ISZERO PUSH2 0x6D0 JUMPI JUMPDEST PUSH2 0x33F SWAP1 PUSH2 0x3AC3 JUMP JUMPDEST DUP3 DUP6 AND ISZERO PUSH2 0x34D DUP2 ISZERO PUSH2 0x3B37 JUMP JUMPDEST PUSH2 0x358 PUSH1 0x44 CALLDATALOAD PUSH2 0x3DEF JUMP JUMPDEST PUSH2 0x363 PUSH1 0x64 CALLDATALOAD PUSH2 0x3DEF JUMP JUMPDEST SWAP2 DUP6 DUP8 AND ISZERO PUSH2 0x670 JUMPI JUMPDEST PUSH2 0x5BD JUMPI JUMPDEST POP POP PUSH1 0x44 CALLDATALOAD PUSH1 0x0 MSTORE PUSH1 0x20 SWAP5 PUSH1 0x0 DUP7 MSTORE PUSH1 0x40 PUSH1 0x0 KECCAK256 DUP5 DUP7 AND PUSH1 0x0 MSTORE DUP7 MSTORE PUSH1 0x40 PUSH1 0x0 KECCAK256 SLOAD PUSH2 0x3A2 PUSH1 0x64 CALLDATALOAD DUP3 LT ISZERO PUSH2 0x3BAB JUMP JUMPDEST PUSH1 0x44 CALLDATALOAD PUSH1 0x0 MSTORE PUSH1 0x0 DUP8 MSTORE PUSH1 0x40 PUSH1 0x0 KECCAK256 DUP6 DUP8 AND PUSH1 0x0 MSTORE DUP8 MSTORE PUSH1 0x64 CALLDATALOAD SWAP1 SUB PUSH1 0x40 PUSH1 0x0 KECCAK256 SSTORE PUSH1 0x44 CALLDATALOAD PUSH1 0x0 MSTORE PUSH1 0x0 DUP7 MSTORE PUSH1 0x40 PUSH1 0x0 KECCAK256 DUP5 DUP3 AND PUSH1 0x0 MSTORE DUP7 MSTORE PUSH1 0x40 PUSH1 0x0 KECCAK256 PUSH2 0x3ED PUSH1 0x64 CALLDATALOAD DUP3 SLOAD PUSH2 0x3C1F JUMP JUMPDEST SWAP1 SSTORE PUSH1 0x40 MLOAD PUSH1 0x44 CALLDATALOAD DUP2 MSTORE PUSH1 0x64 CALLDATALOAD DUP8 DUP3 ADD MSTORE DUP5 DUP3 AND SWAP1 DUP6 DUP8 AND SWAP1 PUSH1 0x0 DUP1 MLOAD PUSH1 0x20 PUSH2 0x417C DUP4 CODECOPY DUP2 MLOAD SWAP2 MSTORE PUSH1 0x40 CALLER SWAP3 LOG4 DUP1 EXTCODESIZE PUSH2 0x422 JUMPI STOP JUMPDEST PUSH1 0xA0 PUSH1 0x0 PUSH2 0x485 SWAP6 DUP9 SWAP6 PUSH1 0x40 MLOAD SWAP8 DUP9 SWAP7 DUP8 SWAP6 DUP7 SWAP4 DUP6 PUSH32 0xF23A6E6100000000000000000000000000000000000000000000000000000000 SWAP14 DUP15 DUP8 MSTORE CALLER PUSH1 0x4 DUP9 ADD MSTORE AND PUSH1 0x24 DUP7 ADD MSTORE PUSH1 0x44 CALLDATALOAD PUSH1 0x44 DUP7 ADD MSTORE PUSH1 0x64 CALLDATALOAD PUSH1 0x64 DUP7 ADD MSTORE DUP5 ADD MSTORE PUSH1 0xA4 DUP4 ADD SWAP1 PUSH2 0x36EB JUMP JUMPDEST SUB SWAP4 AND GAS CALL PUSH1 0x0 SWAP2 DUP2 PUSH2 0x58E JUMPI JUMPDEST POP PUSH2 0x561 JUMPI POP POP PUSH1 0x1 SWAP1 PUSH2 0x4A5 PUSH2 0x3D46 JUMP JUMPDEST PUSH4 0x8C379A0 EQ PUSH2 0x529 JUMPI JUMPDEST POP PUSH2 0x4B7 JUMPI STOP JUMPDEST PUSH1 0x40 MLOAD PUSH1 0xE5 PUSH1 0x2 EXP PUSH3 0x461BCD MUL DUP2 MSTORE PUSH1 0x20 PUSH1 0x4 DUP3 ADD MSTORE PUSH1 0x34 PUSH1 0x24 DUP3 ADD MSTORE PUSH32 0x455243313135353A207472616E7366657220746F206E6F6E2D45524331313535 PUSH1 0x44 DUP3 ADD MSTORE PUSH32 0x526563656976657220696D706C656D656E746572000000000000000000000000 PUSH1 0x64 DUP3 ADD MSTORE PUSH1 0x84 SWAP1 REVERT JUMPDEST SUB SWAP1 REVERT JUMPDEST PUSH2 0x531 PUSH2 0x3D80 JUMP JUMPDEST SWAP1 DUP2 PUSH2 0x53D JUMPI POP PUSH2 0x4B0 JUMP JUMPDEST PUSH2 0x525 PUSH1 0x40 MLOAD SWAP3 DUP4 SWAP3 PUSH1 0xE5 PUSH1 0x2 EXP PUSH3 0x461BCD MUL DUP5 MSTORE PUSH1 0x4 DUP5 ADD MSTORE PUSH1 0x24 DUP4 ADD SWAP1 PUSH2 0x36EB JUMP JUMPDEST PUSH1 0x1 PUSH1 0xE0 PUSH1 0x2 EXP SUB NOT AND EQ SWAP1 POP PUSH2 0x1DA JUMPI PUSH1 0x40 MLOAD PUSH1 0xE5 PUSH1 0x2 EXP PUSH3 0x461BCD MUL DUP2 MSTORE DUP1 PUSH2 0x525 PUSH1 0x4 DUP3 ADD PUSH2 0x3CE8 JUMP JUMPDEST PUSH2 0x5AF SWAP2 SWAP3 POP DUP5 RETURNDATASIZE DUP7 GT PUSH2 0x5B6 JUMPI JUMPDEST PUSH2 0x5A7 DUP2 DUP4 PUSH2 0x3764 JUMP JUMPDEST DUP2 ADD SWAP1 PUSH2 0x3CC8 JUMP JUMPDEST SWAP1 DUP5 PUSH2 0x493 JUMP JUMPDEST POP RETURNDATASIZE PUSH2 0x59D JUMP JUMPDEST SWAP3 SWAP6 SWAP2 SWAP5 SWAP1 SWAP4 PUSH1 0x0 JUMPDEST DUP5 MLOAD DUP2 LT ISZERO PUSH2 0x661 JUMPI PUSH2 0x5D9 DUP2 DUP7 PUSH2 0x3AB0 JUMP JUMPDEST MLOAD SWAP1 PUSH2 0x5E5 DUP2 DUP9 PUSH2 0x3AB0 JUMP JUMPDEST MLOAD DUP3 PUSH1 0x0 MSTORE PUSH1 0x4 PUSH1 0x20 MSTORE PUSH1 0x40 PUSH1 0x0 KECCAK256 SLOAD DUP2 DUP2 LT PUSH2 0x619 JUMPI PUSH2 0x614 SWAP4 PUSH1 0x0 MSTORE PUSH1 0x4 PUSH1 0x20 MSTORE SUB PUSH1 0x40 PUSH1 0x0 KECCAK256 SSTORE PUSH2 0x3A88 JUMP JUMPDEST PUSH2 0x5C6 JUMP JUMPDEST DUP11 PUSH1 0x40 MLOAD PUSH1 0xE5 PUSH1 0x2 EXP PUSH3 0x461BCD MUL DUP2 MSTORE PUSH1 0x20 PUSH1 0x4 DUP3 ADD MSTORE PUSH1 0x28 PUSH1 0x24 DUP3 ADD MSTORE PUSH1 0x0 DUP1 MLOAD PUSH1 0x20 PUSH2 0x419C DUP4 CODECOPY DUP2 MLOAD SWAP2 MSTORE PUSH1 0x44 DUP3 ADD MSTORE PUSH1 0x0 DUP1 MLOAD PUSH1 0x20 PUSH2 0x41BC DUP4 CODECOPY DUP2 MLOAD SWAP2 MSTORE PUSH1 0x64 DUP3 ADD MSTORE REVERT JUMPDEST POP SWAP4 POP SWAP4 SWAP1 SWAP5 SWAP2 POP DUP6 DUP1 PUSH2 0x372 JUMP JUMPDEST SWAP6 SWAP3 PUSH1 0x0 SWAP8 SWAP5 SWAP2 SWAP6 SWAP3 SWAP8 JUMPDEST DUP7 MLOAD DUP2 LT ISZERO PUSH2 0x6C2 JUMPI DUP1 PUSH2 0x692 PUSH2 0x6BD SWAP3 DUP12 PUSH2 0x3AB0 JUMP JUMPDEST MLOAD PUSH2 0x69D DUP3 DUP11 PUSH2 0x3AB0 JUMP JUMPDEST MLOAD PUSH1 0x0 MSTORE PUSH1 0x4 PUSH1 0x20 MSTORE PUSH2 0x6B6 PUSH1 0x40 PUSH1 0x0 KECCAK256 SWAP2 DUP3 SLOAD PUSH2 0x3C1F JUMP JUMPDEST SWAP1 SSTORE PUSH2 0x3A88 JUMP JUMPDEST PUSH2 0x67B JUMP JUMPDEST POP SWAP3 SWAP6 SWAP7 SWAP2 SWAP5 SWAP1 SWAP4 SWAP7 PUSH2 0x36D JUMP JUMPDEST POP DUP3 DUP5 AND PUSH1 0x0 MSTORE PUSH1 0x1 PUSH1 0x20 MSTORE PUSH1 0x40 PUSH1 0x0 KECCAK256 CALLER PUSH1 0x0 MSTORE PUSH1 0x20 MSTORE PUSH2 0x33F PUSH1 0xFF PUSH1 0x40 PUSH1 0x0 KECCAK256 SLOAD AND SWAP1 POP PUSH2 0x336 JUMP JUMPDEST CALLVALUE PUSH2 0x1A0 JUMPI PUSH1 0x40 CALLDATASIZE PUSH1 0x3 NOT ADD SLT PUSH2 0x1A0 JUMPI PUSH2 0x714 PUSH2 0x36A9 JUMP JUMPDEST PUSH2 0x71C PUSH2 0x36BF JUMP JUMPDEST SWAP1 PUSH1 0x1 PUSH1 0xA0 PUSH1 0x2 EXP SUB DUP1 SWAP2 AND PUSH1 0x0 MSTORE PUSH1 0x1 PUSH1 0x20 MSTORE PUSH1 0x40 PUSH1 0x0 KECCAK256 SWAP2 AND PUSH1 0x0 MSTORE PUSH1 0x20 MSTORE PUSH1 0x20 PUSH1 0xFF PUSH1 0x40 PUSH1 0x0 KECCAK256 SLOAD AND PUSH1 0x40 MLOAD SWAP1 ISZERO ISZERO DUP2 MSTORE RETURN JUMPDEST CALLVALUE PUSH2 0x1A0 JUMPI PUSH2 0x1DA PUSH2 0x763 CALLDATASIZE PUSH2 0x3886 JUMP JUMPDEST SWAP2 PUSH2 0x1D5 PUSH2 0x38B0 JUMP JUMPDEST CALLVALUE PUSH2 0x1A0 JUMPI PUSH1 0x0 CALLDATASIZE PUSH1 0x3 NOT ADD SLT PUSH2 0x1A0 JUMPI PUSH1 0x20 PUSH1 0x6 SLOAD PUSH1 0x40 MLOAD SWAP1 DUP2 MSTORE RETURN JUMPDEST CALLVALUE PUSH2 0x1A0 JUMPI PUSH1 0x20 CALLDATASIZE PUSH1 0x3 NOT ADD SLT PUSH2 0x1A0 JUMPI PUSH1 0x4 CALLDATALOAD PUSH1 0x0 MSTORE PUSH1 0x5 PUSH1 0x20 MSTORE PUSH1 0x40 PUSH1 0x0 KECCAK256 PUSH1 0x40 MLOAD SWAP1 PUSH2 0x7B8 DUP3 PUSH2 0x372B JUMP JUMPDEST DUP1 SLOAD DUP3 MSTORE PUSH1 0x1 DUP2 ADD SLOAD PUSH1 0x1 PUSH1 0xA0 PUSH1 0x2 EXP SUB AND PUSH1 0x20 DUP4 ADD MSTORE PUSH1 0x2 DUP2 ADD SLOAD PUSH1 0x1 PUSH1 0xA0 PUSH1 0x2 EXP SUB AND PUSH1 0x40 DUP4 ADD MSTORE PUSH1 0x3 DUP2 ADD SLOAD PUSH1 0x1 PUSH1 0xA0 PUSH1 0x2 EXP SUB AND PUSH1 0x60 DUP4 ADD MSTORE PUSH1 0x4 DUP2 ADD PUSH2 0x802 SWAP1 PUSH2 0x3949 JUMP JUMPDEST PUSH1 0x80 DUP4 ADD MSTORE PUSH2 0x813 PUSH1 0x5 DUP3 ADD PUSH2 0x3949 JUMP JUMPDEST PUSH1 0xA0 DUP4 ADD MSTORE PUSH2 0x824 PUSH1 0x6 DUP3 ADD PUSH2 0x3949 JUMP JUMPDEST PUSH1 0xC0 DUP4 ADD MSTORE PUSH2 0x835 PUSH1 0x7 DUP3 ADD PUSH2 0x3949 JUMP JUMPDEST PUSH1 0xE0 DUP4 ADD MSTORE PUSH2 0x846 PUSH1 0x8 DUP3 ADD PUSH2 0x3949 JUMP JUMPDEST PUSH2 0x100 DUP4 ADD MSTORE PUSH2 0x858 PUSH1 0x9 DUP3 ADD PUSH2 0x3949 JUMP JUMPDEST PUSH2 0x120 DUP4 ADD MSTORE PUSH2 0x86A PUSH1 0xA DUP3 ADD PUSH2 0x3949 JUMP JUMPDEST PUSH2 0x140 DUP4 ADD MSTORE PUSH2 0x87C PUSH1 0xB DUP3 ADD PUSH2 0x3949 JUMP JUMPDEST PUSH2 0x160 DUP4 ADD MSTORE PUSH2 0x88E PUSH1 0xC DUP3 ADD PUSH2 0x3949 JUMP JUMPDEST PUSH2 0x180 DUP4 ADD MSTORE PUSH1 0xD ADD PUSH2 0x8A0 SWAP1 PUSH2 0x3949 JUMP JUMPDEST DUP1 PUSH2 0x1A0 DUP4 ADD MSTORE DUP2 MLOAD SWAP1 PUSH1 0x80 DUP4 ADD MLOAD SWAP2 PUSH1 0x20 DUP5 ADD MLOAD PUSH1 0x1 PUSH1 0xA0 PUSH1 0x2 EXP SUB AND SWAP4 PUSH1 0x40 DUP2 ADD MLOAD PUSH1 0x1 PUSH1 0xA0 PUSH1 0x2 EXP SUB AND SWAP2 PUSH1 0x60 DUP3 ADD MLOAD PUSH1 0x1 PUSH1 0xA0 PUSH1 0x2 EXP SUB AND SWAP1 PUSH1 0xA0 DUP4 ADD MLOAD PUSH1 0xC0 DUP5 ADD MLOAD PUSH1 0xE0 DUP6 ADD MLOAD SWAP1 PUSH2 0x100 DUP7 ADD MLOAD SWAP3 PUSH2 0x120 DUP8 ADD MLOAD SWAP5 PUSH2 0x140 DUP9 ADD MLOAD SWAP7 PUSH2 0x160 DUP10 ADD MLOAD SWAP9 PUSH2 0x180 ADD MLOAD SWAP10 PUSH1 0x40 MLOAD SWAP14 DUP15 SWAP14 DUP15 SWAP5 DUP6 MSTORE PUSH2 0x1C0 DUP1 PUSH1 0x20 DUP8 ADD MSTORE DUP6 ADD PUSH2 0x92D SWAP2 PUSH2 0x36EB JUMP JUMPDEST SWAP4 PUSH1 0x40 ADD MSTORE PUSH1 0x60 DUP14 ADD MSTORE PUSH1 0x80 DUP13 ADD MSTORE DUP11 DUP2 SUB PUSH1 0xA0 DUP13 ADD MSTORE PUSH2 0x94D SWAP2 PUSH2 0x36EB JUMP JUMPDEST DUP10 DUP2 SUB PUSH1 0xC0 DUP12 ADD MSTORE PUSH2 0x95E SWAP2 PUSH2 0x36EB JUMP JUMPDEST DUP9 DUP2 SUB PUSH1 0xE0 DUP11 ADD MSTORE PUSH2 0x96F SWAP2 PUSH2 0x36EB JUMP JUMPDEST DUP8 DUP2 SUB PUSH2 0x100 DUP10 ADD MSTORE PUSH2 0x981 SWAP2 PUSH2 0x36EB JUMP JUMPDEST DUP7 DUP2 SUB PUSH2 0x120 DUP9 ADD MSTORE PUSH2 0x993 SWAP2 PUSH2 0x36EB JUMP JUMPDEST DUP6 DUP2 SUB PUSH2 0x140 DUP8 ADD MSTORE PUSH2 0x9A5 SWAP2 PUSH2 0x36EB JUMP JUMPDEST DUP5 DUP2 SUB PUSH2 0x160 DUP7 ADD MSTORE PUSH2 0x9B7 SWAP2 PUSH2 0x36EB JUMP JUMPDEST DUP4 DUP2 SUB PUSH2 0x180 DUP6 ADD MSTORE PUSH2 0x9C9 SWAP2 PUSH2 0x36EB JUMP JUMPDEST DUP3 DUP2 SUB PUSH2 0x1A0 DUP5 ADD MSTORE PUSH2 0x9DB SWAP2 PUSH2 0x36EB JUMP JUMPDEST SUB SWAP1 RETURN JUMPDEST CALLVALUE PUSH2 0x1A0 JUMPI PUSH1 0x20 CALLDATASIZE PUSH1 0x3 NOT ADD SLT PUSH2 0x1A0 JUMPI PUSH1 0x4 CALLDATALOAD PUSH1 0x0 MSTORE PUSH1 0x4 PUSH1 0x20 MSTORE PUSH1 0x20 PUSH1 0x40 PUSH1 0x0 KECCAK256 SLOAD PUSH1 0x40 MLOAD SWAP1 DUP2 MSTORE RETURN JUMPDEST CALLVALUE PUSH2 0x1A0 JUMPI PUSH1 0x40 CALLDATASIZE PUSH1 0x3 NOT ADD SLT PUSH2 0x1A0 JUMPI PUSH2 0xA24 PUSH2 0x36A9 JUMP JUMPDEST PUSH1 0x24 CALLDATALOAD SWAP1 DUP2 ISZERO ISZERO DUP1 SWAP3 SUB PUSH2 0x1A0 JUMPI PUSH1 0x1 PUSH1 0xA0 PUSH1 0x2 EXP SUB AND SWAP1 DUP2 CALLER EQ PUSH2 0xA98 JUMPI CALLER PUSH1 0x0 MSTORE PUSH1 0x1 PUSH1 0x20 MSTORE PUSH1 0x40 PUSH1 0x0 KECCAK256 DUP3 PUSH1 0x0 MSTORE PUSH1 0x20 MSTORE PUSH1 0x40 PUSH1 0x0 KECCAK256 PUSH1 0xFF NOT DUP2 SLOAD AND PUSH1 0xFF DUP4 AND OR SWAP1 SSTORE PUSH1 0x40 MLOAD SWAP1 DUP2 MSTORE PUSH32 0x17307EAB39AB6107E8899845AD3D59BD9653F200F220920489CA2B5937696C31 PUSH1 0x20 CALLER SWAP3 LOG3 STOP JUMPDEST PUSH1 0x84 PUSH1 0x40 MLOAD PUSH1 0xE5 PUSH1 0x2 EXP PUSH3 0x461BCD MUL DUP2 MSTORE PUSH1 0x20 PUSH1 0x4 DUP3 ADD MSTORE PUSH1 0x29 PUSH1 0x24 DUP3 ADD MSTORE PUSH32 0x455243313135353A2073657474696E6720617070726F76616C20737461747573 PUSH1 0x44 DUP3 ADD MSTORE PUSH32 0x20666F722073656C660000000000000000000000000000000000000000000000 PUSH1 0x64 DUP3 ADD MSTORE REVERT JUMPDEST CALLVALUE PUSH2 0x1A0 JUMPI PUSH1 0x0 CALLDATASIZE PUSH1 0x3 NOT ADD SLT PUSH2 0x1A0 JUMPI PUSH1 0x20 PUSH1 0x1 PUSH1 0xA0 PUSH1 0x2 EXP SUB PUSH1 0x3 SLOAD AND PUSH1 0x40 MLOAD SWAP1 DUP2 MSTORE RETURN JUMPDEST CALLVALUE PUSH2 0x1A0 JUMPI PUSH2 0x1C0 CALLDATASIZE PUSH1 0x3 NOT ADD SLT PUSH2 0x1A0 JUMPI PUSH1 0x24 CALLDATALOAD PUSH8 0xFFFFFFFFFFFFFFFF DUP2 GT PUSH2 0x1A0 JUMPI PUSH2 0xB5E SWAP1 CALLDATASIZE SWAP1 PUSH1 0x4 ADD PUSH2 0x37FB JUMP JUMPDEST PUSH2 0xB66 PUSH2 0x36D5 JUMP JUMPDEST PUSH1 0x64 CALLDATALOAD SWAP2 PUSH1 0x1 PUSH1 0xA0 PUSH1 0x2 EXP SUB DUP4 AND DUP4 SUB PUSH2 0x1A0 JUMPI PUSH1 0x84 CALLDATALOAD PUSH1 0x1 PUSH1 0xA0 PUSH1 0x2 EXP SUB DUP2 AND DUP2 SUB PUSH2 0x1A0 JUMPI PUSH1 0xA4 CALLDATALOAD PUSH8 0xFFFFFFFFFFFFFFFF DUP2 GT PUSH2 0x1A0 JUMPI PUSH2 0xBAD SWAP1 CALLDATASIZE SWAP1 PUSH1 0x4 ADD PUSH2 0x37FB JUMP JUMPDEST PUSH1 0xC4 CALLDATALOAD PUSH8 0xFFFFFFFFFFFFFFFF DUP2 GT PUSH2 0x1A0 JUMPI PUSH2 0xBCD SWAP1 CALLDATASIZE SWAP1 PUSH1 0x4 ADD PUSH2 0x37FB JUMP JUMPDEST PUSH1 0xE4 CALLDATALOAD PUSH8 0xFFFFFFFFFFFFFFFF DUP2 GT PUSH2 0x1A0 JUMPI PUSH2 0xBED SWAP1 CALLDATASIZE SWAP1 PUSH1 0x4 ADD PUSH2 0x37FB JUMP JUMPDEST PUSH2 0x104 CALLDATALOAD PUSH8 0xFFFFFFFFFFFFFFFF DUP2 GT PUSH2 0x1A0 JUMPI PUSH2 0xC0E SWAP1 CALLDATASIZE SWAP1 PUSH1 0x4 ADD PUSH2 0x37FB JUMP JUMPDEST SWAP1 PUSH2 0x124 CALLDATALOAD PUSH8 0xFFFFFFFFFFFFFFFF DUP2 GT PUSH2 0x1A0 JUMPI PUSH2 0xC30 SWAP1 CALLDATASIZE SWAP1 PUSH1 0x4 ADD PUSH2 0x37FB JUMP JUMPDEST SWAP3 PUSH2 0x144 CALLDATALOAD PUSH8 0xFFFFFFFFFFFFFFFF DUP2 GT PUSH2 0x1A0 JUMPI PUSH2 0xC52 SWAP1 CALLDATASIZE SWAP1 PUSH1 0x4 ADD PUSH2 0x37FB JUMP JUMPDEST SWAP5 PUSH8 0xFFFFFFFFFFFFFFFF PUSH2 0x164 CALLDATALOAD GT PUSH2 0x1A0 JUMPI PUSH2 0xC75 CALLDATASIZE PUSH2 0x164 CALLDATALOAD PUSH1 0x4 ADD PUSH2 0x37FB JUMP JUMPDEST SWAP7 PUSH2 0x184 CALLDATALOAD PUSH8 0xFFFFFFFFFFFFFFFF DUP2 GT PUSH2 0x1A0 JUMPI PUSH2 0xC97 SWAP1 CALLDATASIZE SWAP1 PUSH1 0x4 ADD PUSH2 0x37FB JUMP JUMPDEST SWAP11 PUSH8 0xFFFFFFFFFFFFFFFF PUSH2 0x1A4 CALLDATALOAD GT PUSH2 0x1A0 JUMPI PUSH2 0xCBA CALLDATASIZE PUSH2 0x1A4 CALLDATALOAD PUSH1 0x4 ADD PUSH2 0x37FB JUMP JUMPDEST SWAP11 PUSH1 0x4 CALLDATALOAD PUSH1 0x0 MSTORE PUSH1 0x5 PUSH1 0x20 MSTORE PUSH1 0x40 PUSH1 0x0 KECCAK256 SWAP11 DUP1 MLOAD SWAP1 PUSH8 0xFFFFFFFFFFFFFFFF DUP3 GT PUSH2 0x1162 JUMPI DUP13 DUP3 SWAP2 PUSH2 0xCEE PUSH1 0x4 DUP4 ADD SLOAD PUSH2 0x390B JUMP JUMPDEST PUSH1 0x1F DUP2 GT PUSH2 0x1795 JUMPI JUMPDEST POP PUSH1 0x20 SWAP2 PUSH1 0x1F DUP5 GT PUSH1 0x1 EQ PUSH2 0x1724 JUMPI POP PUSH1 0x0 SWAP3 PUSH2 0x1719 JUMPI JUMPDEST POP POP DUP2 PUSH1 0x2 MUL SWAP2 PUSH1 0x8 MUL PUSH1 0x2 EXP PUSH1 0x0 NOT DIV NOT AND OR PUSH1 0x4 DUP13 ADD SSTORE JUMPDEST PUSH1 0x1 PUSH1 0xA0 PUSH1 0x2 EXP SUB PUSH1 0x1 DUP13 ADD SWAP2 AND PUSH1 0x1 PUSH1 0xA0 PUSH1 0x2 EXP SUB NOT DUP3 SLOAD AND OR SWAP1 SSTORE PUSH1 0x1 PUSH1 0xA0 PUSH1 0x2 EXP SUB PUSH1 0x2 DUP12 ADD SWAP2 AND PUSH1 0x1 PUSH1 0xA0 PUSH1 0x2 EXP SUB NOT DUP3 SLOAD AND OR SWAP1 SSTORE PUSH1 0x1 PUSH1 0xA0 PUSH1 0x2 EXP SUB PUSH1 0x3 DUP11 ADD SWAP2 AND PUSH1 0x1 PUSH1 0xA0 PUSH1 0x2 EXP SUB NOT DUP3 SLOAD AND OR SWAP1 SSTORE DUP1 MLOAD SWAP1 PUSH8 0xFFFFFFFFFFFFFFFF DUP3 GT PUSH2 0x1162 JUMPI DUP2 SWAP1 PUSH2 0xDA1 PUSH1 0x5 DUP12 ADD SLOAD PUSH2 0x390B JUMP JUMPDEST PUSH1 0x1F DUP2 GT PUSH2 0x16E3 JUMPI JUMPDEST POP PUSH1 0x20 SWAP1 PUSH1 0x1F DUP4 GT PUSH1 0x1 EQ PUSH2 0x166F JUMPI PUSH1 0x0 SWAP3 PUSH2 0x1664 JUMPI JUMPDEST POP POP DUP2 PUSH1 0x2 MUL SWAP2 PUSH1 0x8 MUL PUSH1 0x2 EXP PUSH1 0x0 NOT DIV NOT AND OR PUSH1 0x5 DUP9 ADD SSTORE JUMPDEST DUP1 MLOAD SWAP1 PUSH8 0xFFFFFFFFFFFFFFFF DUP3 GT PUSH2 0x1162 JUMPI DUP2 SWAP1 PUSH2 0xDFC PUSH1 0x6 DUP11 ADD SLOAD PUSH2 0x390B JUMP JUMPDEST PUSH1 0x1F DUP2 GT PUSH2 0x162E JUMPI JUMPDEST POP PUSH1 0x20 SWAP1 PUSH1 0x1F DUP4 GT PUSH1 0x1 EQ PUSH2 0x15BA JUMPI PUSH1 0x0 SWAP3 PUSH2 0x15AF JUMPI JUMPDEST POP POP DUP2 PUSH1 0x2 MUL SWAP2 PUSH1 0x8 MUL PUSH1 0x2 EXP PUSH1 0x0 NOT DIV NOT AND OR PUSH1 0x6 DUP8 ADD SSTORE JUMPDEST DUP1 MLOAD SWAP1 PUSH8 0xFFFFFFFFFFFFFFFF DUP3 GT PUSH2 0x1162 JUMPI DUP2 SWAP1 PUSH2 0xE57 PUSH1 0x7 DUP10 ADD SLOAD PUSH2 0x390B JUMP JUMPDEST PUSH1 0x1F DUP2 GT PUSH2 0x1579 JUMPI JUMPDEST POP PUSH1 0x20 SWAP1 PUSH1 0x1F DUP4 GT PUSH1 0x1 EQ PUSH2 0x1505 JUMPI PUSH1 0x0 SWAP3 PUSH2 0x14FA JUMPI JUMPDEST POP POP DUP2 PUSH1 0x2 MUL SWAP2 PUSH1 0x8 MUL PUSH1 0x2 EXP PUSH1 0x0 NOT DIV NOT AND OR PUSH1 0x7 DUP7 ADD SSTORE JUMPDEST DUP1 MLOAD SWAP1 PUSH8 0xFFFFFFFFFFFFFFFF DUP3 GT PUSH2 0x1162 JUMPI DUP2 SWAP1 PUSH2 0xEB2 PUSH1 0x8 DUP9 ADD SLOAD PUSH2 0x390B JUMP JUMPDEST PUSH1 0x1F DUP2 GT PUSH2 0x14C4 JUMPI JUMPDEST POP PUSH1 0x20 SWAP1 PUSH1 0x1F DUP4 GT PUSH1 0x1 EQ PUSH2 0x1450 JUMPI PUSH1 0x0 SWAP3 PUSH2 0x1445 JUMPI JUMPDEST POP POP DUP2 PUSH1 0x2 MUL SWAP2 PUSH1 0x8 MUL PUSH1 0x2 EXP PUSH1 0x0 NOT DIV NOT AND OR PUSH1 0x8 DUP6 ADD SSTORE JUMPDEST DUP1 MLOAD SWAP1 PUSH8 0xFFFFFFFFFFFFFFFF DUP3 GT PUSH2 0x1162 JUMPI DUP2 SWAP1 PUSH2 0xF0D PUSH1 0x9 DUP8 ADD SLOAD PUSH2 0x390B JUMP JUMPDEST PUSH1 0x1F DUP2 GT PUSH2 0x140F JUMPI JUMPDEST POP PUSH1 0x20 SWAP1 PUSH1 0x1F DUP4 GT PUSH1 0x1 EQ PUSH2 0x139B JUMPI PUSH1 0x0 SWAP3 PUSH2 0x1390 JUMPI JUMPDEST POP POP DUP2 PUSH1 0x2 MUL SWAP2 PUSH1 0x8 MUL PUSH1 0x2 EXP PUSH1 0x0 NOT DIV NOT AND OR PUSH1 0x9 DUP5 ADD SSTORE JUMPDEST DUP1 MLOAD SWAP1 PUSH8 0xFFFFFFFFFFFFFFFF DUP3 GT PUSH2 0x1162 JUMPI DUP2 SWAP1 PUSH2 0xF68 PUSH1 0xA DUP7 ADD SLOAD PUSH2 0x390B JUMP JUMPDEST PUSH1 0x1F DUP2 GT PUSH2 0x135A JUMPI JUMPDEST POP PUSH1 0x20 SWAP1 PUSH1 0x1F DUP4 GT PUSH1 0x1 EQ PUSH2 0x12E6 JUMPI PUSH1 0x0 SWAP3 PUSH2 0x12DB JUMPI JUMPDEST POP POP DUP2 PUSH1 0x2 MUL SWAP2 PUSH1 0x8 MUL PUSH1 0x2 EXP PUSH1 0x0 NOT DIV NOT AND OR PUSH1 0xA DUP4 ADD SSTORE JUMPDEST DUP1 MLOAD SWAP1 PUSH8 0xFFFFFFFFFFFFFFFF DUP3 GT PUSH2 0x1162 JUMPI DUP2 SWAP1 PUSH2 0xFC3 PUSH1 0xB DUP6 ADD SLOAD PUSH2 0x390B JUMP JUMPDEST PUSH1 0x1F DUP2 GT PUSH2 0x12A5 JUMPI JUMPDEST POP PUSH1 0x20 SWAP1 PUSH1 0x1F DUP4 GT PUSH1 0x1 EQ PUSH2 0x1231 JUMPI PUSH1 0x0 SWAP3 PUSH2 0x1226 JUMPI JUMPDEST POP POP DUP2 PUSH1 0x2 MUL SWAP2 PUSH1 0x8 MUL PUSH1 0x2 EXP PUSH1 0x0 NOT DIV NOT AND OR PUSH1 0xB DUP3 ADD SSTORE JUMPDEST PUSH1 0xC DUP2 ADD DUP4 MLOAD PUSH8 0xFFFFFFFFFFFFFFFF DUP2 GT PUSH2 0x1162 JUMPI PUSH2 0x101C DUP3 SLOAD PUSH2 0x390B JUMP JUMPDEST PUSH1 0x1F DUP2 GT PUSH2 0x11F3 JUMPI JUMPDEST POP PUSH1 0x20 PUSH1 0x1F DUP3 GT PUSH1 0x1 EQ PUSH2 0x1186 JUMPI DUP2 SWAP1 PUSH1 0xD SWAP6 SWAP7 PUSH1 0x0 SWAP3 PUSH2 0x117B JUMPI JUMPDEST POP POP DUP2 PUSH1 0x2 MUL SWAP2 PUSH1 0x8 MUL PUSH1 0x2 EXP PUSH1 0x0 NOT DIV NOT AND OR SWAP1 SSTORE JUMPDEST ADD SWAP1 DUP1 MLOAD SWAP1 PUSH8 0xFFFFFFFFFFFFFFFF DUP3 GT PUSH2 0x1162 JUMPI DUP2 SWAP1 PUSH2 0x1078 DUP5 SLOAD PUSH2 0x390B JUMP JUMPDEST PUSH1 0x1F DUP2 GT PUSH2 0x1124 JUMPI JUMPDEST POP PUSH1 0x20 SWAP1 PUSH1 0x1F DUP4 GT PUSH1 0x1 EQ PUSH2 0x10BE JUMPI PUSH1 0x0 SWAP3 PUSH2 0x10B3 JUMPI JUMPDEST POP POP DUP2 PUSH1 0x2 MUL SWAP2 PUSH1 0x8 MUL PUSH1 0x2 EXP PUSH1 0x0 NOT DIV NOT AND OR SWAP1 SSTORE PUSH1 0x0 DUP1 RETURN JUMPDEST ADD MLOAD SWAP1 POP DUP4 DUP1 PUSH2 0x1098 JUMP JUMPDEST PUSH1 0x0 DUP6 DUP2 MSTORE PUSH1 0x20 DUP2 KECCAK256 SWAP4 POP PUSH1 0x1F NOT DUP6 AND SWAP1 JUMPDEST DUP2 DUP2 LT PUSH2 0x110C JUMPI POP SWAP2 PUSH1 0x2 SWAP4 SWAP2 DUP6 PUSH1 0x1 SWAP7 SWAP5 LT PUSH2 0x10F1 JUMPI JUMPDEST POP POP POP MUL ADD SWAP1 SSTORE STOP JUMPDEST ADD MLOAD PUSH1 0x8 PUSH1 0x1F DUP5 AND MUL DUP5 EXP PUSH1 0x0 NOT DIV NOT AND SWAP1 SSTORE DUP5 DUP1 DUP1 PUSH2 0x10E8 JUMP JUMPDEST SWAP3 SWAP4 PUSH1 0x20 PUSH1 0x1 DUP2 SWAP3 DUP8 DUP7 ADD MLOAD DUP2 SSTORE ADD SWAP6 ADD SWAP4 ADD PUSH2 0x10D0 JUMP JUMPDEST PUSH2 0x1152 SWAP1 DUP6 PUSH1 0x0 MSTORE PUSH1 0x20 PUSH1 0x0 KECCAK256 PUSH1 0x20 PUSH1 0x1F DUP7 ADD DIV DUP2 ADD SWAP2 PUSH1 0x20 DUP7 LT PUSH2 0x1158 JUMPI JUMPDEST PUSH1 0x1F PUSH1 0x20 SWAP2 ADD DIV ADD SWAP1 PUSH2 0x4118 JUMP JUMPDEST DUP5 PUSH2 0x1081 JUMP JUMPDEST SWAP1 SWAP2 POP DUP2 SWAP1 PUSH2 0x1144 JUMP JUMPDEST PUSH1 0xE0 PUSH1 0x2 EXP PUSH4 0x4E487B71 MUL PUSH1 0x0 MSTORE PUSH1 0x41 PUSH1 0x4 MSTORE PUSH1 0x24 PUSH1 0x0 REVERT JUMPDEST ADD MLOAD SWAP1 POP DUP7 DUP1 PUSH2 0x1041 JUMP JUMPDEST PUSH1 0x1F NOT DUP3 AND SWAP6 DUP4 PUSH1 0x0 MSTORE PUSH1 0x20 PUSH1 0x0 KECCAK256 SWAP7 PUSH1 0x0 JUMPDEST DUP2 DUP2 LT PUSH2 0x11DB JUMPI POP SWAP7 PUSH1 0x2 SWAP3 DUP5 SWAP3 PUSH1 0x1 SWAP6 PUSH1 0xD SWAP10 SWAP11 LT PUSH2 0x11C0 JUMPI JUMPDEST POP POP POP MUL ADD SWAP1 SSTORE PUSH2 0x1058 JUMP JUMPDEST ADD MLOAD PUSH1 0x8 PUSH1 0x1F DUP5 AND MUL DUP5 EXP PUSH1 0x0 NOT DIV NOT AND SWAP1 SSTORE DUP8 DUP1 DUP1 PUSH2 0x11B4 JUMP JUMPDEST DUP4 DUP4 ADD MLOAD DUP10 SSTORE PUSH1 0x1 SWAP1 SWAP9 ADD SWAP8 PUSH1 0x20 SWAP4 DUP5 ADD SWAP4 ADD PUSH2 0x1199 JUMP JUMPDEST PUSH2 0x1220 SWAP1 DUP4 PUSH1 0x0 MSTORE PUSH1 0x20 PUSH1 0x0 KECCAK256 PUSH1 0x20 PUSH1 0x1F DUP6 ADD DIV DUP2 ADD SWAP2 PUSH1 0x20 DUP6 LT PUSH2 0x1158 JUMPI PUSH1 0x1F PUSH1 0x20 SWAP2 ADD DIV ADD SWAP1 PUSH2 0x4118 JUMP JUMPDEST DUP6 PUSH2 0x1025 JUMP JUMPDEST ADD MLOAD SWAP1 POP DUP6 DUP1 PUSH2 0xFE3 JUMP JUMPDEST SWAP2 POP PUSH1 0xB DUP5 ADD PUSH1 0x0 MSTORE PUSH1 0x20 PUSH1 0x0 KECCAK256 SWAP2 PUSH1 0x0 JUMPDEST PUSH1 0x1F NOT DUP6 AND DUP2 LT PUSH2 0x128D JUMPI POP SWAP2 DUP4 SWAP2 PUSH1 0x2 SWAP4 PUSH1 0x1 SWAP6 PUSH1 0x1F NOT DUP2 AND LT PUSH2 0x1272 JUMPI JUMPDEST POP POP POP MUL ADD PUSH1 0xB DUP3 ADD SSTORE PUSH2 0xFFD JUMP JUMPDEST ADD MLOAD PUSH1 0x8 PUSH1 0x1F DUP5 AND MUL DUP5 EXP PUSH1 0x0 NOT DIV NOT AND SWAP1 SSTORE DUP7 DUP1 DUP1 PUSH2 0x1263 JUMP JUMPDEST SWAP2 SWAP3 PUSH1 0x20 PUSH1 0x1 DUP2 SWAP3 DUP7 DUP6 ADD MLOAD DUP2 SSTORE ADD SWAP5 ADD SWAP3 ADD PUSH2 0x1243 JUMP JUMPDEST PUSH2 0x12D5 SWAP1 PUSH1 0xB DUP7 ADD PUSH1 0x0 MSTORE PUSH1 0x20 PUSH1 0x0 KECCAK256 PUSH1 0x20 PUSH1 0x1F DUP7 ADD DIV DUP2 ADD SWAP2 PUSH1 0x20 DUP7 LT PUSH2 0x1158 JUMPI PUSH1 0x1F PUSH1 0x20 SWAP2 ADD DIV ADD SWAP1 PUSH2 0x4118 JUMP JUMPDEST DUP7 PUSH2 0xFCC JUMP JUMPDEST ADD MLOAD SWAP1 POP DUP7 DUP1 PUSH2 0xF88 JUMP JUMPDEST SWAP2 POP PUSH1 0xA DUP6 ADD PUSH1 0x0 MSTORE PUSH1 0x20 PUSH1 0x0 KECCAK256 SWAP2 PUSH1 0x0 JUMPDEST PUSH1 0x1F NOT DUP6 AND DUP2 LT PUSH2 0x1342 JUMPI POP SWAP2 DUP4 SWAP2 PUSH1 0x2 SWAP4 PUSH1 0x1 SWAP6 PUSH1 0x1F NOT DUP2 AND LT PUSH2 0x1327 JUMPI JUMPDEST POP POP POP MUL ADD PUSH1 0xA DUP4 ADD SSTORE PUSH2 0xFA2 JUMP JUMPDEST ADD MLOAD PUSH1 0x8 PUSH1 0x1F DUP5 AND MUL DUP5 EXP PUSH1 0x0 NOT DIV NOT AND SWAP1 SSTORE DUP8 DUP1 DUP1 PUSH2 0x1318 JUMP JUMPDEST SWAP2 SWAP3 PUSH1 0x20 PUSH1 0x1 DUP2 SWAP3 DUP7 DUP6 ADD MLOAD DUP2 SSTORE ADD SWAP5 ADD SWAP3 ADD PUSH2 0x12F8 JUMP JUMPDEST PUSH2 0x138A SWAP1 PUSH1 0xA DUP8 ADD PUSH1 0x0 MSTORE PUSH1 0x20 PUSH1 0x0 KECCAK256 PUSH1 0x20 PUSH1 0x1F DUP7 ADD DIV DUP2 ADD SWAP2 PUSH1 0x20 DUP7 LT PUSH2 0x1158 JUMPI PUSH1 0x1F PUSH1 0x20 SWAP2 ADD DIV ADD SWAP1 PUSH2 0x4118 JUMP JUMPDEST DUP8 PUSH2 0xF71 JUMP JUMPDEST ADD MLOAD SWAP1 POP DUP8 DUP1 PUSH2 0xF2D JUMP JUMPDEST SWAP2 POP PUSH1 0x9 DUP7 ADD PUSH1 0x0 MSTORE PUSH1 0x20 PUSH1 0x0 KECCAK256 SWAP2 PUSH1 0x0 JUMPDEST PUSH1 0x1F NOT DUP6 AND DUP2 LT PUSH2 0x13F7 JUMPI POP SWAP2 DUP4 SWAP2 PUSH1 0x2 SWAP4 PUSH1 0x1 SWAP6 PUSH1 0x1F NOT DUP2 AND LT PUSH2 0x13DC JUMPI JUMPDEST POP POP POP MUL ADD PUSH1 0x9 DUP5 ADD SSTORE PUSH2 0xF47 JUMP JUMPDEST ADD MLOAD PUSH1 0x8 PUSH1 0x1F DUP5 AND MUL DUP5 EXP PUSH1 0x0 NOT DIV NOT AND SWAP1 SSTORE DUP9 DUP1 DUP1 PUSH2 0x13CD JUMP JUMPDEST SWAP2 SWAP3 PUSH1 0x20 PUSH1 0x1 DUP2 SWAP3 DUP7 DUP6 ADD MLOAD DUP2 SSTORE ADD SWAP5 ADD SWAP3 ADD PUSH2 0x13AD JUMP JUMPDEST PUSH2 0x143F SWAP1 PUSH1 0x9 DUP9 ADD PUSH1 0x0 MSTORE PUSH1 0x20 PUSH1 0x0 KECCAK256 PUSH1 0x20 PUSH1 0x1F DUP7 ADD DIV DUP2 ADD SWAP2 PUSH1 0x20 DUP7 LT PUSH2 0x1158 JUMPI PUSH1 0x1F PUSH1 0x20 SWAP2 ADD DIV ADD SWAP1 PUSH2 0x4118 JUMP JUMPDEST DUP9 PUSH2 0xF16 JUMP JUMPDEST ADD MLOAD SWAP1 POP DUP9 DUP1 PUSH2 0xED2 JUMP JUMPDEST SWAP2 POP PUSH1 0x8 DUP8 ADD PUSH1 0x0 MSTORE PUSH1 0x20 PUSH1 0x0 KECCAK256 SWAP2 PUSH1 0x0 JUMPDEST PUSH1 0x1F NOT DUP6 AND DUP2 LT PUSH2 0x14AC JUMPI POP SWAP2 DUP4 SWAP2 PUSH1 0x2 SWAP4 PUSH1 0x1 SWAP6 PUSH1 0x1F NOT DUP2 AND LT PUSH2 0x1491 JUMPI JUMPDEST POP POP POP MUL ADD PUSH1 0x8 DUP6 ADD SSTORE PUSH2 0xEEC JUMP JUMPDEST ADD MLOAD PUSH1 0x8 PUSH1 0x1F DUP5 AND MUL DUP5 EXP PUSH1 0x0 NOT DIV NOT AND SWAP1 SSTORE DUP10 DUP1 DUP1 PUSH2 0x1482 JUMP JUMPDEST SWAP2 SWAP3 PUSH1 0x20 PUSH1 0x1 DUP2 SWAP3 DUP7 DUP6 ADD MLOAD DUP2 SSTORE ADD SWAP5 ADD SWAP3 ADD PUSH2 0x1462 JUMP JUMPDEST PUSH2 0x14F4 SWAP1 PUSH1 0x8 DUP10 ADD PUSH1 0x0 MSTORE PUSH1 0x20 PUSH1 0x0 KECCAK256 PUSH1 0x20 PUSH1 0x1F DUP7 ADD DIV DUP2 ADD SWAP2 PUSH1 0x20 DUP7 LT PUSH2 0x1158 JUMPI PUSH1 0x1F PUSH1 0x20 SWAP2 ADD DIV ADD SWAP1 PUSH2 0x4118 JUMP JUMPDEST DUP10 PUSH2 0xEBB JUMP JUMPDEST ADD MLOAD SWAP1 POP DUP10 DUP1 PUSH2 0xE77 JUMP JUMPDEST SWAP2 POP PUSH1 0x7 DUP9 ADD PUSH1 0x0 MSTORE PUSH1 0x20 PUSH1 0x0 KECCAK256 SWAP2 PUSH1 0x0 JUMPDEST PUSH1 0x1F NOT DUP6 AND DUP2 LT PUSH2 0x1561 JUMPI POP SWAP2 DUP4 SWAP2 PUSH1 0x2 SWAP4 PUSH1 0x1 SWAP6 PUSH1 0x1F NOT DUP2 AND LT PUSH2 0x1546 JUMPI JUMPDEST POP POP POP MUL ADD PUSH1 0x7 DUP7 ADD SSTORE PUSH2 0xE91 JUMP JUMPDEST ADD MLOAD PUSH1 0x8 PUSH1 0x1F DUP5 AND MUL DUP5 EXP PUSH1 0x0 NOT DIV NOT AND SWAP1 SSTORE DUP11 DUP1 DUP1 PUSH2 0x1537 JUMP JUMPDEST SWAP2 SWAP3 PUSH1 0x20 PUSH1 0x1 DUP2 SWAP3 DUP7 DUP6 ADD MLOAD DUP2 SSTORE ADD SWAP5 ADD SWAP3 ADD PUSH2 0x1517 JUMP JUMPDEST PUSH2 0x15A9 SWAP1 PUSH1 0x7 DUP11 ADD PUSH1 0x0 MSTORE PUSH1 0x20 PUSH1 0x0 KECCAK256 PUSH1 0x20 PUSH1 0x1F DUP7 ADD DIV DUP2 ADD SWAP2 PUSH1 0x20 DUP7 LT PUSH2 0x1158 JUMPI PUSH1 0x1F PUSH1 0x20 SWAP2 ADD DIV ADD SWAP1 PUSH2 0x4118 JUMP JUMPDEST DUP11 PUSH2 0xE60 JUMP JUMPDEST ADD MLOAD SWAP1 POP DUP11 DUP1 PUSH2 0xE1C JUMP JUMPDEST SWAP2 POP PUSH1 0x6 DUP10 ADD PUSH1 0x0 MSTORE PUSH1 0x20 PUSH1 0x0 KECCAK256 SWAP2 PUSH1 0x0 JUMPDEST PUSH1 0x1F NOT DUP6 AND DUP2 LT PUSH2 0x1616 JUMPI POP SWAP2 DUP4 SWAP2 PUSH1 0x2 SWAP4 PUSH1 0x1 SWAP6 PUSH1 0x1F NOT DUP2 AND LT PUSH2 0x15FB JUMPI JUMPDEST POP POP POP MUL ADD PUSH1 0x6 DUP8 ADD SSTORE PUSH2 0xE36 JUMP JUMPDEST ADD MLOAD PUSH1 0x8 PUSH1 0x1F DUP5 AND MUL DUP5 EXP PUSH1 0x0 NOT DIV NOT AND SWAP1 SSTORE DUP12 DUP1 DUP1 PUSH2 0x15EC JUMP JUMPDEST SWAP2 SWAP3 PUSH1 0x20 PUSH1 0x1 DUP2 SWAP3 DUP7 DUP6 ADD MLOAD DUP2 SSTORE ADD SWAP5 ADD SWAP3 ADD PUSH2 0x15CC JUMP JUMPDEST PUSH2 0x165E SWAP1 PUSH1 0x6 DUP12 ADD PUSH1 0x0 MSTORE PUSH1 0x20 PUSH1 0x0 KECCAK256 PUSH1 0x20 PUSH1 0x1F DUP7 ADD DIV DUP2 ADD SWAP2 PUSH1 0x20 DUP7 LT PUSH2 0x1158 JUMPI PUSH1 0x1F PUSH1 0x20 SWAP2 ADD DIV ADD SWAP1 PUSH2 0x4118 JUMP JUMPDEST DUP12 PUSH2 0xE05 JUMP JUMPDEST ADD MLOAD SWAP1 POP DUP12 DUP1 PUSH2 0xDC1 JUMP JUMPDEST SWAP2 POP PUSH1 0x5 DUP11 ADD PUSH1 0x0 MSTORE PUSH1 0x20 PUSH1 0x0 KECCAK256 SWAP2 PUSH1 0x0 JUMPDEST PUSH1 0x1F NOT DUP6 AND DUP2 LT PUSH2 0x16CB JUMPI POP SWAP2 DUP4 SWAP2 PUSH1 0x2 SWAP4 PUSH1 0x1 SWAP6 PUSH1 0x1F NOT DUP2 AND LT PUSH2 0x16B0 JUMPI JUMPDEST POP POP POP MUL ADD PUSH1 0x5 DUP9 ADD SSTORE PUSH2 0xDDB JUMP JUMPDEST ADD MLOAD PUSH1 0x8 PUSH1 0x1F DUP5 AND MUL DUP5 EXP PUSH1 0x0 NOT DIV NOT AND SWAP1 SSTORE DUP13 DUP1 DUP1 PUSH2 0x16A1 JUMP JUMPDEST SWAP2 SWAP3 PUSH1 0x20 PUSH1 0x1 DUP2 SWAP3 DUP7 DUP6 ADD MLOAD DUP2 SSTORE ADD SWAP5 ADD SWAP3 ADD PUSH2 0x1681 JUMP JUMPDEST PUSH2 0x1713 SWAP1 PUSH1 0x5 DUP13 ADD PUSH1 0x0 MSTORE PUSH1 0x20 PUSH1 0x0 KECCAK256 PUSH1 0x20 PUSH1 0x1F DUP7 ADD DIV DUP2 ADD SWAP2 PUSH1 0x20 DUP7 LT PUSH2 0x1158 JUMPI PUSH1 0x1F PUSH1 0x20 SWAP2 ADD DIV ADD SWAP1 PUSH2 0x4118 JUMP JUMPDEST DUP13 PUSH2 0xDAA JUMP JUMPDEST ADD MLOAD SWAP1 POP DUP16 DUP1 PUSH2 0xD0F JUMP JUMPDEST PUSH1 0x4 ADD PUSH1 0x0 SWAP1 DUP2 MSTORE PUSH1 0x20 DUP2 KECCAK256 SWAP4 POP JUMPDEST PUSH1 0x1F NOT DUP6 AND DUP2 LT PUSH2 0x177D JUMPI POP SWAP2 DUP4 SWAP2 PUSH1 0x2 SWAP4 PUSH1 0x1 SWAP6 PUSH1 0x1F NOT DUP2 AND LT PUSH2 0x1762 JUMPI JUMPDEST POP POP POP MUL ADD PUSH1 0x4 DUP13 ADD SSTORE PUSH2 0xD29 JUMP JUMPDEST ADD MLOAD PUSH1 0x8 PUSH1 0x1F DUP5 AND MUL DUP5 EXP PUSH1 0x0 NOT DIV NOT AND SWAP1 SSTORE CODESIZE DUP1 DUP1 PUSH2 0x1753 JUMP JUMPDEST SWAP2 SWAP3 PUSH1 0x20 PUSH1 0x1 DUP2 SWAP3 DUP7 DUP6 ADD MLOAD DUP2 SSTORE ADD SWAP5 ADD SWAP3 ADD PUSH2 0x1733 JUMP JUMPDEST PUSH2 0x17C5 SWAP1 PUSH1 0x4 DUP5 ADD PUSH1 0x0 MSTORE PUSH1 0x20 PUSH1 0x0 KECCAK256 PUSH1 0x20 PUSH1 0x1F DUP8 ADD DIV DUP2 ADD SWAP2 PUSH1 0x20 DUP8 LT PUSH2 0x1158 JUMPI PUSH1 0x1F PUSH1 0x20 SWAP2 ADD DIV ADD SWAP1 PUSH2 0x4118 JUMP JUMPDEST CODESIZE PUSH2 0xCF7 JUMP JUMPDEST CALLVALUE PUSH2 0x1A0 JUMPI PUSH1 0x80 CALLDATASIZE PUSH1 0x3 NOT ADD SLT PUSH2 0x1A0 JUMPI PUSH2 0x17E4 PUSH2 0x36A9 JUMP JUMPDEST PUSH1 0x24 DUP1 CALLDATALOAD SWAP2 PUSH1 0x44 SWAP1 DUP2 CALLDATALOAD SWAP3 PUSH1 0x64 SWAP4 DUP5 CALLDATALOAD PUSH8 0xFFFFFFFFFFFFFFFF DUP2 GT PUSH2 0x1A0 JUMPI PUSH2 0x1811 SWAP1 CALLDATASIZE SWAP1 PUSH1 0x4 ADD PUSH2 0x37FB JUMP JUMPDEST SWAP1 PUSH2 0x181A PUSH2 0x38B0 JUMP JUMPDEST PUSH1 0x1 PUSH1 0xA0 PUSH1 0x2 EXP SUB DUP5 AND SWAP5 DUP6 ISZERO SWAP7 PUSH2 0x1832 DUP9 ISZERO PUSH2 0x40A4 JUMP JUMPDEST PUSH2 0x183B DUP10 PUSH2 0x3DEF JUMP JUMPDEST SWAP7 PUSH2 0x1845 DUP5 PUSH2 0x3DEF JUMP JUMPDEST SWAP10 PUSH1 0x0 JUMPDEST DUP10 MLOAD DUP2 LT ISZERO PUSH2 0x1870 JUMPI DUP1 PUSH2 0x1860 PUSH2 0x186B SWAP3 DUP15 PUSH2 0x3AB0 JUMP JUMPDEST MLOAD PUSH2 0x69D DUP3 DUP14 PUSH2 0x3AB0 JUMP JUMPDEST PUSH2 0x1849 JUMP JUMPDEST POP DUP11 DUP10 DUP12 PUSH2 0x19DB JUMPI JUMPDEST POP POP DUP1 PUSH1 0x0 MSTORE PUSH1 0x20 SWAP8 PUSH1 0x0 DUP10 MSTORE PUSH1 0x40 PUSH1 0x0 KECCAK256 DUP4 PUSH1 0x0 MSTORE DUP10 MSTORE PUSH1 0x40 PUSH1 0x0 KECCAK256 PUSH2 0x18A1 DUP8 DUP3 SLOAD PUSH2 0x3C1F JUMP JUMPDEST SWAP1 SSTORE DUP3 PUSH1 0x0 PUSH1 0x40 MLOAD DUP5 DUP2 MSTORE DUP9 DUP13 DUP3 ADD MSTORE PUSH1 0x0 DUP1 MLOAD PUSH1 0x20 PUSH2 0x417C DUP4 CODECOPY DUP2 MLOAD SWAP2 MSTORE PUSH1 0x40 CALLER SWAP3 LOG4 EXTCODESIZE PUSH2 0x18CC JUMPI STOP JUMPDEST PUSH1 0x0 DUP9 SWAP5 PUSH2 0x1925 DUP10 SWAP9 PUSH1 0x40 MLOAD SWAP9 DUP10 SWAP8 DUP9 SWAP7 DUP8 SWAP6 DUP8 PUSH32 0xF23A6E6100000000000000000000000000000000000000000000000000000000 SWAP15 DUP16 DUP10 MSTORE CALLER PUSH1 0x4 DUP11 ADD MSTORE DUP9 ADD MSTORE DUP7 ADD MSTORE DUP5 ADD MSTORE PUSH1 0xA0 PUSH1 0x84 DUP5 ADD MSTORE PUSH1 0xA4 DUP4 ADD SWAP1 PUSH2 0x36EB JUMP JUMPDEST SUB SWAP3 GAS CALL PUSH1 0x0 SWAP2 DUP2 PUSH2 0x19BC JUMPI JUMPDEST POP PUSH2 0x198D JUMPI POP POP PUSH1 0x1 SWAP2 PUSH2 0x1944 PUSH2 0x3D46 JUMP JUMPDEST PUSH4 0x8C379A0 EQ PUSH2 0x1957 JUMPI JUMPDEST POP POP PUSH2 0x4B7 JUMPI STOP JUMPDEST PUSH2 0x195F PUSH2 0x3D80 JUMP JUMPDEST DUP1 PUSH2 0x196A JUMPI POP PUSH2 0x194F JUMP JUMPDEST PUSH2 0x525 SWAP1 PUSH1 0x40 MLOAD SWAP4 DUP5 SWAP4 PUSH1 0xE5 PUSH1 0x2 EXP PUSH3 0x461BCD MUL DUP6 MSTORE PUSH1 0x4 DUP6 ADD MSTORE DUP4 ADD SWAP1 PUSH2 0x36EB JUMP JUMPDEST PUSH1 0x1 PUSH1 0xE0 PUSH1 0x2 EXP SUB NOT AND EQ SWAP2 POP PUSH2 0x1DA SWAP1 POP JUMPI PUSH1 0x40 MLOAD PUSH1 0xE5 PUSH1 0x2 EXP PUSH3 0x461BCD MUL DUP2 MSTORE DUP1 PUSH2 0x525 PUSH1 0x4 DUP3 ADD PUSH2 0x3CE8 JUMP JUMPDEST PUSH2 0x19D4 SWAP2 SWAP3 POP DUP6 RETURNDATASIZE DUP8 GT PUSH2 0x5B6 JUMPI PUSH2 0x5A7 DUP2 DUP4 PUSH2 0x3764 JUMP JUMPDEST SWAP1 DUP6 PUSH2 0x1932 JUMP JUMPDEST SWAP4 SWAP7 SWAP2 SWAP8 SWAP6 SWAP1 SWAP5 SWAP9 SWAP3 PUSH1 0x0 JUMPDEST DUP6 MLOAD DUP2 LT ISZERO PUSH2 0x1A86 JUMPI PUSH2 0x19FA DUP2 DUP8 PUSH2 0x3AB0 JUMP JUMPDEST MLOAD PUSH2 0x1A05 DUP3 DUP10 PUSH2 0x3AB0 JUMP JUMPDEST MLOAD SWAP1 DUP1 PUSH1 0x0 MSTORE PUSH1 0x20 PUSH1 0x4 DUP2 MSTORE PUSH1 0x40 PUSH1 0x0 KECCAK256 SLOAD SWAP2 DUP4 DUP4 LT PUSH2 0x1A3E JUMPI PUSH2 0x1A39 SWAP5 SWAP4 SWAP3 SWAP2 PUSH1 0x4 SWAP2 PUSH1 0x0 MSTORE MSTORE SUB PUSH1 0x40 PUSH1 0x0 KECCAK256 SSTORE PUSH2 0x3A88 JUMP JUMPDEST PUSH2 0x19E7 JUMP JUMPDEST PUSH1 0x84 DUP16 PUSH1 0x0 DUP1 MLOAD PUSH1 0x20 PUSH2 0x41BC DUP4 CODECOPY DUP2 MLOAD SWAP2 MSTORE DUP16 DUP16 DUP7 SWAP4 PUSH1 0x28 PUSH1 0x0 DUP1 MLOAD PUSH1 0x20 PUSH2 0x419C DUP4 CODECOPY DUP2 MLOAD SWAP2 MSTORE SWAP3 PUSH1 0x40 MLOAD SWAP7 PUSH1 0xE5 PUSH1 0x2 EXP PUSH3 0x461BCD MUL DUP9 MSTORE PUSH1 0x4 DUP9 ADD MSTORE DUP7 ADD MSTORE DUP5 ADD MSTORE DUP3 ADD MSTORE REVERT JUMPDEST POP SWAP3 SWAP9 SWAP5 POP SWAP5 SWAP7 SWAP1 SWAP6 SWAP3 POP DUP9 DUP1 PUSH2 0x1879 JUMP JUMPDEST CALLVALUE PUSH2 0x1A0 JUMPI PUSH1 0x0 CALLDATASIZE PUSH1 0x3 NOT ADD SLT PUSH2 0x1A0 JUMPI PUSH2 0x1AB1 PUSH2 0x38B0 JUMP JUMPDEST PUSH1 0x0 PUSH1 0x1 PUSH1 0xA0 PUSH1 0x2 EXP SUB PUSH1 0x3 SLOAD DUP2 NOT DUP2 AND PUSH1 0x3 SSTORE AND PUSH32 0x8BE0079C531659141344CD1FD0A4F28419497F9722A3DAAFE3B4186F6B6457E0 DUP3 DUP1 LOG3 STOP JUMPDEST CALLVALUE PUSH2 0x1A0 JUMPI PUSH1 0x60 CALLDATASIZE PUSH1 0x3 NOT ADD SLT PUSH2 0x1A0 JUMPI PUSH2 0x1B05 PUSH2 0x36A9 JUMP JUMPDEST PUSH1 0x24 SWAP1 PUSH8 0xFFFFFFFFFFFFFFFF SWAP1 DUP3 CALLDATALOAD DUP3 DUP2 GT PUSH2 0x1A0 JUMPI PUSH2 0x1B29 SWAP1 CALLDATASIZE SWAP1 PUSH1 0x4 ADD PUSH2 0x379E JUMP JUMPDEST SWAP2 PUSH1 0x44 SWAP1 DUP2 CALLDATALOAD SWAP1 DUP2 GT PUSH2 0x1A0 JUMPI PUSH2 0x1B4C PUSH1 0x1 PUSH1 0xA0 PUSH1 0x2 EXP SUB SWAP2 CALLDATASIZE SWAP1 PUSH1 0x4 ADD PUSH2 0x379E JUMP JUMPDEST SWAP3 AND SWAP3 CALLER DUP5 EQ DUP1 ISZERO PUSH2 0x1D22 JUMPI JUMPDEST PUSH2 0x1B62 SWAP1 PUSH2 0x3AC3 JUMP JUMPDEST DUP4 ISZERO PUSH2 0x1B6E DUP2 ISZERO PUSH2 0x3E25 JUMP JUMPDEST PUSH2 0x1B7B DUP3 MLOAD DUP6 MLOAD EQ PUSH2 0x3C2C JUMP JUMPDEST PUSH1 0x0 PUSH1 0x40 MLOAD PUSH2 0x1B89 DUP2 PUSH2 0x3748 JUMP JUMPDEST MSTORE PUSH2 0x1CEA JUMPI JUMPDEST PUSH1 0x0 JUMPDEST DUP2 MLOAD DUP2 LT ISZERO PUSH2 0x1C30 JUMPI PUSH2 0x1BA5 DUP2 DUP4 PUSH2 0x3AB0 JUMP JUMPDEST MLOAD PUSH2 0x1BB0 DUP3 DUP7 PUSH2 0x3AB0 JUMP JUMPDEST MLOAD SWAP1 DUP1 PUSH1 0x0 MSTORE PUSH1 0x20 PUSH1 0x4 DUP2 MSTORE PUSH1 0x40 PUSH1 0x0 KECCAK256 SLOAD SWAP2 DUP4 DUP4 LT PUSH2 0x1BE9 JUMPI PUSH2 0x1BE4 SWAP5 SWAP4 SWAP3 SWAP2 PUSH1 0x4 SWAP2 PUSH1 0x0 MSTORE MSTORE SUB PUSH1 0x40 PUSH1 0x0 KECCAK256 SSTORE PUSH2 0x3A88 JUMP JUMPDEST PUSH2 0x1B92 JUMP JUMPDEST PUSH1 0x84 DUP3 PUSH1 0x0 DUP1 MLOAD PUSH1 0x20 PUSH2 0x419C DUP4 CODECOPY DUP2 MLOAD SWAP2 MSTORE DUP10 PUSH1 0x28 DUP15 PUSH1 0x40 MLOAD SWAP5 PUSH1 0xE5 PUSH1 0x2 EXP PUSH3 0x461BCD MUL DUP7 MSTORE PUSH1 0x4 DUP7 ADD MSTORE DUP5 ADD MSTORE DUP3 ADD MSTORE PUSH1 0x0 DUP1 MLOAD PUSH1 0x20 PUSH2 0x41BC DUP4 CODECOPY DUP2 MLOAD SWAP2 MSTORE PUSH1 0x64 DUP3 ADD MSTORE REVERT JUMPDEST DUP4 DUP3 DUP7 PUSH1 0x0 JUMPDEST DUP3 MLOAD DUP2 LT ISZERO PUSH2 0x1CA5 JUMPI DUP1 PUSH2 0x1C4D PUSH2 0x1CA0 SWAP3 DUP6 PUSH2 0x3AB0 JUMP JUMPDEST MLOAD PUSH2 0x1C58 DUP3 DUP8 PUSH2 0x3AB0 JUMP JUMPDEST MLOAD SWAP1 DUP1 PUSH1 0x0 MSTORE PUSH1 0x20 PUSH1 0x0 DUP2 MSTORE PUSH1 0x40 PUSH1 0x0 KECCAK256 DUP7 PUSH1 0x0 MSTORE DUP2 MSTORE PUSH1 0x40 PUSH1 0x0 KECCAK256 SLOAD SWAP2 PUSH2 0x1C82 DUP5 DUP5 LT ISZERO PUSH2 0x3E99 JUMP JUMPDEST PUSH1 0x0 MSTORE PUSH1 0x0 DUP2 MSTORE PUSH1 0x40 PUSH1 0x0 KECCAK256 SWAP1 DUP7 PUSH1 0x0 MSTORE MSTORE SUB PUSH1 0x40 PUSH1 0x0 KECCAK256 SSTORE PUSH2 0x3A88 JUMP JUMPDEST PUSH2 0x1C36 JUMP JUMPDEST POP SWAP1 PUSH32 0x4A39DC06D4C0DBC64B70AF90FD698A233A518AA5D07E595D983B8C0526C8F7FB PUSH2 0x1CDC PUSH1 0x0 SWAP5 PUSH1 0x40 MLOAD SWAP2 DUP3 SWAP2 CALLER SWAP6 DUP4 PUSH2 0x3CA0 JUMP JUMPDEST SUB SWAP1 LOG4 PUSH2 0x1DA PUSH1 0x40 MLOAD PUSH2 0x3748 JUMP JUMPDEST SWAP3 PUSH1 0x0 SWAP5 SWAP2 SWAP5 JUMPDEST DUP5 MLOAD DUP2 LT ISZERO PUSH2 0x1D18 JUMPI DUP1 PUSH2 0x1D08 PUSH2 0x1D13 SWAP3 DUP7 PUSH2 0x3AB0 JUMP JUMPDEST MLOAD PUSH2 0x69D DUP3 DUP9 PUSH2 0x3AB0 JUMP JUMPDEST PUSH2 0x1CF1 JUMP JUMPDEST POP SWAP3 SWAP4 SWAP1 SWAP4 PUSH2 0x1B8F JUMP JUMPDEST POP DUP4 PUSH1 0x0 MSTORE PUSH1 0x1 PUSH1 0x20 MSTORE PUSH1 0x40 PUSH1 0x0 KECCAK256 CALLER PUSH1 0x0 MSTORE PUSH1 0x20 MSTORE PUSH2 0x1B62 PUSH1 0xFF PUSH1 0x40 PUSH1 0x0 KECCAK256 SLOAD AND SWAP1 POP PUSH2 0x1B59 JUMP JUMPDEST CALLVALUE PUSH2 0x1A0 JUMPI PUSH2 0x1A0 CALLDATASIZE PUSH1 0x3 NOT ADD SLT PUSH2 0x1A0 JUMPI PUSH2 0x1D65 PUSH2 0x36A9 JUMP JUMPDEST PUSH2 0x1D6D PUSH2 0x36BF JUMP JUMPDEST PUSH2 0x1D75 PUSH2 0x36D5 JUMP JUMPDEST PUSH1 0x64 CALLDATALOAD PUSH8 0xFFFFFFFFFFFFFFFF DUP2 GT PUSH2 0x1A0 JUMPI PUSH2 0x1D95 SWAP1 CALLDATASIZE SWAP1 PUSH1 0x4 ADD PUSH2 0x37FB JUMP JUMPDEST PUSH1 0x84 CALLDATALOAD PUSH8 0xFFFFFFFFFFFFFFFF DUP2 GT PUSH2 0x1A0 JUMPI PUSH2 0x1DB5 SWAP1 CALLDATASIZE SWAP1 PUSH1 0x4 ADD PUSH2 0x37FB JUMP JUMPDEST PUSH1 0xA4 CALLDATALOAD PUSH8 0xFFFFFFFFFFFFFFFF DUP2 GT PUSH2 0x1A0 JUMPI PUSH2 0x1DD5 SWAP1 CALLDATASIZE SWAP1 PUSH1 0x4 ADD PUSH2 0x37FB JUMP JUMPDEST PUSH1 0xC4 CALLDATALOAD PUSH8 0xFFFFFFFFFFFFFFFF DUP2 GT PUSH2 0x1A0 JUMPI PUSH2 0x1DF5 SWAP1 CALLDATASIZE SWAP1 PUSH1 0x4 ADD PUSH2 0x37FB JUMP JUMPDEST PUSH1 0xE4 CALLDATALOAD PUSH8 0xFFFFFFFFFFFFFFFF DUP2 GT PUSH2 0x1A0 JUMPI PUSH2 0x1E15 SWAP1 CALLDATASIZE SWAP1 PUSH1 0x4 ADD PUSH2 0x37FB JUMP JUMPDEST PUSH2 0x104 CALLDATALOAD PUSH8 0xFFFFFFFFFFFFFFFF DUP2 GT PUSH2 0x1A0 JUMPI PUSH2 0x1E36 SWAP1 CALLDATASIZE SWAP1 PUSH1 0x4 ADD PUSH2 0x37FB JUMP JUMPDEST SWAP2 PUSH2 0x124 CALLDATALOAD PUSH8 0xFFFFFFFFFFFFFFFF DUP2 GT PUSH2 0x1A0 JUMPI PUSH2 0x1E58 SWAP1 CALLDATASIZE SWAP1 PUSH1 0x4 ADD PUSH2 0x37FB JUMP JUMPDEST SWAP4 PUSH2 0x144 CALLDATALOAD PUSH8 0xFFFFFFFFFFFFFFFF DUP2 GT PUSH2 0x1A0 JUMPI PUSH2 0x1E7A SWAP1 CALLDATASIZE SWAP1 PUSH1 0x4 ADD PUSH2 0x37FB JUMP JUMPDEST SWAP6 PUSH2 0x164 CALLDATALOAD PUSH8 0xFFFFFFFFFFFFFFFF DUP2 GT PUSH2 0x1A0 JUMPI PUSH2 0x1E9C SWAP1 CALLDATASIZE SWAP1 PUSH1 0x4 ADD PUSH2 0x37FB JUMP JUMPDEST SWAP8 PUSH2 0x184 CALLDATALOAD PUSH8 0xFFFFFFFFFFFFFFFF DUP2 GT PUSH2 0x1A0 JUMPI PUSH2 0x1EBE SWAP1 CALLDATASIZE SWAP1 PUSH1 0x4 ADD PUSH2 0x37FB JUMP JUMPDEST SWAP10 PUSH1 0x7 SLOAD PUSH2 0x1ECB SWAP1 PUSH2 0x3A88 JUMP JUMPDEST DUP1 SWAP13 DUP2 PUSH1 0x7 SSTORE PUSH1 0x40 MLOAD SWAP15 DUP16 SWAP3 PUSH2 0x1EE0 DUP5 PUSH2 0x372B JUMP JUMPDEST DUP4 MSTORE PUSH1 0x1 PUSH1 0xA0 PUSH1 0x2 EXP SUB AND PUSH1 0x20 DUP4 ADD MSTORE PUSH1 0x1 PUSH1 0xA0 PUSH1 0x2 EXP SUB AND SWAP1 PUSH1 0x40 ADD MSTORE PUSH1 0x1 PUSH1 0xA0 PUSH1 0x2 EXP SUB AND PUSH1 0x60 DUP14 ADD MSTORE PUSH1 0x80 DUP13 ADD MSTORE PUSH1 0xA0 DUP12 ADD MSTORE PUSH1 0xC0 DUP11 ADD MSTORE PUSH1 0xE0 DUP10 ADD MSTORE PUSH2 0x100 DUP9 ADD MSTORE PUSH2 0x120 DUP8 ADD MSTORE PUSH2 0x140 DUP7 ADD MSTORE PUSH2 0x160 DUP6 ADD MSTORE PUSH2 0x180 DUP5 ADD MSTORE PUSH2 0x1A0 DUP4 ADD MSTORE PUSH1 0x6 SLOAD PUSH9 0x10000000000000000 DUP2 LT ISZERO PUSH2 0x1162 JUMPI PUSH1 0x1 DUP2 ADD DUP1 PUSH1 0x6 SSTORE DUP2 LT ISZERO PUSH2 0x2A94 JUMPI PUSH1 0x6 PUSH1 0x0 MSTORE PUSH32 0xF652222313E28459528D920B65115C16C04F3EFC82AAEDC97BE59F3F377C0D3F ADD SSTORE DUP1 MLOAD PUSH1 0x0 MSTORE PUSH1 0x5 PUSH1 0x20 MSTORE PUSH1 0x40 PUSH1 0x0 KECCAK256 SWAP1 DUP1 MLOAD DUP3 SSTORE PUSH1 0x1 DUP3 ADD PUSH1 0x1 PUSH1 0xA0 PUSH1 0x2 EXP SUB PUSH1 0x20 DUP4 ADD MLOAD AND PUSH1 0x1 PUSH1 0xA0 PUSH1 0x2 EXP SUB NOT DUP3 SLOAD AND OR SWAP1 SSTORE PUSH1 0x2 DUP3 ADD PUSH1 0x1 PUSH1 0xA0 PUSH1 0x2 EXP SUB PUSH1 0x40 DUP4 ADD MLOAD AND PUSH1 0x1 PUSH1 0xA0 PUSH1 0x2 EXP SUB NOT DUP3 SLOAD AND OR SWAP1 SSTORE PUSH1 0x3 DUP3 ADD PUSH1 0x1 PUSH1 0xA0 PUSH1 0x2 EXP SUB PUSH1 0x60 DUP4 ADD MLOAD AND PUSH1 0x1 PUSH1 0xA0 PUSH1 0x2 EXP SUB NOT DUP3 SLOAD AND OR SWAP1 SSTORE PUSH1 0x80 DUP2 ADD MLOAD DUP1 MLOAD SWAP1 PUSH8 0xFFFFFFFFFFFFFFFF DUP3 GT PUSH2 0x1162 JUMPI DUP2 SWAP1 PUSH2 0x202C PUSH1 0x4 DUP7 ADD SLOAD PUSH2 0x390B JUMP JUMPDEST PUSH1 0x1F DUP2 GT PUSH2 0x2A5E JUMPI JUMPDEST POP PUSH1 0x20 SWAP1 PUSH1 0x1F DUP4 GT PUSH1 0x1 EQ PUSH2 0x29EA JUMPI PUSH1 0x0 SWAP3 PUSH2 0x29DF JUMPI JUMPDEST POP POP DUP2 PUSH1 0x2 MUL SWAP2 PUSH1 0x8 MUL PUSH1 0x2 EXP PUSH1 0x0 NOT DIV NOT AND OR PUSH1 0x4 DUP4 ADD SSTORE JUMPDEST PUSH1 0xA0 DUP2 ADD MLOAD DUP1 MLOAD SWAP1 PUSH8 0xFFFFFFFFFFFFFFFF DUP3 GT PUSH2 0x1162 JUMPI DUP2 SWAP1 PUSH2 0x208C PUSH1 0x5 DUP7 ADD SLOAD PUSH2 0x390B JUMP JUMPDEST PUSH1 0x1F DUP2 GT PUSH2 0x29A9 JUMPI JUMPDEST POP PUSH1 0x20 SWAP1 PUSH1 0x1F DUP4 GT PUSH1 0x1 EQ PUSH2 0x2935 JUMPI PUSH1 0x0 SWAP3 PUSH2 0x292A JUMPI JUMPDEST POP POP DUP2 PUSH1 0x2 MUL SWAP2 PUSH1 0x8 MUL PUSH1 0x2 EXP PUSH1 0x0 NOT DIV NOT AND OR PUSH1 0x5 DUP4 ADD SSTORE JUMPDEST PUSH1 0xC0 DUP2 ADD MLOAD DUP1 MLOAD SWAP1 PUSH8 0xFFFFFFFFFFFFFFFF DUP3 GT PUSH2 0x1162 JUMPI DUP2 SWAP1 PUSH2 0x20EC PUSH1 0x6 DUP7 ADD SLOAD PUSH2 0x390B JUMP JUMPDEST PUSH1 0x1F DUP2 GT PUSH2 0x28F4 JUMPI JUMPDEST POP PUSH1 0x20 SWAP1 PUSH1 0x1F DUP4 GT PUSH1 0x1 EQ PUSH2 0x2880 JUMPI PUSH1 0x0 SWAP3 PUSH2 0x2875 JUMPI JUMPDEST POP POP DUP2 PUSH1 0x2 MUL SWAP2 PUSH1 0x8 MUL PUSH1 0x2 EXP PUSH1 0x0 NOT DIV NOT AND OR PUSH1 0x6 DUP4 ADD SSTORE JUMPDEST PUSH1 0xE0 DUP2 ADD MLOAD DUP1 MLOAD SWAP1 PUSH8 0xFFFFFFFFFFFFFFFF DUP3 GT PUSH2 0x1162 JUMPI DUP2 SWAP1 PUSH2 0x214C PUSH1 0x7 DUP7 ADD SLOAD PUSH2 0x390B JUMP JUMPDEST PUSH1 0x1F DUP2 GT PUSH2 0x283F JUMPI JUMPDEST POP PUSH1 0x20 SWAP1 PUSH1 0x1F DUP4 GT PUSH1 0x1 EQ PUSH2 0x27CB JUMPI PUSH1 0x0 SWAP3 PUSH2 0x27C0 JUMPI JUMPDEST POP POP DUP2 PUSH1 0x2 MUL SWAP2 PUSH1 0x8 MUL PUSH1 0x2 EXP PUSH1 0x0 NOT DIV NOT AND OR PUSH1 0x7 DUP4 ADD SSTORE JUMPDEST PUSH2 0x100 DUP2 ADD MLOAD DUP1 MLOAD SWAP1 PUSH8 0xFFFFFFFFFFFFFFFF DUP3 GT PUSH2 0x1162 JUMPI DUP2 SWAP1 PUSH2 0x21AD PUSH1 0x8 DUP7 ADD SLOAD PUSH2 0x390B JUMP JUMPDEST PUSH1 0x1F DUP2 GT PUSH2 0x278A JUMPI JUMPDEST POP PUSH1 0x20 SWAP1 PUSH1 0x1F DUP4 GT PUSH1 0x1 EQ PUSH2 0x2716 JUMPI PUSH1 0x0 SWAP3 PUSH2 0x270B JUMPI JUMPDEST POP POP DUP2 PUSH1 0x2 MUL SWAP2 PUSH1 0x8 MUL PUSH1 0x2 EXP PUSH1 0x0 NOT DIV NOT AND OR PUSH1 0x8 DUP4 ADD SSTORE JUMPDEST PUSH2 0x120 DUP2 ADD MLOAD DUP1 MLOAD SWAP1 PUSH8 0xFFFFFFFFFFFFFFFF DUP3 GT PUSH2 0x1162 JUMPI DUP2 SWAP1 PUSH2 0x220E PUSH1 0x9 DUP7 ADD SLOAD PUSH2 0x390B JUMP JUMPDEST PUSH1 0x1F DUP2 GT PUSH2 0x26D5 JUMPI JUMPDEST POP PUSH1 0x20 SWAP1 PUSH1 0x1F DUP4 GT PUSH1 0x1 EQ PUSH2 0x2661 JUMPI PUSH1 0x0 SWAP3 PUSH2 0x2656 JUMPI JUMPDEST POP POP DUP2 PUSH1 0x2 MUL SWAP2 PUSH1 0x8 MUL PUSH1 0x2 EXP PUSH1 0x0 NOT DIV NOT AND OR PUSH1 0x9 DUP4 ADD SSTORE JUMPDEST PUSH2 0x140 DUP2 ADD MLOAD DUP1 MLOAD SWAP1 PUSH8 0xFFFFFFFFFFFFFFFF DUP3 GT PUSH2 0x1162 JUMPI DUP2 SWAP1 PUSH2 0x226F PUSH1 0xA DUP7 ADD SLOAD PUSH2 0x390B JUMP JUMPDEST PUSH1 0x1F DUP2 GT PUSH2 0x2620 JUMPI JUMPDEST POP PUSH1 0x20 SWAP1 PUSH1 0x1F DUP4 GT PUSH1 0x1 EQ PUSH2 0x25AC JUMPI PUSH1 0x0 SWAP3 PUSH2 0x25A1 JUMPI JUMPDEST POP POP DUP2 PUSH1 0x2 MUL SWAP2 PUSH1 0x8 MUL PUSH1 0x2 EXP PUSH1 0x0 NOT DIV NOT AND OR PUSH1 0xA DUP4 ADD SSTORE JUMPDEST PUSH1 0xB DUP3 ADD PUSH2 0x160 DUP3 ADD MLOAD DUP1 MLOAD SWAP1 PUSH8 0xFFFFFFFFFFFFFFFF DUP3 GT PUSH2 0x1162 JUMPI DUP2 SWAP1 PUSH2 0x22D1 DUP5 SLOAD PUSH2 0x390B JUMP JUMPDEST PUSH1 0x1F DUP2 GT PUSH2 0x256E JUMPI JUMPDEST POP PUSH1 0x20 SWAP1 PUSH1 0x1F DUP4 GT PUSH1 0x1 EQ PUSH2 0x2505 JUMPI PUSH1 0x0 SWAP3 PUSH2 0x24FA JUMPI JUMPDEST POP POP DUP2 PUSH1 0x2 MUL SWAP2 PUSH1 0x8 MUL PUSH1 0x2 EXP PUSH1 0x0 NOT DIV NOT AND OR SWAP1 SSTORE JUMPDEST PUSH1 0xC DUP3 ADD SWAP2 PUSH2 0x180 DUP3 ADD MLOAD SWAP3 DUP4 MLOAD PUSH8 0xFFFFFFFFFFFFFFFF DUP2 GT PUSH2 0x1162 JUMPI PUSH2 0x232F DUP3 SLOAD PUSH2 0x390B JUMP JUMPDEST PUSH1 0x1F DUP2 GT PUSH2 0x24C7 JUMPI JUMPDEST POP PUSH1 0x20 PUSH1 0x1F DUP3 GT PUSH1 0x1 EQ PUSH2 0x2455 JUMPI SWAP1 DUP1 PUSH1 0xD SWAP5 SWAP4 SWAP3 PUSH2 0x1A0 SWAP7 SWAP8 PUSH1 0x0 SWAP3 PUSH2 0x244A JUMPI JUMPDEST POP POP DUP2 PUSH1 0x2 MUL SWAP2 PUSH1 0x8 MUL PUSH1 0x2 EXP PUSH1 0x0 NOT DIV NOT AND OR SWAP1 SSTORE JUMPDEST ADD SWAP2 ADD MLOAD DUP1 MLOAD SWAP1 PUSH8 0xFFFFFFFFFFFFFFFF DUP3 GT PUSH2 0x1162 JUMPI DUP2 SWAP1 PUSH2 0x2393 DUP5 SLOAD PUSH2 0x390B JUMP JUMPDEST PUSH1 0x1F DUP2 GT PUSH2 0x2417 JUMPI JUMPDEST POP PUSH1 0x20 SWAP1 PUSH1 0x1F DUP4 GT PUSH1 0x1 EQ PUSH2 0x23CD JUMPI PUSH1 0x0 SWAP3 PUSH2 0x10B3 JUMPI POP POP DUP2 PUSH1 0x2 MUL SWAP2 PUSH1 0x8 MUL PUSH1 0x2 EXP PUSH1 0x0 NOT DIV NOT AND OR SWAP1 SSTORE PUSH1 0x0 DUP1 RETURN JUMPDEST PUSH1 0x0 DUP6 DUP2 MSTORE PUSH1 0x20 DUP2 KECCAK256 SWAP4 POP PUSH1 0x1F NOT DUP6 AND SWAP1 JUMPDEST DUP2 DUP2 LT PUSH2 0x23FF JUMPI POP SWAP2 PUSH1 0x2 SWAP4 SWAP2 DUP6 PUSH1 0x1 SWAP7 SWAP5 LT PUSH2 0x10F1 JUMPI POP POP POP MUL ADD SWAP1 SSTORE STOP JUMPDEST SWAP3 SWAP4 PUSH1 0x20 PUSH1 0x1 DUP2 SWAP3 DUP8 DUP7 ADD MLOAD DUP2 SSTORE ADD SWAP6 ADD SWAP4 ADD PUSH2 0x23DF JUMP JUMPDEST PUSH2 0x2444 SWAP1 DUP6 PUSH1 0x0 MSTORE PUSH1 0x20 PUSH1 0x0 KECCAK256 PUSH1 0x20 PUSH1 0x1F DUP7 ADD DIV DUP2 ADD SWAP2 PUSH1 0x20 DUP7 LT PUSH2 0x1158 JUMPI PUSH1 0x1F PUSH1 0x20 SWAP2 ADD DIV ADD SWAP1 PUSH2 0x4118 JUMP JUMPDEST DUP5 PUSH2 0x239C JUMP JUMPDEST ADD MLOAD SWAP1 POP DUP8 DUP1 PUSH2 0x235A JUMP JUMPDEST PUSH1 0x1F NOT DUP3 AND SWAP6 DUP4 PUSH1 0x0 MSTORE PUSH1 0x20 PUSH1 0x0 KECCAK256 SWAP7 PUSH1 0x0 JUMPDEST DUP2 DUP2 LT PUSH2 0x24AF JUMPI POP SWAP3 PUSH2 0x1A0 SWAP7 SWAP8 PUSH1 0x1 SWAP4 PUSH1 0x2 SWAP4 DUP4 PUSH1 0xD SWAP10 SWAP9 SWAP8 LT PUSH2 0x2494 JUMPI JUMPDEST POP POP POP MUL ADD SWAP1 SSTORE PUSH2 0x2371 JUMP JUMPDEST ADD MLOAD PUSH1 0x8 PUSH1 0x1F DUP5 AND MUL DUP5 EXP PUSH1 0x0 NOT DIV NOT AND SWAP1 SSTORE DUP9 DUP1 DUP1 PUSH2 0x2488 JUMP JUMPDEST DUP4 DUP4 ADD MLOAD DUP10 SSTORE PUSH1 0x1 SWAP1 SWAP9 ADD SWAP8 PUSH1 0x20 SWAP4 DUP5 ADD SWAP4 ADD PUSH2 0x2468 JUMP JUMPDEST PUSH2 0x24F4 SWAP1 DUP4 PUSH1 0x0 MSTORE PUSH1 0x20 PUSH1 0x0 KECCAK256 PUSH1 0x20 PUSH1 0x1F DUP6 ADD DIV DUP2 ADD SWAP2 PUSH1 0x20 DUP6 LT PUSH2 0x1158 JUMPI PUSH1 0x1F PUSH1 0x20 SWAP2 ADD DIV ADD SWAP1 PUSH2 0x4118 JUMP JUMPDEST DUP6 PUSH2 0x2338 JUMP JUMPDEST ADD MLOAD SWAP1 POP DUP6 DUP1 PUSH2 0x22F1 JUMP JUMPDEST PUSH1 0x0 DUP6 DUP2 MSTORE PUSH1 0x20 DUP2 KECCAK256 SWAP4 POP PUSH1 0x1F NOT DUP6 AND SWAP1 JUMPDEST DUP2 DUP2 LT PUSH2 0x2556 JUMPI POP SWAP2 PUSH1 0x2 SWAP4 SWAP2 DUP6 PUSH1 0x1 SWAP7 SWAP5 LT PUSH2 0x253B JUMPI JUMPDEST POP POP POP MUL ADD SWAP1 SSTORE PUSH2 0x2308 JUMP JUMPDEST ADD MLOAD PUSH1 0x8 PUSH1 0x1F DUP5 AND MUL DUP5 EXP PUSH1 0x0 NOT DIV NOT AND SWAP1 SSTORE DUP7 DUP1 DUP1 PUSH2 0x252F JUMP JUMPDEST SWAP3 SWAP4 PUSH1 0x20 PUSH1 0x1 DUP2 SWAP3 DUP8 DUP7 ADD MLOAD DUP2 SSTORE ADD SWAP6 ADD SWAP4 ADD PUSH2 0x2517 JUMP JUMPDEST PUSH2 0x259B SWAP1 DUP6 PUSH1 0x0 MSTORE PUSH1 0x20 PUSH1 0x0 KECCAK256 PUSH1 0x20 PUSH1 0x1F DUP7 ADD DIV DUP2 ADD SWAP2 PUSH1 0x20 DUP7 LT PUSH2 0x1158 JUMPI PUSH1 0x1F PUSH1 0x20 SWAP2 ADD DIV ADD SWAP1 PUSH2 0x4118 JUMP JUMPDEST DUP7 PUSH2 0x22DA JUMP JUMPDEST ADD MLOAD SWAP1 POP DUP5 DUP1 PUSH2 0x228F JUMP JUMPDEST SWAP2 POP PUSH1 0xA DUP6 ADD PUSH1 0x0 MSTORE PUSH1 0x20 PUSH1 0x0 KECCAK256 SWAP2 PUSH1 0x0 JUMPDEST PUSH1 0x1F NOT DUP6 AND DUP2 LT PUSH2 0x2608 JUMPI POP SWAP2 DUP4 SWAP2 PUSH1 0x2 SWAP4 PUSH1 0x1 SWAP6 PUSH1 0x1F NOT DUP2 AND LT PUSH2 0x25ED JUMPI JUMPDEST POP POP POP MUL ADD PUSH1 0xA DUP4 ADD SSTORE PUSH2 0x22A9 JUMP JUMPDEST ADD MLOAD PUSH1 0x8 PUSH1 0x1F DUP5 AND MUL DUP5 EXP PUSH1 0x0 NOT DIV NOT AND SWAP1 SSTORE DUP6 DUP1 DUP1 PUSH2 0x25DE JUMP JUMPDEST SWAP2 SWAP3 PUSH1 0x20 PUSH1 0x1 DUP2 SWAP3 DUP7 DUP6 ADD MLOAD DUP2 SSTORE ADD SWAP5 ADD SWAP3 ADD PUSH2 0x25BE JUMP JUMPDEST PUSH2 0x2650 SWAP1 PUSH1 0xA DUP8 ADD PUSH1 0x0 MSTORE PUSH1 0x20 PUSH1 0x0 KECCAK256 PUSH1 0x20 PUSH1 0x1F DUP7 ADD DIV DUP2 ADD SWAP2 PUSH1 0x20 DUP7 LT PUSH2 0x1158 JUMPI PUSH1 0x1F PUSH1 0x20 SWAP2 ADD DIV ADD SWAP1 PUSH2 0x4118 JUMP JUMPDEST DUP6 PUSH2 0x2278 JUMP JUMPDEST ADD MLOAD SWAP1 POP DUP5 DUP1 PUSH2 0x222E JUMP JUMPDEST SWAP2 POP PUSH1 0x9 DUP6 ADD PUSH1 0x0 MSTORE PUSH1 0x20 PUSH1 0x0 KECCAK256 SWAP2 PUSH1 0x0 JUMPDEST PUSH1 0x1F NOT DUP6 AND DUP2 LT PUSH2 0x26BD JUMPI POP SWAP2 DUP4 SWAP2 PUSH1 0x2 SWAP4 PUSH1 0x1 SWAP6 PUSH1 0x1F NOT DUP2 AND LT PUSH2 0x26A2 JUMPI JUMPDEST POP POP POP MUL ADD PUSH1 0x9 DUP4 ADD SSTORE PUSH2 0x2248 JUMP JUMPDEST ADD MLOAD PUSH1 0x8 PUSH1 0x1F DUP5 AND MUL DUP5 EXP PUSH1 0x0 NOT DIV NOT AND SWAP1 SSTORE DUP6 DUP1 DUP1 PUSH2 0x2693 JUMP JUMPDEST SWAP2 SWAP3 PUSH1 0x20 PUSH1 0x1 DUP2 SWAP3 DUP7 DUP6 ADD MLOAD DUP2 SSTORE ADD SWAP5 ADD SWAP3 ADD PUSH2 0x2673 JUMP JUMPDEST PUSH2 0x2705 SWAP1 PUSH1 0x9 DUP8 ADD PUSH1 0x0 MSTORE PUSH1 0x20 PUSH1 0x0 KECCAK256 PUSH1 0x20 PUSH1 0x1F DUP7 ADD DIV DUP2 ADD SWAP2 PUSH1 0x20 DUP7 LT PUSH2 0x1158 JUMPI PUSH1 0x1F PUSH1 0x20 SWAP2 ADD DIV ADD SWAP1 PUSH2 0x4118 JUMP JUMPDEST DUP6 PUSH2 0x2217 JUMP JUMPDEST ADD MLOAD SWAP1 POP DUP5 DUP1 PUSH2 0x21CD JUMP JUMPDEST SWAP2 POP PUSH1 0x8 DUP6 ADD PUSH1 0x0 MSTORE PUSH1 0x20 PUSH1 0x0 KECCAK256 SWAP2 PUSH1 0x0 JUMPDEST PUSH1 0x1F NOT DUP6 AND DUP2 LT PUSH2 0x2772 JUMPI POP SWAP2 DUP4 SWAP2 PUSH1 0x2 SWAP4 PUSH1 0x1 SWAP6 PUSH1 0x1F NOT DUP2 AND LT PUSH2 0x2757 JUMPI JUMPDEST POP POP POP MUL ADD PUSH1 0x8 DUP4 ADD SSTORE PUSH2 0x21E7 JUMP JUMPDEST ADD MLOAD PUSH1 0x8 PUSH1 0x1F DUP5 AND MUL DUP5 EXP PUSH1 0x0 NOT DIV NOT AND SWAP1 SSTORE DUP6 DUP1 DUP1 PUSH2 0x2748 JUMP JUMPDEST SWAP2 SWAP3 PUSH1 0x20 PUSH1 0x1 DUP2 SWAP3 DUP7 DUP6 ADD MLOAD DUP2 SSTORE ADD SWAP5 ADD SWAP3 ADD PUSH2 0x2728 JUMP JUMPDEST PUSH2 0x27BA SWAP1 PUSH1 0x8 DUP8 ADD PUSH1 0x0 MSTORE PUSH1 0x20 PUSH1 0x0 KECCAK256 PUSH1 0x20 PUSH1 0x1F DUP7 ADD DIV DUP2 ADD SWAP2 PUSH1 0x20 DUP7 LT PUSH2 0x1158 JUMPI PUSH1 0x1F PUSH1 0x20 SWAP2 ADD DIV ADD SWAP1 PUSH2 0x4118 JUMP JUMPDEST DUP6 PUSH2 0x21B6 JUMP JUMPDEST ADD MLOAD SWAP1 POP DUP5 DUP1 PUSH2 0x216C JUMP JUMPDEST SWAP2 POP PUSH1 0x7 DUP6 ADD PUSH1 0x0 MSTORE PUSH1 0x20 PUSH1 0x0 KECCAK256 SWAP2 PUSH1 0x0 JUMPDEST PUSH1 0x1F NOT DUP6 AND DUP2 LT PUSH2 0x2827 JUMPI POP SWAP2 DUP4 SWAP2 PUSH1 0x2 SWAP4 PUSH1 0x1 SWAP6 PUSH1 0x1F NOT DUP2 AND LT PUSH2 0x280C JUMPI JUMPDEST POP POP POP MUL ADD PUSH1 0x7 DUP4 ADD SSTORE PUSH2 0x2186 JUMP JUMPDEST ADD MLOAD PUSH1 0x8 PUSH1 0x1F DUP5 AND MUL DUP5 EXP PUSH1 0x0 NOT DIV NOT AND SWAP1 SSTORE DUP6 DUP1 DUP1 PUSH2 0x27FD JUMP JUMPDEST SWAP2 SWAP3 PUSH1 0x20 PUSH1 0x1 DUP2 SWAP3 DUP7 DUP6 ADD MLOAD DUP2 SSTORE ADD SWAP5 ADD SWAP3 ADD PUSH2 0x27DD JUMP JUMPDEST PUSH2 0x286F SWAP1 PUSH1 0x7 DUP8 ADD PUSH1 0x0 MSTORE PUSH1 0x20 PUSH1 0x0 KECCAK256 PUSH1 0x20 PUSH1 0x1F DUP7 ADD DIV DUP2 ADD SWAP2 PUSH1 0x20 DUP7 LT PUSH2 0x1158 JUMPI PUSH1 0x1F PUSH1 0x20 SWAP2 ADD DIV ADD SWAP1 PUSH2 0x4118 JUMP JUMPDEST DUP6 PUSH2 0x2155 JUMP JUMPDEST ADD MLOAD SWAP1 POP DUP5 DUP1 PUSH2 0x210C JUMP JUMPDEST SWAP2 POP PUSH1 0x6 DUP6 ADD PUSH1 0x0 MSTORE PUSH1 0x20 PUSH1 0x0 KECCAK256 SWAP2 PUSH1 0x0 JUMPDEST PUSH1 0x1F NOT DUP6 AND DUP2 LT PUSH2 0x28DC JUMPI POP SWAP2 DUP4 SWAP2 PUSH1 0x2 SWAP4 PUSH1 0x1 SWAP6 PUSH1 0x1F NOT DUP2 AND LT PUSH2 0x28C1 JUMPI JUMPDEST POP POP POP MUL ADD PUSH1 0x6 DUP4 ADD SSTORE PUSH2 0x2126 JUMP JUMPDEST ADD MLOAD PUSH1 0x8 PUSH1 0x1F DUP5 AND MUL DUP5 EXP PUSH1 0x0 NOT DIV NOT AND SWAP1 SSTORE DUP6 DUP1 DUP1 PUSH2 0x28B2 JUMP JUMPDEST SWAP2 SWAP3 PUSH1 0x20 PUSH1 0x1 DUP2 SWAP3 DUP7 DUP6 ADD MLOAD DUP2 SSTORE ADD SWAP5 ADD SWAP3 ADD PUSH2 0x2892 JUMP JUMPDEST PUSH2 0x2924 SWAP1 PUSH1 0x6 DUP8 ADD PUSH1 0x0 MSTORE PUSH1 0x20 PUSH1 0x0 KECCAK256 PUSH1 0x20 PUSH1 0x1F DUP7 ADD DIV DUP2 ADD SWAP2 PUSH1 0x20 DUP7 LT PUSH2 0x1158 JUMPI PUSH1 0x1F PUSH1 0x20 SWAP2 ADD DIV ADD SWAP1 PUSH2 0x4118 JUMP JUMPDEST DUP6 PUSH2 0x20F5 JUMP JUMPDEST ADD MLOAD SWAP1 POP DUP5 DUP1 PUSH2 0x20AC JUMP JUMPDEST SWAP2 POP PUSH1 0x5 DUP6 ADD PUSH1 0x0 MSTORE PUSH1 0x20 PUSH1 0x0 KECCAK256 SWAP2 PUSH1 0x0 JUMPDEST PUSH1 0x1F NOT DUP6 AND DUP2 LT PUSH2 0x2991 JUMPI POP SWAP2 DUP4 SWAP2 PUSH1 0x2 SWAP4 PUSH1 0x1 SWAP6 PUSH1 0x1F NOT DUP2 AND LT PUSH2 0x2976 JUMPI JUMPDEST POP POP POP MUL ADD PUSH1 0x5 DUP4 ADD SSTORE PUSH2 0x20C6 JUMP JUMPDEST ADD MLOAD PUSH1 0x8 PUSH1 0x1F DUP5 AND MUL DUP5 EXP PUSH1 0x0 NOT DIV NOT AND SWAP1 SSTORE DUP6 DUP1 DUP1 PUSH2 0x2967 JUMP JUMPDEST SWAP2 SWAP3 PUSH1 0x20 PUSH1 0x1 DUP2 SWAP3 DUP7 DUP6 ADD MLOAD DUP2 SSTORE ADD SWAP5 ADD SWAP3 ADD PUSH2 0x2947 JUMP JUMPDEST PUSH2 0x29D9 SWAP1 PUSH1 0x5 DUP8 ADD PUSH1 0x0 MSTORE PUSH1 0x20 PUSH1 0x0 KECCAK256 PUSH1 0x20 PUSH1 0x1F DUP7 ADD DIV DUP2 ADD SWAP2 PUSH1 0x20 DUP7 LT PUSH2 0x1158 JUMPI PUSH1 0x1F PUSH1 0x20 SWAP2 ADD DIV ADD SWAP1 PUSH2 0x4118 JUMP JUMPDEST DUP6 PUSH2 0x2095 JUMP JUMPDEST ADD MLOAD SWAP1 POP DUP5 DUP1 PUSH2 0x204C JUMP JUMPDEST SWAP2 POP PUSH1 0x4 DUP6 ADD PUSH1 0x0 MSTORE PUSH1 0x20 PUSH1 0x0 KECCAK256 SWAP2 PUSH1 0x0 JUMPDEST PUSH1 0x1F NOT DUP6 AND DUP2 LT PUSH2 0x2A46 JUMPI POP SWAP2 DUP4 SWAP2 PUSH1 0x2 SWAP4 PUSH1 0x1 SWAP6 PUSH1 0x1F NOT DUP2 AND LT PUSH2 0x2A2B JUMPI JUMPDEST POP POP POP MUL ADD PUSH1 0x4 DUP4 ADD SSTORE PUSH2 0x2066 JUMP JUMPDEST ADD MLOAD PUSH1 0x8 PUSH1 0x1F DUP5 AND MUL DUP5 EXP PUSH1 0x0 NOT DIV NOT AND SWAP1 SSTORE DUP6 DUP1 DUP1 PUSH2 0x2A1C JUMP JUMPDEST SWAP2 SWAP3 PUSH1 0x20 PUSH1 0x1 DUP2 SWAP3 DUP7 DUP6 ADD MLOAD DUP2 SSTORE ADD SWAP5 ADD SWAP3 ADD PUSH2 0x29FC JUMP JUMPDEST PUSH2 0x2A8E SWAP1 PUSH1 0x4 DUP8 ADD PUSH1 0x0 MSTORE PUSH1 0x20 PUSH1 0x0 KECCAK256 PUSH1 0x20 PUSH1 0x1F DUP7 ADD DIV DUP2 ADD SWAP2 PUSH1 0x20 DUP7 LT PUSH2 0x1158 JUMPI PUSH1 0x1F PUSH1 0x20 SWAP2 ADD DIV ADD SWAP1 PUSH2 0x4118 JUMP JUMPDEST DUP6 PUSH2 0x2035 JUMP JUMPDEST PUSH1 0xE0 PUSH1 0x2 EXP PUSH4 0x4E487B71 MUL PUSH1 0x0 MSTORE PUSH1 0x32 PUSH1 0x4 MSTORE PUSH1 0x24 PUSH1 0x0 REVERT JUMPDEST CALLVALUE PUSH2 0x1A0 JUMPI PUSH1 0x0 CALLDATASIZE PUSH1 0x3 NOT ADD SLT PUSH2 0x1A0 JUMPI PUSH1 0x40 MLOAD DUP1 PUSH1 0x6 SLOAD DUP1 DUP3 MSTORE DUP3 PUSH1 0x20 DUP1 SWAP4 ADD PUSH1 0x6 PUSH1 0x0 MSTORE PUSH32 0xF652222313E28459528D920B65115C16C04F3EFC82AAEDC97BE59F3F377C0D3F SWAP3 PUSH1 0x0 JUMPDEST DUP6 DUP3 DUP3 LT PUSH2 0x2B23 JUMPI POP POP POP PUSH2 0x2B0F SWAP3 POP SUB DUP4 PUSH2 0x3764 JUMP JUMPDEST PUSH2 0x9DB PUSH1 0x40 MLOAD SWAP3 DUP3 DUP5 SWAP4 DUP5 MSTORE DUP4 ADD SWAP1 PUSH2 0x3852 JUMP JUMPDEST DUP6 SLOAD DUP5 MSTORE PUSH1 0x1 SWAP6 DUP7 ADD SWAP6 DUP9 SWAP6 POP SWAP4 ADD SWAP3 ADD PUSH2 0x2AF8 JUMP JUMPDEST CALLVALUE PUSH2 0x1A0 JUMPI PUSH1 0x20 CALLDATASIZE PUSH1 0x3 NOT ADD SLT PUSH2 0x1A0 JUMPI PUSH1 0x4 CALLDATALOAD PUSH1 0x0 MSTORE PUSH1 0x4 PUSH1 0x20 MSTORE PUSH1 0x20 PUSH1 0x40 PUSH1 0x0 KECCAK256 SLOAD ISZERO ISZERO PUSH1 0x40 MLOAD SWAP1 DUP2 MSTORE RETURN JUMPDEST CALLVALUE PUSH2 0x1A0 JUMPI PUSH1 0x40 CALLDATASIZE PUSH1 0x3 NOT ADD SLT PUSH2 0x1A0 JUMPI PUSH1 0x4 CALLDATALOAD PUSH8 0xFFFFFFFFFFFFFFFF DUP1 DUP3 GT PUSH2 0x1A0 JUMPI CALLDATASIZE PUSH1 0x23 DUP4 ADD SLT ISZERO PUSH2 0x1A0 JUMPI DUP2 PUSH1 0x4 ADD CALLDATALOAD SWAP1 PUSH2 0x2BA5 DUP3 PUSH2 0x3786 JUMP JUMPDEST SWAP3 PUSH2 0x2BB3 PUSH1 0x40 MLOAD SWAP5 DUP6 PUSH2 0x3764 JUMP JUMPDEST DUP3 DUP5 MSTORE PUSH1 0x20 SWAP3 PUSH1 0x24 DUP5 DUP1 DUP8 ADD SWAP3 MUL DUP4 ADD ADD SWAP2 CALLDATASIZE DUP4 GT PUSH2 0x1A0 JUMPI PUSH1 0x24 ADD SWAP1 JUMPDEST DUP3 DUP3 LT PUSH2 0x2CFC JUMPI POP POP POP PUSH1 0x24 CALLDATALOAD SWAP1 DUP2 GT PUSH2 0x1A0 JUMPI PUSH2 0x2BF3 SWAP1 CALLDATASIZE SWAP1 PUSH1 0x4 ADD PUSH2 0x379E JUMP JUMPDEST DUP3 MLOAD DUP2 MLOAD SUB PUSH2 0x2C8F JUMPI DUP3 MLOAD SWAP3 PUSH2 0x2C08 DUP5 PUSH2 0x3786 JUMP JUMPDEST SWAP4 PUSH2 0x2C16 PUSH1 0x40 MLOAD SWAP6 DUP7 PUSH2 0x3764 JUMP JUMPDEST DUP1 DUP6 MSTORE PUSH2 0x2C25 PUSH1 0x1F NOT SWAP2 PUSH2 0x3786 JUMP JUMPDEST ADD CALLDATASIZE DUP5 DUP7 ADD CALLDATACOPY PUSH1 0x0 JUMPDEST DUP2 MLOAD DUP2 LT ISZERO PUSH2 0x2C78 JUMPI DUP1 PUSH2 0x2C63 PUSH1 0x1 PUSH1 0xA0 PUSH1 0x2 EXP SUB PUSH2 0x2C50 PUSH2 0x2C73 SWAP5 DUP7 PUSH2 0x3AB0 JUMP JUMPDEST MLOAD AND PUSH2 0x2C5C DUP4 DUP8 PUSH2 0x3AB0 JUMP JUMPDEST MLOAD SWAP1 PUSH2 0x39EE JUMP JUMPDEST PUSH2 0x2C6D DUP3 DUP9 PUSH2 0x3AB0 JUMP JUMPDEST MSTORE PUSH2 0x3A88 JUMP JUMPDEST PUSH2 0x2C2E JUMP JUMPDEST POP POP POP PUSH2 0x9DB PUSH1 0x40 MLOAD SWAP3 DUP3 DUP5 SWAP4 DUP5 MSTORE DUP4 ADD SWAP1 PUSH2 0x3852 JUMP JUMPDEST PUSH1 0x84 DUP3 PUSH1 0x40 MLOAD SWAP1 PUSH1 0xE5 PUSH1 0x2 EXP PUSH3 0x461BCD MUL DUP3 MSTORE PUSH1 0x4 DUP3 ADD MSTORE PUSH1 0x29 PUSH1 0x24 DUP3 ADD MSTORE PUSH32 0x455243313135353A206163636F756E747320616E6420696473206C656E677468 PUSH1 0x44 DUP3 ADD MSTORE PUSH32 0x206D69736D617463680000000000000000000000000000000000000000000000 PUSH1 0x64 DUP3 ADD MSTORE REVERT JUMPDEST DUP2 CALLDATALOAD PUSH1 0x1 PUSH1 0xA0 PUSH1 0x2 EXP SUB DUP2 AND DUP2 SUB PUSH2 0x1A0 JUMPI DUP2 MSTORE SWAP1 DUP5 ADD SWAP1 DUP5 ADD PUSH2 0x2BD1 JUMP JUMPDEST CALLVALUE PUSH2 0x1A0 JUMPI PUSH1 0x20 CALLDATASIZE PUSH1 0x3 NOT ADD SLT PUSH2 0x1A0 JUMPI PUSH1 0x4 CALLDATALOAD PUSH1 0x0 MSTORE PUSH1 0x5 PUSH1 0x20 MSTORE PUSH2 0x1DA PUSH1 0xD PUSH1 0x40 PUSH1 0x0 KECCAK256 PUSH1 0x0 DUP2 SSTORE PUSH1 0x0 PUSH1 0x1 DUP3 ADD SSTORE PUSH1 0x0 PUSH1 0x2 DUP3 ADD SSTORE PUSH1 0x0 PUSH1 0x3 DUP3 ADD SSTORE PUSH2 0x2D66 PUSH1 0x4 DUP3 ADD PUSH2 0x412F JUMP JUMPDEST PUSH2 0x2D72 PUSH1 0x5 DUP3 ADD PUSH2 0x412F JUMP JUMPDEST PUSH2 0x2D7E PUSH1 0x6 DUP3 ADD PUSH2 0x412F JUMP JUMPDEST PUSH2 0x2D8A PUSH1 0x7 DUP3 ADD PUSH2 0x412F JUMP JUMPDEST PUSH2 0x2D96 PUSH1 0x8 DUP3 ADD PUSH2 0x412F JUMP JUMPDEST PUSH2 0x2DA2 PUSH1 0x9 DUP3 ADD PUSH2 0x412F JUMP JUMPDEST PUSH2 0x2DAE PUSH1 0xA DUP3 ADD PUSH2 0x412F JUMP JUMPDEST PUSH2 0x2DBA PUSH1 0xB DUP3 ADD PUSH2 0x412F JUMP JUMPDEST PUSH2 0x2DC6 PUSH1 0xC DUP3 ADD PUSH2 0x412F JUMP JUMPDEST ADD PUSH2 0x412F JUMP JUMPDEST CALLVALUE PUSH2 0x1A0 JUMPI PUSH1 0x3 NOT PUSH1 0xA0 CALLDATASIZE DUP3 ADD SLT PUSH2 0x1A0 JUMPI PUSH2 0x2DE6 PUSH2 0x36A9 JUMP JUMPDEST SWAP1 PUSH2 0x2DEF PUSH2 0x36BF JUMP JUMPDEST SWAP1 PUSH8 0xFFFFFFFFFFFFFFFF PUSH1 0x44 DUP1 CALLDATALOAD DUP3 DUP2 GT PUSH2 0x1A0 JUMPI PUSH2 0x2E12 SWAP1 CALLDATASIZE SWAP1 PUSH1 0x4 ADD PUSH2 0x379E JUMP JUMPDEST SWAP1 PUSH1 0x64 SWAP1 DUP2 CALLDATALOAD DUP5 DUP2 GT PUSH2 0x1A0 JUMPI PUSH2 0x2E2D SWAP1 CALLDATASIZE SWAP1 PUSH1 0x4 ADD PUSH2 0x379E JUMP JUMPDEST SWAP5 PUSH1 0x84 SWAP5 DUP6 CALLDATALOAD SWAP1 DUP2 GT PUSH2 0x1A0 JUMPI PUSH2 0x2E48 SWAP1 CALLDATASIZE SWAP1 PUSH1 0x4 ADD PUSH2 0x37FB JUMP JUMPDEST SWAP1 PUSH1 0x1 PUSH1 0xA0 PUSH1 0x2 EXP SUB DUP1 SWAP10 AND SWAP9 CALLER DUP11 EQ DUP1 ISZERO PUSH2 0x318F JUMPI JUMPDEST PUSH2 0x2E68 SWAP1 PUSH2 0x3AC3 JUMP JUMPDEST PUSH2 0x2E75 DUP7 MLOAD DUP10 MLOAD EQ PUSH2 0x3C2C JUMP JUMPDEST DUP9 AND SWAP6 DUP7 ISZERO PUSH2 0x2E84 DUP2 ISZERO PUSH2 0x3B37 JUMP JUMPDEST DUP11 ISZERO PUSH2 0x314C JUMPI JUMPDEST PUSH2 0x3093 JUMPI JUMPDEST PUSH1 0x0 JUMPDEST DUP7 MLOAD DUP2 LT ISZERO PUSH2 0x2F23 JUMPI DUP1 PUSH2 0x2EAA PUSH2 0x2F1E SWAP3 DUP10 PUSH2 0x3AB0 JUMP JUMPDEST MLOAD DUP13 PUSH2 0x2EB6 DUP4 DUP14 PUSH2 0x3AB0 JUMP JUMPDEST MLOAD SWAP2 DUP1 PUSH1 0x0 MSTORE DUP3 PUSH1 0x20 SWAP3 PUSH1 0x0 DUP5 MSTORE PUSH1 0x40 PUSH1 0x0 KECCAK256 DUP2 PUSH1 0x0 MSTORE DUP5 MSTORE PUSH1 0x40 PUSH1 0x0 KECCAK256 SLOAD SWAP1 PUSH2 0x2EE2 DUP4 DUP4 LT ISZERO PUSH2 0x3BAB JUMP JUMPDEST DUP4 PUSH1 0x0 MSTORE PUSH1 0x0 DUP6 MSTORE PUSH1 0x40 PUSH1 0x0 KECCAK256 SWAP1 PUSH1 0x0 MSTORE DUP5 MSTORE SUB PUSH1 0x40 PUSH1 0x0 KECCAK256 SSTORE PUSH1 0x0 MSTORE PUSH1 0x0 DUP2 MSTORE PUSH1 0x40 PUSH1 0x0 KECCAK256 SWAP1 DUP12 PUSH1 0x0 MSTORE MSTORE PUSH2 0x6B6 PUSH1 0x40 PUSH1 0x0 KECCAK256 SWAP2 DUP3 SLOAD PUSH2 0x3C1F JUMP JUMPDEST PUSH2 0x2E93 JUMP JUMPDEST POP SWAP1 SWAP2 SWAP3 SWAP4 SWAP7 DUP10 SWAP9 DUP8 DUP11 DUP9 PUSH32 0x4A39DC06D4C0DBC64B70AF90FD698A233A518AA5D07E595D983B8C0526C8F7FB PUSH1 0x40 MLOAD DUP1 PUSH2 0x2F5F DUP9 CALLER SWAP6 DUP4 PUSH2 0x3CA0 JUMP JUMPDEST SUB SWAP1 LOG4 EXTCODESIZE PUSH2 0x2F69 JUMPI STOP JUMPDEST PUSH1 0x40 MLOAD SWAP8 DUP9 SWAP7 DUP8 SWAP7 PUSH32 0xBC197C8100000000000000000000000000000000000000000000000000000000 SWAP12 DUP13 DUP10 MSTORE CALLER PUSH1 0x4 DUP11 ADD MSTORE PUSH1 0x24 DUP10 ADD MSTORE DUP8 ADD PUSH1 0xA0 SWAP1 MSTORE PUSH1 0xA4 DUP8 ADD PUSH2 0x2FB4 SWAP2 PUSH2 0x3852 JUMP JUMPDEST SWAP1 DUP5 DUP8 DUP4 SUB ADD SWAP1 DUP8 ADD MSTORE PUSH2 0x2FC7 SWAP2 PUSH2 0x3852 JUMP JUMPDEST SWAP2 DUP5 DUP4 SUB ADD SWAP1 DUP5 ADD MSTORE PUSH2 0x2FD9 SWAP2 PUSH2 0x36EB JUMP JUMPDEST SUB DUP2 GAS PUSH1 0x20 SWAP5 PUSH1 0x0 SWAP2 CALL PUSH1 0x0 SWAP2 DUP2 PUSH2 0x3073 JUMPI JUMPDEST POP PUSH2 0x3048 JUMPI POP POP PUSH1 0x1 PUSH2 0x2FFD PUSH2 0x3D46 JUMP JUMPDEST PUSH4 0x8C379A0 EQ PUSH2 0x300E JUMPI JUMPDEST PUSH2 0x4B7 JUMPI STOP JUMPDEST PUSH2 0x3016 PUSH2 0x3D80 JUMP JUMPDEST DUP1 PUSH2 0x3021 JUMPI POP PUSH2 0x3008 JUMP JUMPDEST PUSH2 0x525 SWAP1 PUSH1 0x40 MLOAD SWAP2 DUP3 SWAP2 PUSH1 0xE5 PUSH1 0x2 EXP PUSH3 0x461BCD MUL DUP4 MSTORE PUSH1 0x20 PUSH1 0x4 DUP5 ADD MSTORE PUSH1 0x24 DUP4 ADD SWAP1 PUSH2 0x36EB JUMP JUMPDEST PUSH1 0x1 PUSH1 0xE0 PUSH1 0x2 EXP SUB NOT AND EQ PUSH2 0x1DA JUMPI PUSH1 0x40 MLOAD PUSH1 0xE5 PUSH1 0x2 EXP PUSH3 0x461BCD MUL DUP2 MSTORE DUP1 PUSH2 0x525 PUSH1 0x4 DUP3 ADD PUSH2 0x3CE8 JUMP JUMPDEST PUSH2 0x308C SWAP2 SWAP3 POP PUSH1 0x20 RETURNDATASIZE DUP2 GT PUSH2 0x5B6 JUMPI PUSH2 0x5A7 DUP2 DUP4 PUSH2 0x3764 JUMP JUMPDEST SWAP1 DUP4 PUSH2 0x2FEC JUMP JUMPDEST SWAP7 SWAP5 SWAP4 SWAP9 SWAP3 SWAP6 SWAP1 SWAP8 SWAP2 PUSH1 0x0 JUMPDEST DUP6 MLOAD DUP2 LT ISZERO PUSH2 0x313D JUMPI PUSH2 0x30B2 DUP2 DUP8 PUSH2 0x3AB0 JUMP JUMPDEST MLOAD PUSH2 0x30BD DUP3 DUP10 PUSH2 0x3AB0 JUMP JUMPDEST MLOAD SWAP1 DUP1 PUSH1 0x0 MSTORE PUSH1 0x20 PUSH1 0x4 DUP2 MSTORE PUSH1 0x40 PUSH1 0x0 KECCAK256 SLOAD SWAP2 DUP4 DUP4 LT PUSH2 0x30F6 JUMPI PUSH2 0x30F1 SWAP5 SWAP4 SWAP3 SWAP2 PUSH1 0x4 SWAP2 PUSH1 0x0 MSTORE MSTORE SUB PUSH1 0x40 PUSH1 0x0 KECCAK256 SSTORE PUSH2 0x3A88 JUMP JUMPDEST PUSH2 0x309F JUMP JUMPDEST POP DUP12 SWAP1 PUSH1 0x0 DUP1 MLOAD PUSH1 0x20 PUSH2 0x41BC DUP4 CODECOPY DUP2 MLOAD SWAP2 MSTORE DUP16 PUSH1 0x0 DUP1 MLOAD PUSH1 0x20 PUSH2 0x419C DUP4 CODECOPY DUP2 MLOAD SWAP2 MSTORE DUP15 PUSH1 0x40 MLOAD SWAP5 PUSH1 0xE5 PUSH1 0x2 EXP PUSH3 0x461BCD MUL DUP7 MSTORE PUSH1 0x4 DUP7 ADD MSTORE PUSH1 0x28 PUSH1 0x24 DUP7 ADD MSTORE DUP5 ADD MSTORE DUP3 ADD MSTORE REVERT JUMPDEST POP SWAP2 SWAP8 SWAP1 SWAP6 SWAP3 SWAP9 SWAP4 SWAP5 SWAP7 PUSH2 0x2E90 JUMP JUMPDEST SWAP9 SWAP6 SWAP10 SWAP7 SWAP5 SWAP4 SWAP3 SWAP2 SWAP1 PUSH1 0x0 JUMPDEST DUP12 MLOAD DUP2 LT ISZERO PUSH2 0x3180 JUMPI DUP1 DUP13 PUSH2 0x69D DUP3 PUSH2 0x3174 PUSH2 0x317B SWAP6 DUP16 PUSH2 0x3AB0 JUMP JUMPDEST MLOAD SWAP3 PUSH2 0x3AB0 JUMP JUMPDEST PUSH2 0x3158 JUMP JUMPDEST POP SWAP1 SWAP2 SWAP3 SWAP4 SWAP5 SWAP7 SWAP10 SWAP6 SWAP9 PUSH2 0x2E8B JUMP JUMPDEST POP DUP10 PUSH1 0x0 MSTORE PUSH1 0x1 PUSH1 0x20 MSTORE PUSH1 0x40 PUSH1 0x0 KECCAK256 CALLER PUSH1 0x0 MSTORE PUSH1 0x20 MSTORE PUSH2 0x2E68 PUSH1 0xFF PUSH1 0x40 PUSH1 0x0 KECCAK256 SLOAD AND SWAP1 POP PUSH2 0x2E5F JUMP JUMPDEST CALLVALUE PUSH2 0x1A0 JUMPI PUSH1 0x3 NOT PUSH1 0x80 CALLDATASIZE DUP3 ADD SLT PUSH2 0x1A0 JUMPI PUSH2 0x31D2 PUSH2 0x36A9 JUMP JUMPDEST PUSH1 0x24 SWAP2 SWAP1 PUSH8 0xFFFFFFFFFFFFFFFF SWAP1 DUP4 CALLDATALOAD DUP3 DUP2 GT PUSH2 0x1A0 JUMPI PUSH2 0x31F7 SWAP1 CALLDATASIZE SWAP1 PUSH1 0x4 ADD PUSH2 0x379E JUMP JUMPDEST SWAP2 PUSH1 0x44 SWAP5 DUP6 CALLDATALOAD DUP3 DUP2 GT PUSH2 0x1A0 JUMPI PUSH2 0x3212 SWAP1 CALLDATASIZE SWAP1 PUSH1 0x4 ADD PUSH2 0x379E JUMP JUMPDEST SWAP6 PUSH1 0x64 SWAP3 DUP4 CALLDATALOAD SWAP1 DUP2 GT PUSH2 0x1A0 JUMPI PUSH2 0x322D SWAP1 CALLDATASIZE SWAP1 PUSH1 0x4 ADD PUSH2 0x37FB JUMP JUMPDEST SWAP3 PUSH2 0x3236 PUSH2 0x38B0 JUMP JUMPDEST PUSH1 0x1 PUSH1 0xA0 PUSH1 0x2 EXP SUB DUP6 AND SWAP4 DUP5 ISZERO SWAP8 PUSH2 0x324E DUP10 ISZERO PUSH2 0x40A4 JUMP JUMPDEST PUSH2 0x325B DUP9 MLOAD DUP12 MLOAD EQ PUSH2 0x3C2C JUMP JUMPDEST PUSH1 0x0 JUMPDEST DUP9 MLOAD DUP2 LT ISZERO PUSH2 0x3285 JUMPI DUP1 PUSH2 0x3275 PUSH2 0x3280 SWAP3 DUP14 PUSH2 0x3AB0 JUMP JUMPDEST MLOAD PUSH2 0x69D DUP3 DUP13 PUSH2 0x3AB0 JUMP JUMPDEST PUSH2 0x325E JUMP JUMPDEST POP DUP10 SWAP9 SWAP8 SWAP7 SWAP8 PUSH2 0x3427 JUMPI JUMPDEST PUSH1 0x0 JUMPDEST DUP8 MLOAD DUP2 LT ISZERO PUSH2 0x32DF JUMPI DUP1 PUSH2 0x32AA PUSH2 0x32DA SWAP3 DUP13 PUSH2 0x3AB0 JUMP JUMPDEST MLOAD PUSH2 0x32B5 DUP3 DUP12 PUSH2 0x3AB0 JUMP JUMPDEST MLOAD PUSH1 0x0 MSTORE PUSH1 0x20 PUSH1 0x0 DUP2 MSTORE PUSH1 0x40 PUSH1 0x0 KECCAK256 SWAP1 DUP11 PUSH1 0x0 MSTORE MSTORE PUSH2 0x6B6 PUSH1 0x40 PUSH1 0x0 KECCAK256 SWAP2 DUP3 SLOAD PUSH2 0x3C1F JUMP JUMPDEST PUSH2 0x3293 JUMP JUMPDEST POP SWAP1 SWAP2 SWAP4 SWAP8 SWAP6 SWAP3 SWAP7 DUP6 PUSH1 0x0 PUSH1 0x40 MLOAD PUSH32 0x4A39DC06D4C0DBC64B70AF90FD698A233A518AA5D07E595D983B8C0526C8F7FB CALLER SWAP2 DUP1 PUSH2 0x331C DUP14 DUP12 DUP4 PUSH2 0x3CA0 JUMP JUMPDEST SUB SWAP1 LOG4 EXTCODESIZE PUSH2 0x3326 JUMPI STOP JUMPDEST PUSH1 0x40 MLOAD SWAP6 DUP7 SWAP5 DUP6 SWAP5 PUSH32 0xBC197C8100000000000000000000000000000000000000000000000000000000 SWAP10 DUP11 DUP8 MSTORE CALLER PUSH1 0x4 DUP9 ADD MSTORE DUP12 DUP8 ADD PUSH1 0x0 SWAP1 MSTORE DUP7 ADD PUSH1 0xA0 SWAP1 MSTORE PUSH1 0xA4 DUP7 ADD PUSH2 0x3373 SWAP2 PUSH2 0x3852 JUMP JUMPDEST SWAP1 DUP4 DUP7 DUP4 SUB ADD SWAP1 DUP7 ADD MSTORE PUSH2 0x3386 SWAP2 PUSH2 0x3852 JUMP JUMPDEST SWAP1 DUP4 DUP3 SUB ADD PUSH1 0x84 DUP5 ADD MSTORE PUSH2 0x3399 SWAP2 PUSH2 0x36EB JUMP JUMPDEST SUB DUP2 GAS PUSH1 0x20 SWAP5 PUSH1 0x0 SWAP2 CALL PUSH1 0x0 SWAP2 DUP2 PUSH2 0x3407 JUMPI JUMPDEST POP PUSH2 0x561 JUMPI POP POP PUSH1 0x1 SWAP1 PUSH2 0x33BE PUSH2 0x3D46 JUMP JUMPDEST PUSH4 0x8C379A0 EQ PUSH2 0x33CF JUMPI POP PUSH2 0x4B7 JUMPI STOP JUMPDEST PUSH2 0x33D7 PUSH2 0x3D80 JUMP JUMPDEST SWAP1 DUP2 PUSH2 0x33E3 JUMPI POP PUSH2 0x4B0 JUMP JUMPDEST PUSH2 0x525 PUSH1 0x40 MLOAD SWAP3 DUP4 SWAP3 PUSH1 0xE5 PUSH1 0x2 EXP PUSH3 0x461BCD MUL DUP5 MSTORE PUSH1 0x20 PUSH1 0x4 DUP6 ADD MSTORE DUP4 ADD SWAP1 PUSH2 0x36EB JUMP JUMPDEST PUSH2 0x3420 SWAP2 SWAP3 POP PUSH1 0x20 RETURNDATASIZE DUP2 GT PUSH2 0x5B6 JUMPI PUSH2 0x5A7 DUP2 DUP4 PUSH2 0x3764 JUMP JUMPDEST SWAP1 DUP5 PUSH2 0x33AC JUMP JUMPDEST SWAP7 SWAP2 SWAP6 SWAP3 SWAP8 SWAP4 SWAP5 SWAP1 PUSH1 0x0 JUMPDEST DUP5 MLOAD DUP2 LT ISZERO PUSH2 0x34D1 JUMPI PUSH2 0x3445 DUP2 DUP7 PUSH2 0x3AB0 JUMP JUMPDEST MLOAD PUSH2 0x3450 DUP3 DUP9 PUSH2 0x3AB0 JUMP JUMPDEST MLOAD SWAP1 DUP1 PUSH1 0x0 MSTORE PUSH1 0x20 PUSH1 0x4 DUP2 MSTORE PUSH1 0x40 PUSH1 0x0 KECCAK256 SLOAD SWAP2 DUP4 DUP4 LT PUSH2 0x3489 JUMPI PUSH2 0x3484 SWAP5 SWAP4 SWAP3 SWAP2 PUSH1 0x4 SWAP2 PUSH1 0x0 MSTORE MSTORE SUB PUSH1 0x40 PUSH1 0x0 KECCAK256 SSTORE PUSH2 0x3A88 JUMP JUMPDEST PUSH2 0x3432 JUMP JUMPDEST POP PUSH1 0x84 SWAP2 POP PUSH1 0x0 DUP1 MLOAD PUSH1 0x20 PUSH2 0x41BC DUP4 CODECOPY DUP2 MLOAD SWAP2 MSTORE DUP12 PUSH1 0x0 DUP1 MLOAD PUSH1 0x20 PUSH2 0x419C DUP4 CODECOPY DUP2 MLOAD SWAP2 MSTORE DUP16 PUSH1 0x28 DUP15 PUSH1 0x40 MLOAD SWAP7 PUSH1 0xE5 PUSH1 0x2 EXP PUSH3 0x461BCD MUL DUP9 MSTORE PUSH1 0x4 DUP9 ADD MSTORE DUP7 ADD MSTORE DUP5 ADD MSTORE DUP3 ADD MSTORE REVERT JUMPDEST POP SWAP1 SWAP5 SWAP4 SWAP8 SWAP3 SWAP6 SWAP2 SWAP7 PUSH2 0x3290 JUMP JUMPDEST CALLVALUE PUSH2 0x1A0 JUMPI PUSH1 0x20 DUP1 PUSH1 0x3 NOT CALLDATASIZE ADD SLT PUSH2 0x1A0 JUMPI PUSH1 0x40 MLOAD SWAP1 PUSH1 0x0 DUP3 PUSH1 0x2 SLOAD SWAP2 PUSH2 0x3505 DUP4 PUSH2 0x390B JUMP JUMPDEST SWAP3 DUP4 DUP4 MSTORE PUSH1 0x1 SWAP1 DUP6 DUP3 DUP3 AND SWAP2 DUP3 PUSH1 0x0 EQ PUSH2 0x35A1 JUMPI POP POP PUSH1 0x1 EQ PUSH2 0x3544 JUMPI JUMPDEST POP PUSH2 0x3530 SWAP3 POP SUB DUP4 PUSH2 0x3764 JUMP JUMPDEST PUSH2 0x9DB PUSH1 0x40 MLOAD SWAP3 DUP3 DUP5 SWAP4 DUP5 MSTORE DUP4 ADD SWAP1 PUSH2 0x36EB JUMP JUMPDEST DUP5 SWAP2 POP PUSH1 0x2 PUSH1 0x0 MSTORE PUSH32 0x405787FA12A823E0F2B7631CC41B3BA8828B3321CA811111FA75CD3AA3BB5ACE SWAP1 PUSH1 0x0 SWAP2 JUMPDEST DUP6 DUP4 LT PUSH2 0x3589 JUMPI POP POP PUSH2 0x3530 SWAP4 POP DUP3 ADD ADD DUP6 PUSH2 0x3523 JUMP JUMPDEST DUP1 SLOAD DUP4 DUP10 ADD DUP6 ADD MSTORE DUP8 SWAP5 POP DUP7 SWAP4 SWAP1 SWAP3 ADD SWAP2 DUP2 ADD PUSH2 0x3572 JUMP JUMPDEST PUSH1 0xFF NOT AND DUP6 DUP3 ADD MSTORE PUSH2 0x3530 SWAP6 ISZERO ISZERO DUP2 MUL DUP6 ADD ADD SWAP3 POP DUP8 SWAP2 POP PUSH2 0x3523 SWAP1 POP JUMP JUMPDEST CALLVALUE PUSH2 0x1A0 JUMPI PUSH1 0x20 CALLDATASIZE PUSH1 0x3 NOT ADD SLT PUSH2 0x1A0 JUMPI PUSH1 0x4 CALLDATALOAD PUSH1 0x1 PUSH1 0xE0 PUSH1 0x2 EXP SUB NOT DUP2 AND DUP1 SWAP2 SUB PUSH2 0x1A0 JUMPI DUP1 PUSH32 0xD9B67A2600000000000000000000000000000000000000000000000000000000 PUSH1 0x20 SWAP3 EQ SWAP1 DUP2 ISZERO PUSH2 0x3650 JUMPI JUMPDEST DUP2 ISZERO PUSH2 0x3626 JUMPI JUMPDEST POP PUSH1 0x40 MLOAD SWAP1 ISZERO ISZERO DUP2 MSTORE RETURN JUMPDEST PUSH32 0x1FFC9A700000000000000000000000000000000000000000000000000000000 SWAP2 POP EQ DUP3 PUSH2 0x361B JUMP JUMPDEST PUSH32 0xE89341C00000000000000000000000000000000000000000000000000000000 DUP2 EQ SWAP2 POP PUSH2 0x3614 JUMP JUMPDEST CALLVALUE PUSH2 0x1A0 JUMPI PUSH1 0x40 CALLDATASIZE PUSH1 0x3 NOT ADD SLT PUSH2 0x1A0 JUMPI PUSH1 0x20 PUSH2 0x36A1 PUSH2 0x3698 PUSH2 0x36A9 JUMP JUMPDEST PUSH1 0x24 CALLDATALOAD SWAP1 PUSH2 0x39EE JUMP JUMPDEST PUSH1 0x40 MLOAD SWAP1 DUP2 MSTORE RETURN JUMPDEST PUSH1 0x4 CALLDATALOAD SWAP1 PUSH1 0x1 PUSH1 0xA0 PUSH1 0x2 EXP SUB DUP3 AND DUP3 SUB PUSH2 0x1A0 JUMPI JUMP JUMPDEST PUSH1 0x24 CALLDATALOAD SWAP1 PUSH1 0x1 PUSH1 0xA0 PUSH1 0x2 EXP SUB DUP3 AND DUP3 SUB PUSH2 0x1A0 JUMPI JUMP JUMPDEST PUSH1 0x44 CALLDATALOAD SWAP1 PUSH1 0x1 PUSH1 0xA0 PUSH1 0x2 EXP SUB DUP3 AND DUP3 SUB PUSH2 0x1A0 JUMPI JUMP JUMPDEST SWAP2 SWAP1 DUP3 MLOAD SWAP3 DUP4 DUP3 MSTORE PUSH1 0x0 JUMPDEST DUP5 DUP2 LT PUSH2 0x3717 JUMPI POP POP DUP3 PUSH1 0x0 PUSH1 0x20 DUP1 SWAP5 SWAP6 DUP5 ADD ADD MSTORE PUSH1 0x1F DUP1 NOT SWAP2 ADD AND ADD ADD SWAP1 JUMP JUMPDEST PUSH1 0x20 DUP2 DUP4 ADD DUP2 ADD MLOAD DUP5 DUP4 ADD DUP3 ADD MSTORE ADD PUSH2 0x36F6 JUMP JUMPDEST PUSH2 0x1C0 DUP2 ADD SWAP1 DUP2 LT PUSH8 0xFFFFFFFFFFFFFFFF DUP3 GT OR PUSH2 0x1162 JUMPI PUSH1 0x40 MSTORE JUMP JUMPDEST PUSH1 0x20 DUP2 ADD SWAP1 DUP2 LT PUSH8 0xFFFFFFFFFFFFFFFF DUP3 GT OR PUSH2 0x1162 JUMPI PUSH1 0x40 MSTORE JUMP JUMPDEST SWAP1 PUSH1 0x1F DUP1 NOT SWAP2 ADD AND DUP2 ADD SWAP1 DUP2 LT PUSH8 0xFFFFFFFFFFFFFFFF DUP3 GT OR PUSH2 0x1162 JUMPI PUSH1 0x40 MSTORE JUMP JUMPDEST PUSH8 0xFFFFFFFFFFFFFFFF DUP2 GT PUSH2 0x1162 JUMPI PUSH1 0x20 DUP1 SWAP2 MUL ADD SWAP1 JUMP JUMPDEST DUP2 PUSH1 0x1F DUP3 ADD SLT ISZERO PUSH2 0x1A0 JUMPI DUP1 CALLDATALOAD SWAP2 PUSH2 0x37B5 DUP4 PUSH2 0x3786 JUMP JUMPDEST SWAP3 PUSH2 0x37C3 PUSH1 0x40 MLOAD SWAP5 DUP6 PUSH2 0x3764 JUMP JUMPDEST DUP1 DUP5 MSTORE PUSH1 0x20 SWAP3 DUP4 DUP1 DUP1 DUP8 ADD SWAP4 MUL DUP3 ADD ADD SWAP3 DUP4 GT PUSH2 0x1A0 JUMPI DUP4 ADD SWAP1 JUMPDEST DUP3 DUP3 LT PUSH2 0x37EC JUMPI POP POP POP POP SWAP1 JUMP JUMPDEST DUP2 CALLDATALOAD DUP2 MSTORE SWAP1 DUP4 ADD SWAP1 DUP4 ADD PUSH2 0x37DE JUMP JUMPDEST DUP2 PUSH1 0x1F DUP3 ADD SLT ISZERO PUSH2 0x1A0 JUMPI DUP1 CALLDATALOAD SWAP1 PUSH8 0xFFFFFFFFFFFFFFFF DUP3 GT PUSH2 0x1162 JUMPI PUSH1 0x40 MLOAD SWAP3 PUSH2 0x3830 PUSH1 0x1F DUP5 ADD PUSH1 0x1F NOT AND PUSH1 0x20 ADD DUP6 PUSH2 0x3764 JUMP JUMPDEST DUP3 DUP5 MSTORE PUSH1 0x20 DUP4 DUP4 ADD ADD GT PUSH2 0x1A0 JUMPI DUP2 PUSH1 0x0 SWAP3 PUSH1 0x20 DUP1 SWAP4 ADD DUP4 DUP7 ADD CALLDATACOPY DUP4 ADD ADD MSTORE SWAP1 JUMP JUMPDEST SWAP1 DUP2 MLOAD DUP1 DUP3 MSTORE PUSH1 0x20 DUP1 DUP1 SWAP4 ADD SWAP4 ADD SWAP2 PUSH1 0x0 JUMPDEST DUP3 DUP2 LT PUSH2 0x3872 JUMPI POP POP POP POP SWAP1 JUMP JUMPDEST DUP4 MLOAD DUP6 MSTORE SWAP4 DUP2 ADD SWAP4 SWAP3 DUP2 ADD SWAP3 PUSH1 0x1 ADD PUSH2 0x3864 JUMP JUMPDEST PUSH1 0x60 SWAP1 PUSH1 0x3 NOT ADD SLT PUSH2 0x1A0 JUMPI PUSH1 0x4 CALLDATALOAD PUSH1 0x1 PUSH1 0xA0 PUSH1 0x2 EXP SUB DUP2 AND DUP2 SUB PUSH2 0x1A0 JUMPI SWAP1 PUSH1 0x24 CALLDATALOAD SWAP1 PUSH1 0x44 CALLDATALOAD SWAP1 JUMP JUMPDEST PUSH1 0x1 PUSH1 0xA0 PUSH1 0x2 EXP SUB PUSH1 0x3 SLOAD AND CALLER SUB PUSH2 0x38C4 JUMPI JUMP JUMPDEST PUSH1 0x64 PUSH1 0x40 MLOAD PUSH1 0xE5 PUSH1 0x2 EXP PUSH3 0x461BCD MUL DUP2 MSTORE PUSH1 0x20 PUSH1 0x4 DUP3 ADD MSTORE PUSH1 0x20 PUSH1 0x24 DUP3 ADD MSTORE PUSH32 0x4F776E61626C653A2063616C6C6572206973206E6F7420746865206F776E6572 PUSH1 0x44 DUP3 ADD MSTORE REVERT JUMPDEST SWAP1 PUSH1 0x1 PUSH1 0x2 DUP4 DIV SWAP3 AND DUP1 ISZERO PUSH2 0x393F JUMPI JUMPDEST PUSH1 0x20 DUP4 LT EQ PUSH2 0x3926 JUMPI JUMP JUMPDEST PUSH1 0xE0 PUSH1 0x2 EXP PUSH4 0x4E487B71 MUL PUSH1 0x0 MSTORE PUSH1 0x22 PUSH1 0x4 MSTORE PUSH1 0x24 PUSH1 0x0 REVERT JUMPDEST SWAP2 PUSH1 0x7F AND SWAP2 PUSH2 0x391B JUMP JUMPDEST SWAP1 PUSH1 0x40 MLOAD SWAP2 DUP3 PUSH1 0x0 DUP3 SLOAD SWAP3 PUSH2 0x395D DUP5 PUSH2 0x390B JUMP JUMPDEST SWAP1 DUP2 DUP5 MSTORE PUSH1 0x1 SWAP5 DUP6 DUP2 AND SWAP1 DUP2 PUSH1 0x0 EQ PUSH2 0x39CC JUMPI POP PUSH1 0x1 EQ PUSH2 0x3989 JUMPI JUMPDEST POP POP PUSH2 0x3987 SWAP3 POP SUB DUP4 PUSH2 0x3764 JUMP JUMPDEST JUMP JUMPDEST SWAP1 SWAP4 SWAP2 POP PUSH1 0x0 MSTORE PUSH1 0x20 SWAP1 DUP2 PUSH1 0x0 KECCAK256 SWAP4 PUSH1 0x0 SWAP2 JUMPDEST DUP2 DUP4 LT PUSH2 0x39B4 JUMPI POP POP PUSH2 0x3987 SWAP4 POP DUP3 ADD ADD CODESIZE DUP1 PUSH2 0x3979 JUMP JUMPDEST DUP6 SLOAD DUP9 DUP5 ADD DUP6 ADD MSTORE SWAP5 DUP6 ADD SWAP5 DUP8 SWAP5 POP SWAP2 DUP4 ADD SWAP2 PUSH2 0x399C JUMP JUMPDEST SWAP2 POP POP PUSH2 0x3987 SWAP5 POP PUSH1 0x20 SWAP3 POP PUSH1 0xFF NOT AND DUP3 DUP5 ADD MSTORE ISZERO ISZERO DUP2 MUL DUP3 ADD ADD CODESIZE DUP1 PUSH2 0x3979 JUMP JUMPDEST PUSH1 0x1 PUSH1 0xA0 PUSH1 0x2 EXP SUB AND SWAP1 DUP2 ISZERO PUSH2 0x3A1B JUMPI PUSH1 0x0 MSTORE PUSH1 0x0 PUSH1 0x20 MSTORE PUSH1 0x40 PUSH1 0x0 KECCAK256 SWAP1 PUSH1 0x0 MSTORE PUSH1 0x20 MSTORE PUSH1 0x40 PUSH1 0x0 KECCAK256 SLOAD SWAP1 JUMP JUMPDEST PUSH1 0x84 PUSH1 0x40 MLOAD PUSH1 0xE5 PUSH1 0x2 EXP PUSH3 0x461BCD MUL DUP2 MSTORE PUSH1 0x20 PUSH1 0x4 DUP3 ADD MSTORE PUSH1 0x2A PUSH1 0x24 DUP3 ADD MSTORE PUSH32 0x455243313135353A2061646472657373207A65726F206973206E6F7420612076 PUSH1 0x44 DUP3 ADD MSTORE PUSH32 0x616C6964206F776E657200000000000000000000000000000000000000000000 PUSH1 0x64 DUP3 ADD MSTORE REVERT JUMPDEST PUSH1 0x0 NOT DUP2 EQ PUSH2 0x3A97 JUMPI PUSH1 0x1 ADD SWAP1 JUMP JUMPDEST PUSH1 0xE0 PUSH1 0x2 EXP PUSH4 0x4E487B71 MUL PUSH1 0x0 MSTORE PUSH1 0x11 PUSH1 0x4 MSTORE PUSH1 0x24 PUSH1 0x0 REVERT JUMPDEST DUP1 MLOAD DUP3 LT ISZERO PUSH2 0x2A94 JUMPI PUSH1 0x20 DUP1 SWAP3 MUL ADD ADD SWAP1 JUMP JUMPDEST ISZERO PUSH2 0x3ACA JUMPI JUMP JUMPDEST PUSH1 0x84 PUSH1 0x40 MLOAD PUSH1 0xE5 PUSH1 0x2 EXP PUSH3 0x461BCD MUL DUP2 MSTORE PUSH1 0x20 PUSH1 0x4 DUP3 ADD MSTORE PUSH1 0x2E PUSH1 0x24 DUP3 ADD MSTORE PUSH32 0x455243313135353A2063616C6C6572206973206E6F7420746F6B656E206F776E PUSH1 0x44 DUP3 ADD MSTORE PUSH32 0x6572206F7220617070726F766564000000000000000000000000000000000000 PUSH1 0x64 DUP3 ADD MSTORE REVERT JUMPDEST ISZERO PUSH2 0x3B3E JUMPI JUMP JUMPDEST PUSH1 0x84 PUSH1 0x40 MLOAD PUSH1 0xE5 PUSH1 0x2 EXP PUSH3 0x461BCD MUL DUP2 MSTORE PUSH1 0x20 PUSH1 0x4 DUP3 ADD MSTORE PUSH1 0x25 PUSH1 0x24 DUP3 ADD MSTORE PUSH32 0x455243313135353A207472616E7366657220746F20746865207A65726F206164 PUSH1 0x44 DUP3 ADD MSTORE PUSH32 0x6472657373000000000000000000000000000000000000000000000000000000 PUSH1 0x64 DUP3 ADD MSTORE REVERT JUMPDEST ISZERO PUSH2 0x3BB2 JUMPI JUMP JUMPDEST PUSH1 0x84 PUSH1 0x40 MLOAD PUSH1 0xE5 PUSH1 0x2 EXP PUSH3 0x461BCD MUL DUP2 MSTORE PUSH1 0x20 PUSH1 0x4 DUP3 ADD MSTORE PUSH1 0x2A PUSH1 0x24 DUP3 ADD MSTORE PUSH32 0x455243313135353A20696E73756666696369656E742062616C616E636520666F PUSH1 0x44 DUP3 ADD MSTORE PUSH32 0x72207472616E7366657200000000000000000000000000000000000000000000 PUSH1 0x64 DUP3 ADD MSTORE REVERT JUMPDEST SWAP2 SWAP1 DUP3 ADD DUP1 SWAP3 GT PUSH2 0x3A97 JUMPI JUMP JUMPDEST ISZERO PUSH2 0x3C33 JUMPI JUMP JUMPDEST PUSH1 0x84 PUSH1 0x40 MLOAD PUSH1 0xE5 PUSH1 0x2 EXP PUSH3 0x461BCD MUL DUP2 MSTORE PUSH1 0x20 PUSH1 0x4 DUP3 ADD MSTORE PUSH1 0x28 PUSH1 0x24 DUP3 ADD MSTORE PUSH32 0x455243313135353A2069647320616E6420616D6F756E7473206C656E67746820 PUSH1 0x44 DUP3 ADD MSTORE PUSH32 0x6D69736D61746368000000000000000000000000000000000000000000000000 PUSH1 0x64 DUP3 ADD MSTORE REVERT JUMPDEST SWAP1 SWAP2 PUSH2 0x3CB7 PUSH2 0x3CC5 SWAP4 PUSH1 0x40 DUP5 MSTORE PUSH1 0x40 DUP5 ADD SWAP1 PUSH2 0x3852 JUMP JUMPDEST SWAP2 PUSH1 0x20 DUP2 DUP5 SUB SWAP2 ADD MSTORE PUSH2 0x3852 JUMP JUMPDEST SWAP1 JUMP JUMPDEST SWAP1 DUP2 PUSH1 0x20 SWAP2 SUB SLT PUSH2 0x1A0 JUMPI MLOAD PUSH1 0x1 PUSH1 0xE0 PUSH1 0x2 EXP SUB NOT DUP2 AND DUP2 SUB PUSH2 0x1A0 JUMPI SWAP1 JUMP JUMPDEST PUSH1 0x80 SWAP1 PUSH1 0x20 DUP2 MSTORE PUSH1 0x28 PUSH1 0x20 DUP3 ADD MSTORE PUSH32 0x455243313135353A204552433131353552656365697665722072656A65637465 PUSH1 0x40 DUP3 ADD MSTORE PUSH32 0x6420746F6B656E73000000000000000000000000000000000000000000000000 PUSH1 0x60 DUP3 ADD MSTORE ADD SWAP1 JUMP JUMPDEST PUSH1 0x0 SWAP1 PUSH1 0x3 RETURNDATASIZE GT PUSH2 0x3D53 JUMPI JUMP JUMPDEST SWAP1 POP PUSH1 0x4 PUSH1 0x0 DUP1 RETURNDATACOPY PUSH29 0x100000000000000000000000000000000000000000000000000000000 PUSH1 0x0 MLOAD DIV SWAP1 JUMP JUMPDEST PUSH1 0x0 PUSH1 0x44 RETURNDATASIZE LT PUSH2 0x3CC5 JUMPI PUSH1 0x40 MLOAD PUSH1 0x3 NOT SWAP2 RETURNDATASIZE DUP4 ADD PUSH1 0x4 DUP4 RETURNDATACOPY DUP2 MLOAD PUSH8 0xFFFFFFFFFFFFFFFF SWAP2 DUP3 DUP3 GT RETURNDATASIZE PUSH1 0x24 DUP5 ADD GT OR PUSH2 0x3DDE JUMPI DUP2 DUP5 ADD SWAP5 DUP6 MLOAD SWAP4 DUP5 GT PUSH2 0x3DE6 JUMPI RETURNDATASIZE DUP6 ADD ADD PUSH1 0x20 DUP5 DUP8 ADD ADD GT PUSH2 0x3DDE JUMPI POP PUSH2 0x3CC5 SWAP3 SWAP2 ADD PUSH1 0x20 ADD SWAP1 PUSH2 0x3764 JUMP JUMPDEST SWAP5 SWAP4 POP POP POP POP JUMP JUMPDEST POP SWAP5 SWAP4 POP POP POP POP JUMP JUMPDEST PUSH1 0x40 MLOAD SWAP1 PUSH1 0x40 DUP3 ADD DUP3 DUP2 LT PUSH8 0xFFFFFFFFFFFFFFFF DUP3 GT OR PUSH2 0x1162 JUMPI PUSH1 0x40 MSTORE PUSH1 0x1 DUP3 MSTORE PUSH1 0x20 DUP3 ADD PUSH1 0x20 CALLDATASIZE DUP3 CALLDATACOPY DUP3 MLOAD ISZERO PUSH2 0x2A94 JUMPI MSTORE SWAP1 JUMP JUMPDEST ISZERO PUSH2 0x3E2C JUMPI JUMP JUMPDEST PUSH1 0x84 PUSH1 0x40 MLOAD PUSH1 0xE5 PUSH1 0x2 EXP PUSH3 0x461BCD MUL DUP2 MSTORE PUSH1 0x20 PUSH1 0x4 DUP3 ADD MSTORE PUSH1 0x23 PUSH1 0x24 DUP3 ADD MSTORE PUSH32 0x455243313135353A206275726E2066726F6D20746865207A65726F2061646472 PUSH1 0x44 DUP3 ADD MSTORE PUSH32 0x6573730000000000000000000000000000000000000000000000000000000000 PUSH1 0x64 DUP3 ADD MSTORE REVERT JUMPDEST ISZERO PUSH2 0x3EA0 JUMPI JUMP JUMPDEST PUSH1 0x84 PUSH1 0x40 MLOAD PUSH1 0xE5 PUSH1 0x2 EXP PUSH3 0x461BCD MUL DUP2 MSTORE PUSH1 0x20 PUSH1 0x4 DUP3 ADD MSTORE PUSH1 0x24 DUP1 DUP3 ADD MSTORE PUSH32 0x455243313135353A206275726E20616D6F756E7420657863656564732062616C PUSH1 0x44 DUP3 ADD MSTORE PUSH32 0x616E636500000000000000000000000000000000000000000000000000000000 PUSH1 0x64 DUP3 ADD MSTORE REVERT JUMPDEST PUSH1 0x1 PUSH1 0xA0 PUSH1 0x2 EXP SUB AND SWAP3 DUP4 ISZERO SWAP2 SWAP1 PUSH2 0x3F24 DUP4 ISZERO PUSH2 0x3E25 JUMP JUMPDEST PUSH2 0x3F2D DUP3 PUSH2 0x3DEF JUMP JUMPDEST SWAP1 PUSH2 0x3F37 DUP6 PUSH2 0x3DEF JUMP JUMPDEST SWAP6 PUSH1 0x40 SWAP4 DUP5 MLOAD SWAP6 PUSH2 0x3F47 DUP8 PUSH2 0x3748 JUMP JUMPDEST PUSH1 0x0 DUP1 SWAP8 MSTORE PUSH2 0x4054 JUMPI JUMPDEST DUP6 JUMPDEST DUP5 MLOAD DUP2 LT ISZERO PUSH2 0x3FE9 JUMPI PUSH2 0x3F66 DUP2 DUP7 PUSH2 0x3AB0 JUMP JUMPDEST MLOAD PUSH2 0x3F71 DUP3 DUP12 PUSH2 0x3AB0 JUMP JUMPDEST MLOAD SWAP1 DUP1 DUP10 MSTORE PUSH1 0x4 PUSH1 0x20 DUP2 DUP2 MSTORE DUP10 DUP12 KECCAK256 SLOAD SWAP3 DUP5 DUP5 LT PUSH2 0x3FA2 JUMPI DUP12 MSTORE MSTORE DUP8 DUP10 KECCAK256 SWAP2 SWAP1 SUB SWAP1 SSTORE PUSH2 0x3F9D SWAP1 PUSH2 0x3A88 JUMP JUMPDEST PUSH2 0x3F53 JUMP JUMPDEST PUSH1 0x84 DUP4 DUP4 DUP14 MLOAD SWAP2 PUSH1 0xE5 PUSH1 0x2 EXP PUSH3 0x461BCD MUL DUP4 MSTORE DUP3 ADD MSTORE PUSH1 0x28 PUSH1 0x24 DUP3 ADD MSTORE PUSH1 0x0 DUP1 MLOAD PUSH1 0x20 PUSH2 0x419C DUP4 CODECOPY DUP2 MLOAD SWAP2 MSTORE PUSH1 0x44 DUP3 ADD MSTORE PUSH1 0x0 DUP1 MLOAD PUSH1 0x20 PUSH2 0x41BC DUP4 CODECOPY DUP2 MLOAD SWAP2 MSTORE PUSH1 0x64 DUP3 ADD MSTORE REVERT JUMPDEST POP SWAP2 SWAP7 POP SWAP2 POP DUP4 SWAP5 SWAP4 SWAP3 SWAP4 DUP2 DUP5 MSTORE DUP4 PUSH1 0x20 MSTORE DUP5 DUP5 KECCAK256 DUP4 DUP6 MSTORE PUSH1 0x20 MSTORE DUP1 DUP6 DUP6 KECCAK256 SLOAD PUSH2 0x4015 DUP3 DUP3 LT ISZERO PUSH2 0x3E99 JUMP JUMPDEST DUP4 DUP7 MSTORE DUP6 PUSH1 0x20 MSTORE DUP7 DUP7 KECCAK256 DUP6 DUP8 MSTORE PUSH1 0x20 MSTORE SUB DUP6 DUP6 KECCAK256 SSTORE DUP5 MLOAD SWAP2 DUP3 MSTORE PUSH1 0x20 DUP3 ADD MSTORE PUSH1 0x0 DUP1 MLOAD PUSH1 0x20 PUSH2 0x417C DUP4 CODECOPY DUP2 MLOAD SWAP2 MSTORE DUP5 CALLER SWAP3 LOG4 MLOAD PUSH2 0x4051 DUP2 PUSH2 0x3748 JUMP JUMPDEST MSTORE JUMP JUMPDEST SWAP6 SWAP2 SWAP1 DUP6 SWAP4 SWAP6 JUMPDEST DUP7 MLOAD DUP2 LT ISZERO PUSH2 0x4098 JUMPI DUP1 PUSH2 0x4072 PUSH2 0x4093 SWAP3 DUP12 PUSH2 0x3AB0 JUMP JUMPDEST MLOAD PUSH2 0x407D DUP3 DUP11 PUSH2 0x3AB0 JUMP JUMPDEST MLOAD DUP8 MSTORE PUSH1 0x4 PUSH1 0x20 MSTORE PUSH2 0x6B6 DUP9 DUP9 KECCAK256 SWAP2 DUP3 SLOAD PUSH2 0x3C1F JUMP JUMPDEST PUSH2 0x405B JUMP JUMPDEST POP SWAP1 SWAP2 SWAP6 SWAP5 SWAP3 SWAP5 PUSH2 0x3F51 JUMP JUMPDEST ISZERO PUSH2 0x40AB JUMPI JUMP JUMPDEST PUSH1 0x84 PUSH1 0x40 MLOAD PUSH1 0xE5 PUSH1 0x2 EXP PUSH3 0x461BCD MUL DUP2 MSTORE PUSH1 0x20 PUSH1 0x4 DUP3 ADD MSTORE PUSH1 0x21 PUSH1 0x24 DUP3 ADD MSTORE PUSH32 0x455243313135353A206D696E7420746F20746865207A65726F20616464726573 PUSH1 0x44 DUP3 ADD MSTORE PUSH32 0x7300000000000000000000000000000000000000000000000000000000000000 PUSH1 0x64 DUP3 ADD MSTORE REVERT JUMPDEST DUP2 DUP2 LT PUSH2 0x4123 JUMPI POP POP JUMP JUMPDEST PUSH1 0x0 DUP2 SSTORE PUSH1 0x1 ADD PUSH2 0x4118 JUMP JUMPDEST PUSH2 0x4139 DUP2 SLOAD PUSH2 0x390B JUMP JUMPDEST SWAP1 DUP2 PUSH2 0x4143 JUMPI POP POP JUMP JUMPDEST DUP2 PUSH1 0x1F PUSH1 0x0 SWAP4 GT PUSH1 0x1 EQ PUSH2 0x4155 JUMPI POP SSTORE JUMP JUMPDEST PUSH2 0x4171 SWAP1 DUP3 DUP5 MSTORE PUSH1 0x1 PUSH1 0x20 PUSH1 0x1F DUP2 DUP8 KECCAK256 SWAP4 ADD DIV DUP3 ADD SWAP2 ADD PUSH2 0x4118 JUMP JUMPDEST DUP2 PUSH1 0x20 DUP2 KECCAK256 SWAP2 SSTORE SSTORE JUMP INVALID 0xC3 0xD5 DUP2 PUSH9 0xC5AE7397731D063D5B 0xBF RETURNDATASIZE PUSH6 0x7854427343F4 0xC0 DUP4 0x24 0xF PUSH27 0xACAA2D0F62455243313135353A206275726E20616D6F756E742065 PUSH25 0x636565647320746F74616C537570706C790000000000000000 STOP STOP STOP STOP STOP STOP STOP STOP STOP STOP STOP STOP STOP STOP STOP STOP LOG2 PUSH5 0x6970667358 0x22 SLT KECCAK256 MLOAD CALLDATASIZE 0xD6 SWAP8 RETURNDATACOPY PUSH6 0xF48CD938855B COINBASE EXTCODECOPY BLOCKHASH PUSH28 0xC3B8F2137C52BFF48156B09E943F081D64736F6C6343000811003300 "
		},
		"gasEstimates": {
			"creation": {
				"codeDepositCost": "3382600",
				"executionCost": "infinite",
				"totalCost": "infinite"
			},
			"external": {
				"balanceOf(address,uint256)": "738",
				"balanceOfBatch(address[],uint256[])": "infinite",
				"burn(address,uint256,uint256)": "infinite",
				"burnBatch(address,uint256[],uint256[])": "infinite",
				"burn_carbono(address,uint256,uint256)": "infinite",
				"deleteProject(uint256)": "infinite",
				"exists(uint256)": "578",
				"getProjectById(uint256)": "infinite",
				"getProjectList()": "infinite",
				"getProjectsLength()": "748",
				"isApprovedForAll(address,address)": "1274",
				"mint(address,uint256,uint256,bytes)": "infinite",
				"mintBatch(address,uint256[],uint256[],bytes)": "infinite",
				"owner()": "735",
				"renounceOwnership()": "22492",
				"safeBatchTransferFrom(address,address,uint256[],uint256[],bytes)": "infinite",
				"safeTransferFrom(address,address,uint256,uint256,bytes)": "infinite",
				"setApprovalForAll(address,bool)": "22867",
				"setProject(address,address,address,string,string,string,string,string,string,string,string,string,string)": "infinite",
				"supportsInterface(bytes4)": "395",
				"totalSupply(uint256)": "770",
				"transferOwnership(address)": "22967",
				"transferirValores(address,address,uint256,uint256)": "3479",
				"updateProject(uint256,string,address,address,address,string,string,string,string,string,string,string,string,string)": "infinite",
				"uri(uint256)": "infinite"
			},
			"internal": {
				"_beforeTokenTransfer(address,address,address,uint256[] memory,uint256[] memory,bytes memory)": "infinite"
			}
		},
		"methodIdentifiers": {
			"balanceOf(address,uint256)": "00fdd58e",
			"balanceOfBatch(address[],uint256[])": "4e1273f4",
			"burn(address,uint256,uint256)": "f5298aca",
			"burnBatch(address,uint256[],uint256[])": "6b20c454",
			"burn_carbono(address,uint256,uint256)": "d19de7ae",
			"deleteProject(uint256)": "4cd0cb28",
			"exists(uint256)": "4f558e79",
			"getProjectById(uint256)": "bee5cdca",
			"getProjectList()": "5880ef34",
			"getProjectsLength()": "c6bdc0a2",
			"isApprovedForAll(address,address)": "e985e9c5",
			"mint(address,uint256,uint256,bytes)": "731133e9",
			"mintBatch(address,uint256[],uint256[],bytes)": "1f7fdffa",
			"owner()": "8da5cb5b",
			"renounceOwnership()": "715018a6",
			"safeBatchTransferFrom(address,address,uint256[],uint256[],bytes)": "2eb2c2d6",
			"safeTransferFrom(address,address,uint256,uint256,bytes)": "f242432a",
			"setApprovalForAll(address,bool)": "a22cb465",
			"setProject(address,address,address,string,string,string,string,string,string,string,string,string,string)": "5e6780ab",
			"supportsInterface(bytes4)": "01ffc9a7",
			"totalSupply(uint256)": "bd85b039",
			"transferOwnership(address)": "f2fde38b",
			"transferirValores(address,address,uint256,uint256)": "fba23e41",
			"updateProject(uint256,string,address,address,address,string,string,string,string,string,string,string,string,string)": "7f36671c",
			"uri(uint256)": "0e89341c"
		}
	},
	"abi": [
		{
			"inputs": [],
			"stateMutability": "nonpayable",
			"type": "constructor"
		},
		{
			"anonymous": false,
			"inputs": [
				{
					"indexed": true,
					"internalType": "address",
					"name": "account",
					"type": "address"
				},
				{
					"indexed": true,
					"internalType": "address",
					"name": "operator",
					"type": "address"
				},
				{
					"indexed": false,
					"internalType": "bool",
					"name": "approved",
					"type": "bool"
				}
			],
			"name": "ApprovalForAll",
			"type": "event"
		},
		{
			"anonymous": false,
			"inputs": [
				{
					"indexed": true,
					"internalType": "address",
					"name": "previousOwner",
					"type": "address"
				},
				{
					"indexed": true,
					"internalType": "address",
					"name": "newOwner",
					"type": "address"
				}
			],
			"name": "OwnershipTransferred",
			"type": "event"
		},
		{
			"anonymous": false,
			"inputs": [
				{
					"indexed": true,
					"internalType": "address",
					"name": "operator",
					"type": "address"
				},
				{
					"indexed": true,
					"internalType": "address",
					"name": "from",
					"type": "address"
				},
				{
					"indexed": true,
					"internalType": "address",
					"name": "to",
					"type": "address"
				},
				{
					"indexed": false,
					"internalType": "uint256[]",
					"name": "ids",
					"type": "uint256[]"
				},
				{
					"indexed": false,
					"internalType": "uint256[]",
					"name": "values",
					"type": "uint256[]"
				}
			],
			"name": "TransferBatch",
			"type": "event"
		},
		{
			"anonymous": false,
			"inputs": [
				{
					"indexed": true,
					"internalType": "address",
					"name": "operator",
					"type": "address"
				},
				{
					"indexed": true,
					"internalType": "address",
					"name": "from",
					"type": "address"
				},
				{
					"indexed": true,
					"internalType": "address",
					"name": "to",
					"type": "address"
				},
				{
					"indexed": false,
					"internalType": "uint256",
					"name": "id",
					"type": "uint256"
				},
				{
					"indexed": false,
					"internalType": "uint256",
					"name": "value",
					"type": "uint256"
				}
			],
			"name": "TransferSingle",
			"type": "event"
		},
		{
			"anonymous": false,
			"inputs": [
				{
					"indexed": false,
					"internalType": "string",
					"name": "value",
					"type": "string"
				},
				{
					"indexed": true,
					"internalType": "uint256",
					"name": "id",
					"type": "uint256"
				}
			],
			"name": "URI",
			"type": "event"
		},
		{
			"inputs": [
				{
					"internalType": "address",
					"name": "account",
					"type": "address"
				},
				{
					"internalType": "uint256",
					"name": "id",
					"type": "uint256"
				}
			],
			"name": "balanceOf",
			"outputs": [
				{
					"internalType": "uint256",
					"name": "",
					"type": "uint256"
				}
			],
			"stateMutability": "view",
			"type": "function"
		},
		{
			"inputs": [
				{
					"internalType": "address[]",
					"name": "accounts",
					"type": "address[]"
				},
				{
					"internalType": "uint256[]",
					"name": "ids",
					"type": "uint256[]"
				}
			],
			"name": "balanceOfBatch",
			"outputs": [
				{
					"internalType": "uint256[]",
					"name": "",
					"type": "uint256[]"
				}
			],
			"stateMutability": "view",
			"type": "function"
		},
		{
			"inputs": [
				{
					"internalType": "address",
					"name": "account",
					"type": "address"
				},
				{
					"internalType": "uint256",
					"name": "id",
					"type": "uint256"
				},
				{
					"internalType": "uint256",
					"name": "value",
					"type": "uint256"
				}
			],
			"name": "burn",
			"outputs": [],
			"stateMutability": "nonpayable",
			"type": "function"
		},
		{
			"inputs": [
				{
					"internalType": "address",
					"name": "account",
					"type": "address"
				},
				{
					"internalType": "uint256[]",
					"name": "ids",
					"type": "uint256[]"
				},
				{
					"internalType": "uint256[]",
					"name": "values",
					"type": "uint256[]"
				}
			],
			"name": "burnBatch",
			"outputs": [],
			"stateMutability": "nonpayable",
			"type": "function"
		},
		{
			"inputs": [
				{
					"internalType": "address",
					"name": "account",
					"type": "address"
				},
				{
					"internalType": "uint256",
					"name": "id",
					"type": "uint256"
				},
				{
					"internalType": "uint256",
					"name": "value",
					"type": "uint256"
				}
			],
			"name": "burn_carbono",
			"outputs": [],
			"stateMutability": "nonpayable",
			"type": "function"
		},
		{
			"inputs": [
				{
					"internalType": "uint256",
					"name": "id",
					"type": "uint256"
				}
			],
			"name": "deleteProject",
			"outputs": [],
			"stateMutability": "nonpayable",
			"type": "function"
		},
		{
			"inputs": [
				{
					"internalType": "uint256",
					"name": "id",
					"type": "uint256"
				}
			],
			"name": "exists",
			"outputs": [
				{
					"internalType": "bool",
					"name": "",
					"type": "bool"
				}
			],
			"stateMutability": "view",
			"type": "function"
		},
		{
			"inputs": [
				{
					"internalType": "uint256",
					"name": "id",
					"type": "uint256"
				}
			],
			"name": "getProjectById",
			"outputs": [
				{
					"internalType": "uint256",
					"name": "",
					"type": "uint256"
				},
				{
					"internalType": "string",
					"name": "",
					"type": "string"
				},
				{
					"internalType": "address",
					"name": "",
					"type": "address"
				},
				{
					"internalType": "address",
					"name": "",
					"type": "address"
				},
				{
					"internalType": "address",
					"name": "",
					"type": "address"
				},
				{
					"internalType": "string",
					"name": "",
					"type": "string"
				},
				{
					"internalType": "string",
					"name": "",
					"type": "string"
				},
				{
					"internalType": "string",
					"name": "",
					"type": "string"
				},
				{
					"internalType": "string",
					"name": "",
					"type": "string"
				},
				{
					"internalType": "string",
					"name": "",
					"type": "string"
				},
				{
					"internalType": "string",
					"name": "",
					"type": "string"
				},
				{
					"internalType": "string",
					"name": "",
					"type": "string"
				},
				{
					"internalType": "string",
					"name": "",
					"type": "string"
				},
				{
					"internalType": "string",
					"name": "",
					"type": "string"
				}
			],
			"stateMutability": "view",
			"type": "function"
		},
		{
			"inputs": [],
			"name": "getProjectList",
			"outputs": [
				{
					"internalType": "uint256[]",
					"name": "",
					"type": "uint256[]"
				}
			],
			"stateMutability": "view",
			"type": "function"
		},
		{
			"inputs": [],
			"name": "getProjectsLength",
			"outputs": [
				{
					"internalType": "uint256",
					"name": "",
					"type": "uint256"
				}
			],
			"stateMutability": "view",
			"type": "function"
		},
		{
			"inputs": [
				{
					"internalType": "address",
					"name": "account",
					"type": "address"
				},
				{
					"internalType": "address",
					"name": "operator",
					"type": "address"
				}
			],
			"name": "isApprovedForAll",
			"outputs": [
				{
					"internalType": "bool",
					"name": "",
					"type": "bool"
				}
			],
			"stateMutability": "view",
			"type": "function"
		},
		{
			"inputs": [
				{
					"internalType": "address",
					"name": "account",
					"type": "address"
				},
				{
					"internalType": "uint256",
					"name": "id",
					"type": "uint256"
				},
				{
					"internalType": "uint256",
					"name": "amount",
					"type": "uint256"
				},
				{
					"internalType": "bytes",
					"name": "data",
					"type": "bytes"
				}
			],
			"name": "mint",
			"outputs": [],
			"stateMutability": "nonpayable",
			"type": "function"
		},
		{
			"inputs": [
				{
					"internalType": "address",
					"name": "to",
					"type": "address"
				},
				{
					"internalType": "uint256[]",
					"name": "ids",
					"type": "uint256[]"
				},
				{
					"internalType": "uint256[]",
					"name": "amounts",
					"type": "uint256[]"
				},
				{
					"internalType": "bytes",
					"name": "data",
					"type": "bytes"
				}
			],
			"name": "mintBatch",
			"outputs": [],
			"stateMutability": "nonpayable",
			"type": "function"
		},
		{
			"inputs": [],
			"name": "owner",
			"outputs": [
				{
					"internalType": "address",
					"name": "",
					"type": "address"
				}
			],
			"stateMutability": "view",
			"type": "function"
		},
		{
			"inputs": [],
			"name": "renounceOwnership",
			"outputs": [],
			"stateMutability": "nonpayable",
			"type": "function"
		},
		{
			"inputs": [
				{
					"internalType": "address",
					"name": "from",
					"type": "address"
				},
				{
					"internalType": "address",
					"name": "to",
					"type": "address"
				},
				{
					"internalType": "uint256[]",
					"name": "ids",
					"type": "uint256[]"
				},
				{
					"internalType": "uint256[]",
					"name": "amounts",
					"type": "uint256[]"
				},
				{
					"internalType": "bytes",
					"name": "data",
					"type": "bytes"
				}
			],
			"name": "safeBatchTransferFrom",
			"outputs": [],
			"stateMutability": "nonpayable",
			"type": "function"
		},
		{
			"inputs": [
				{
					"internalType": "address",
					"name": "from",
					"type": "address"
				},
				{
					"internalType": "address",
					"name": "to",
					"type": "address"
				},
				{
					"internalType": "uint256",
					"name": "id",
					"type": "uint256"
				},
				{
					"internalType": "uint256",
					"name": "amount",
					"type": "uint256"
				},
				{
					"internalType": "bytes",
					"name": "data",
					"type": "bytes"
				}
			],
			"name": "safeTransferFrom",
			"outputs": [],
			"stateMutability": "nonpayable",
			"type": "function"
		},
		{
			"inputs": [
				{
					"internalType": "address",
					"name": "operator",
					"type": "address"
				},
				{
					"internalType": "bool",
					"name": "approved",
					"type": "bool"
				}
			],
			"name": "setApprovalForAll",
			"outputs": [],
			"stateMutability": "nonpayable",
			"type": "function"
		},
		{
			"inputs": [
				{
					"internalType": "address",
					"name": "_projectOwner",
					"type": "address"
				},
				{
					"internalType": "address",
					"name": "_projectCreator",
					"type": "address"
				},
				{
					"internalType": "address",
					"name": "_projectApprover",
					"type": "address"
				},
				{
					"internalType": "string",
					"name": "_name",
					"type": "string"
				},
				{
					"internalType": "string",
					"name": "_description",
					"type": "string"
				},
				{
					"internalType": "string",
					"name": "_documentation",
					"type": "string"
				},
				{
					"internalType": "string",
					"name": "_hash_documentation",
					"type": "string"
				},
				{
					"internalType": "string",
					"name": "_state",
					"type": "string"
				},
				{
					"internalType": "string",
					"name": "_area",
					"type": "string"
				},
				{
					"internalType": "string",
					"name": "_creditAssigned",
					"type": "string"
				},
				{
					"internalType": "string",
					"name": "_creationDate",
					"type": "string"
				},
				{
					"internalType": "string",
					"name": "_retired",
					"type": "string"
				},
				{
					"internalType": "string",
					"name": "_updateDate",
					"type": "string"
				}
			],
			"name": "setProject",
			"outputs": [],
			"stateMutability": "nonpayable",
			"type": "function"
		},
		{
			"inputs": [
				{
					"internalType": "bytes4",
					"name": "interfaceId",
					"type": "bytes4"
				}
			],
			"name": "supportsInterface",
			"outputs": [
				{
					"internalType": "bool",
					"name": "",
					"type": "bool"
				}
			],
			"stateMutability": "view",
			"type": "function"
		},
		{
			"inputs": [
				{
					"internalType": "uint256",
					"name": "id",
					"type": "uint256"
				}
			],
			"name": "totalSupply",
			"outputs": [
				{
					"internalType": "uint256",
					"name": "",
					"type": "uint256"
				}
			],
			"stateMutability": "view",
			"type": "function"
		},
		{
			"inputs": [
				{
					"internalType": "address",
					"name": "newOwner",
					"type": "address"
				}
			],
			"name": "transferOwnership",
			"outputs": [],
			"stateMutability": "nonpayable",
			"type": "function"
		},
		{
			"inputs": [
				{
					"internalType": "address",
					"name": "_from",
					"type": "address"
				},
				{
					"internalType": "address",
					"name": "_to",
					"type": "address"
				},
				{
					"internalType": "uint256",
					"name": "_id",
					"type": "uint256"
				},
				{
					"internalType": "uint256",
					"name": "_value",
					"type": "uint256"
				}
			],
			"name": "transferirValores",
			"outputs": [],
			"stateMutability": "nonpayable",
			"type": "function"
		},
		{
			"inputs": [
				{
					"internalType": "uint256",
					"name": "id",
					"type": "uint256"
				},
				{
					"internalType": "string",
					"name": "_name",
					"type": "string"
				},
				{
					"internalType": "address",
					"name": "_projectOwner",
					"type": "address"
				},
				{
					"internalType": "address",
					"name": "_projectCreator",
					"type": "address"
				},
				{
					"internalType": "address",
					"name": "_projectApprover",
					"type": "address"
				},
				{
					"internalType": "string",
					"name": "_description",
					"type": "string"
				},
				{
					"internalType": "string",
					"name": "_documentation",
					"type": "string"
				},
				{
					"internalType": "string",
					"name": "_hash_documentation",
					"type": "string"
				},
				{
					"internalType": "string",
					"name": "_state",
					"type": "string"
				},
				{
					"internalType": "string",
					"name": "_area",
					"type": "string"
				},
				{
					"internalType": "string",
					"name": "_creditAssigned",
					"type": "string"
				},
				{
					"internalType": "string",
					"name": "_creationDate",
					"type": "string"
				},
				{
					"internalType": "string",
					"name": "_retired",
					"type": "string"
				},
				{
					"internalType": "string",
					"name": "_updateDate",
					"type": "string"
				}
			],
			"name": "updateProject",
			"outputs": [],
			"stateMutability": "nonpayable",
			"type": "function"
		},
		{
			"inputs": [
				{
					"internalType": "uint256",
					"name": "",
					"type": "uint256"
				}
			],
			"name": "uri",
			"outputs": [
				{
					"internalType": "string",
					"name": "",
					"type": "string"
				}
			],
			"stateMutability": "view",
			"type": "function"
		}
	]
}